:020000040800F2
:10000000A87B0020A1010008A9010008AB0100089D
:10001000AD010008AF010008B101000800000000B8
:10002000000000000000000000000000B301000814
:10003000B501000800000000B7010008B901000880
:10004000BB010008BB01000895210008000000006A
:1000500000000000CD090008BB010008BB0100083A
:10006000BB01000800000000BB010008BB01000844
:10007000BB01000800000000BB010008BB01000834
:10008000BB010008BB01000800000000BB01000824
:10009000BB0100080000000000000000000000009C
:1000A000000000000000000000000000BB0100088C
:1000B000BB010008BB010008BB010008BB01000830
:1000C00000F002F800F043F80AA090E8000C824427
:1000D0008344AAF10107DA4501D100F038F8AFF204
:1000E000090EBAE80F0013F0010F18BFFB1A43F016
:1000F00001031847E445000004460000103A24BFFD
:1001000078C878C1FAD8520724BF30C830C144BF7C
:1001100004680C60704700000023002400250026BE
:10012000103A28BF78C1FBD8520728BF30C148BF5A
:100130000B6070471FB500F055FA04000020002145
:1001400003F096F8401C60601FBD10B510BD00F0B4
:1001500024FA1146FFF7EEFF02F0B2FA00F054FA6B
:1001600003B4FFF7F2FF03BC00F058FA80B541F288
:10017000080CC2F2000CBCF808300BB1184680BD68
:100180000A4601464FF4007041F2A553ACF808004E
:10019000C0F60003012001F04DFF0346184680BD64
:1001A0000948804709480047FEE7FEE7FEE7FEE70B
:1001B000FEE7FEE7FEE7FEE7FEE7FEE70448054947
:1001C000054A064B70470000A5110008C100000851
:1001D000A81B0020A87B0020A83B0020A83B0020F3
:1001E00070B5064600F004F90468054630460A2258
:1001F000002100F00CF92C6070BD40EA010370B5DD
:100200009B072ED14FF00136042A2AD308C810C903
:100210009D1B9D43121F15EAC61517D0D8B2E1B237
:10022000401A50EA056110D198B2A1B2401A50EAC2
:1002300005410AD123F07F4024F07F41401A50EA63
:10024000052102D1180EA0EB146070BDA342DBD0D3
:1002500018BA21BA884201D9012070BD4FF0FF3091
:1002600070BD0AB9002070BD10F8013B11F8014BB8
:1002700063B1A3420AD1521E08D010F8013B11F815
:10028000014B1BB1A34201D1521EEDD1181B70BD11
:10029000032A40F2308010F0030C00F0158011F8B2
:1002A000013BBCF1020F624498BF11F801CB00F88A
:1002B000013B38BF11F8013BA2F1040298BF00F8DE
:1002C00001CB38BF00F8013B11F0030300F0D780E9
:1002D000083AC0F0088051F8043B083A51F804CBC2
:1002E000A0E80810F5E7121D5CBF51F8043B40F888
:1002F000043BAFF30080D20724BF11F8013B11F893
:1003000001CB48BF11F8012B24BF00F8013B00F8D6
:1003100001CB48BF00F8012B70474FF0000200B539
:10032000134694469646203922BFA0E80C50A0E818
:100330000C50B1F12001BFF4F7AF090728BFA0E8C6
:100340000C5048BF0CC05DF804EB890028BF40F892
:10035000042B08BF704748BF20F8022B11F0804FD4
:1003600018BF00F8012B70474FF0013C50F8042BE8
:1003700051F8043B9A4221D1A2EB0C03934313EAB8
:10038000CC1317D150F8042B51F8043B9A4215D1E5
:10039000A2EB0C03934313EACC130BD150F8042BBC
:1003A00051F8043B9A4209D1A2EB0C03934313EAA0
:1003B000CC13DBD04FF00000704700BFD01A01BA59
:1003C000B1FA81F101F0180122FA01F0CB40DBB261
:1003D000C0B2C01AC1F120012CFA01F3D11A914325
:1003E00011EAC311E6D170477047704770470000AB
:1003F000004870470004002010B5FFF7F9FF0068BF
:1004000010BD10B50446FFF7F3FF046010BD2DE9E1
:10041000F04791460F4680460446002614F8015BDB
:100420002DB100F063F80068405DC007F6D12B2DB8
:1004300002D02D2D18D0641E4A463946204600F0C1
:100440005DF827B13968A14201D1C7F800804FF0AB
:10045000020471050BD54042002803DDFFF7C8FFF9
:100460000460A007BDE8F08746F48066E4E7002852
:10047000F8DAFFF7BDFF04606FF00040F2E710B557
:10048000203AC0F00B80B1E81850A0E81850B1E84D
:100490001850A0E81850203ABFF4F5AF5FEA027C8C
:1004A00024BFB1E81850A0E8185044BF18C918C0BC
:1004B000BDE810405FEA827C24BF51F8043B40F85D
:1004C000043B08BF7047D20728BF31F8023B48BF42
:1004D00011F8012B28BF20F8023B48BF00F8012B80
:1004E00070470000004870470004002010B500F07D
:1004F00079F8001D10BD00BF792D00002DE9F05FD7
:10050000824615468B4600270AF10104B946007859
:10051000302801D09DB113E014F8010B0127782891
:1005200003D0582801D045B10AE00DB1102D07D1F4
:10053000002714F8010B102502E0082500E00A2529
:100540000026B0460EE005FB080005FB06F101277A
:100550001FFA80F801EB1046B6F5803F00D3B9468C
:1005600014F8010B294600F041F80028EBDABBF142
:10057000000F05D00FB1641E00E05446CBF80040D8
:10058000B9F1000F06D0FFF733FF02210160C81E4A
:10059000BDE8F09F48EA0640FAE77546FFF7A2FF7C
:1005A000AE4605006946534620F00700854618B060
:1005B00020B5FFF703FEBDE820404FF000064FF0E6
:1005C00000074FF000084FF0000BAC46ACE8C00944
:1005D000ACE8C009ACE8C009ACE8C00921F00701EB
:1005E0008D46704700487047200400203A2800D20A
:1005F000303820F02002412A01D3A2F1370088428E
:1006000001D34FF0FF30704710B50446AFF30080C0
:100610002046BDE81040FFF7A3BD000001491820A7
:10062000ABBEFEE7260002007047000048F2000162
:10063000C4F208010A68002822F0010218BF013242
:100640000A6070472DE9F04148F20001C4F2080148
:100650000A680323CFF2FF1302EA030E03784278FD
:10066000B0F802C0734404791A4485896244468A0A
:1006700002EB0412C78A2A443244D0F818803A4464
:100680004B68C789067D0F61078A23F400338F60AA
:10069000806802EB486203EB464388620A604B6065
:1006A000BDE8F08148F20000C4F2080000210160BA
:1006B000416081600161826901628162C160416162
:1006C000C2694162C1627047F0B5D0E90231D0E938
:1006D00004241944D0E900CE48F200051144C4F2C4
:1006E0000805214480692E684FF6FF776144C0F603
:1006F000006701EB0E713E4001EB40503044286032
:10070000F0BD00000021C0E90011C0E90211C0E9FC
:1007100004118161704700000021C1828161016084
:100720000171C0E902110161017570470021C4F235
:1007300009010A68002822F0040218BF04320A6086
:10074000704700000021C4F209010A6822F001028A
:1007500010440860704700000021C4F209010A68D3
:10076000002822F0080218BF08320A607047000013
:100770000021C4F209010A6822F002021044086054
:10078000704700000020C4F2090000214160816030
:100790000160704748F228020123C4F202020029D6
:1007A00003FA00F00CBF5060106070472DE9F04173
:1007B000D1B148F20C01C4F20201096892F808C0F4
:1007C00001EB001EBCF1030F2AD11168137CCEF897
:1007D0000010042B2FD0517A032945D15168CEF84F
:1007E0000410032147E000BF92F808E040F6004CF7
:1007F000C2F2000CBEF1030F0CEB001320D1146801
:1008000092F810801C60B8F1040F25D0537A032BA6
:1008100048D153680CEB0014636003234AE000BF27
:1008200051691368013901FA0CF11944137CCEF8AF
:100830000010042BCFD1516801F10C07517A18E058
:1008400051691468013901FA0EF10C4492F81080D4
:100850001C60B8F1040FD9D153680CEB001503F1FB
:100860000C04537A25E000BF57695668013F8F405A
:100870003744CEF80470D2E90576D2E90754D2683D
:1008800043EA8C631A4342EA817121436FF00F00FF
:10089000294300EB071031430843CEF80800BDE8B8
:1008A000F08100BF54695568013C9C402C440CEB1E
:1008B00000156C6002F11407F0CFD2686FF00F01E1
:1008C00001EB041148EA8E64224342EA83723A4300
:1008D00032432A4311430CEB00108160BDE8F081E4
:1008E00048F20400C4F2020000210160416001618D
:1008F0004FF0FF3101224161C16181620163816377
:1009000082640260C16141624EF28020CEF200003A
:1009100020210160704700000139072984BF0020B1
:100920007047DFE801F0050D17212B353F4900BF67
:1009300048F20000C4F20200006800F001007047B5
:1009400048F20000C4F20200C06C012121EA00005C
:10095000704700BF48F20001C4F20201896A21FA1F
:1009600000F000F00100704748F20001C4F20201FB
:10097000096A21FA00F000F00100704748F2000116
:10098000C4F20201096921FA00F000F00100704789
:1009900048F20001C4F20201896921FA00F000F076
:1009A0000100704748F20001C4F20201096B21FA0C
:1009B00000F000F00100704748F20001C4F20201AB
:1009C000896B21FA00F000F00100704780B541F218
:1009D0004420C2F200000168013101600B200721B0
:1009E000FFF79AFF50B140F23452C2F200020B20DE
:1009F0000021BDE88040FFF7D9BE00BF40F234506F
:100A0000C2F2000000F124020B200121BDE8804069
:100A1000FFF7CCBE2DE9F04748F2040E40F6004C3B
:100A2000C4F2020EC2F2000CCEF804C00B68002B18
:100A30004AD093F808800CEB0015B8F1030F13D1DE
:100A40001E6893F810902E60B9F1040F18D093F837
:100A500009A0BAF1030F19D15D680CEB001675609F
:100A60004FF0030A1BE000BF5C691E68013C04FAFA
:100A700008F4264493F810902E60B9F1040FE6D1E3
:100A80005D6893F809A005F10C0605E05E695F68F2
:100A9000013E06FA0AF63E440CEB00177E60D3E9ED
:100AA0000567D3E90724DB686FF00F0505EB061532
:100AB00049EA8866334343EA8A7323431A433A4335
:100AC0002A430CEB00139A604A68002A4CD0DEF8E7
:100AD000083092F808C003EB0018BCF1030F13D1E3
:100AE000156892F81090C8F80050B9F1040F18D0AA
:100AF00092F809A0BAF1030F1AD155684FF0030A12
:100B0000C8F804501CE000BF54691568013C04FAA1
:100B10000CF4254492F81090C8F80050B9F1040F75
:100B2000E6D1556892F809A005F10C0606E000BF71
:100B300056695768013E06FA0AF63E44C8F8046052
:100B4000D2E90567D2E90734D2686FF00F0505EBEB
:100B5000061549EA8C66324342EA8A7222431A43F6
:100B60003A432A43C8F808208A68012342F0010268
:100B7000CEF800204A7B03FA00F0012A14BFCEF819
:100B80001800CEF81400CEF82000CEF824008A7B9E
:100B9000002A14BFCEF82C00CEF83000097B0129C2
:100BA00014BFCEF83800CEF83400BDE8F08700005E
:100BB0000021C0F80B10C0E90011816070470000EF
:100BC0000021C1600161416001608160416181611A
:100BD000C16170472DE9F04F86B04668D0F80890A3
:100BE000C2688B4605920169039141690491D0F86E
:100BF00018A00090D0F81CE0BBF80070002F5FD068
:100C0000012203234FF0011400254FF0000C08E0EF
:100C100052009B0064000CF1010C7F0805F10205F5
:100C20004ED0F807F4D026EA02009BF8026029EAC9
:100C3000030906FA0CF6304302909BF80800059E63
:100C4000A84040EA09019BF80A00964300FA0CF01C
:100C50003043CDF804E09BF803E0059003989BF83F
:100C600004800CF1100620EA04090EFA06F040EAAE
:100C7000090E08FA0CF040EA0E0003909BF80500FC
:100C800089460499B0409BF8066021EA040E40EAC8
:100C90000E0006FA0CF6304304909BF809002AEA8D
:100CA0000306A84040EA060A9BF80700019900FAEB
:100CB0000CF021EA020640EA060E029EA8E700BFF9
:100CC00000984660C0F808900599C16003990161D9
:100CD00004994161C0F818A0C0F81CE006B0BDE856
:100CE000F08F00008821C4F24021086070470000A6
:100CF0000422C4F20202936823F0030318439060B5
:100D000013688C2023F4706343EA0121C4F240206D
:100D1000116050F8041C002908BF704701210160D0
:100D2000002101607047000040F28811C4F24021A8
:100D3000086070470C21C4F202010A6822F0F00238
:100D400042EA0010086070470C21C4F202010A68F0
:100D500022F4407210430860704700000821C4F27A
:100D600002010A68012822F003020A6003D0022867
:100D700018BF704703200A681043086070470000DE
:100D800081B00020C4F20200002100910168009AA5
:100D900001320092009A520A022A23D811F004016B
:100DA00020D10168009A01320092009A520A022A68
:100DB00018D811F0040115D10168009A013200928F
:100DC000009A520A022A0DD811F004010AD10168D2
:100DD000009A01320092009A520A022A02D811F0B7
:100DE0000401D3D00068C0F3800001B07047000058
:100DF000002940F21C01C4F202010A680CBF22EA79
:100E00000000104308607047F0B581B01020C0F2B8
:100E100002000121FFF7ECFF4FF0C0700121FFF746
:100E2000E7FF4EF6085040F20051CEF20000C0F24B
:100E3000FA5141604FF0006101604EF20010CEF2B5
:100E400000004FF0FF310024C0F88011C0F880107E
:100E50004FF40031C4F20C0401602046FFF7B0FEED
:100E600041F61C31C2F200010326002720460E8005
:100E70008F708F72FFF7AEFEFFF714FC40F28444D0
:100E8000C2F200042046FFF73DFC2046FFF71CFCA1
:100E900004F11C052846FFF73FFC40F60000C0F2B5
:100EA0000020E0614FF4405002216662E78584F83B
:100EB000307060862846616301B0BDE8F040FFF7FE
:100EC000C1BB000080B50120FFF748FFFFF758FFC6
:100ED000012813D102200621FFF70AFF0120FFF7A6
:100EE00001FF0020FFF726FF0120FFF71DFF4FF451
:100EF0008070BDE88040FFF727BF00BFFEE700001D
:100F0000B0B51020C0F2040001210125FFF770FFE9
:100F10004FF000700121FFF76BFF48F20004C4F2AC
:100F20000C042046FFF74CFE41F61C31C2F20001D2
:100F300000208870887220460D80FFF74BFEFFF777
:100F400021FC0020FFF7FEFB0120FFF7EFFB002054
:100F5000FFF70EFC0120BDE8B040FFF7FDBB00002D
:100F60002DE9F04F81B040F22010C0F210000121B5
:100F7000FFF73EFF4EF20011CEF200014FF0FF30BE
:100F8000C1F88001C1F880002420C4F204004FF0B1
:100F9000000AC0F800A02420C4F20A00C0F800A093
:100FA000FFF79EFC40F2BC44C2F200042046FFF76B
:100FB000FFFD48F218014FF40006C4F20801204674
:100FC0002664264640F8201F41F61C2246F8441F9E
:100FD00041F2C401C2F20002C2F200016262802248
:100FE0004FF4802704F1340CA16404F1580140F25D
:100FF00003134FF0885B4FF420358CE8A4004FF4C6
:1010000080274FF4000C4FF0030981E8A410C4E9D5
:101010000006082021462385C4F82CB084F83090BF
:10102000A4F84C30C4F850B084F85490A4F80CA044
:1010300084F80EA0FFF7EEFC48F21C08C4F2020888
:101040004FF4807004F11005C8F80800C8F80000DB
:101050002846FFF7ADFD40F2345040F29C5C40F270
:10106000080EC2F20000C2F2000CC4F2090E4FF4E6
:10107000FA7340F201364FF480374FF480214FF479
:101080000002C0E900CE0681C0F80CB080F81090D4
:10109000C0E90537C1610262C0F824C0C0F828E089
:1010A0008685C0F830B0C0E90E37C0E9101280F86C
:1010B000349020610B202946A4F81CA084F81EA0BF
:1010C000FFF7A8FC4FF40060F0214EF20012C8F8C0
:1010D0000800C8F80000C8F80410C8F81010202153
:1010E000CEF2000211604EF20541CEF20001E02284
:1010F0000A70C8F80C0001B0BDE8F08FB0B54FF42D
:1011000000400121FFF774FE48F20004C4F2070416
:10111000204600F00DF92046012100F09DF840F234
:101120008455C2F20005284600F0F0F8002028811E
:101130003020E8604FF4202028600B2068602046B3
:10114000294600F0C7F820460221012200F0E6F807
:1011500020460121BDE8B04000F0B4B810B504202D
:1011600001210424FFF744FE40F22450C2F20000A3
:1011700040F20351018010222021C0E902120146F1
:1011800041F8042F00F0EEFA1F2001F061F800F0A2
:1011900031FB4EF20010CEF200000460BDE81040BA
:1011A00000F01ABA0C20C4F20200102101610021E3
:1011B000016040F8081C40F8041C41608160C16077
:1011C00041618161C161016201680268890742F27F
:1011D0000041C0F2F40103685CBF41F20021C0F29B
:1011E0007A0102F001025B0721FA02F105D550F8FD
:1011F000082CC2F30322013251430268C2F30122D8
:1012000082B1022A18D0012A1ED10068C0F303104F
:101210000130B1FBF0F040F25801C2F20001086069
:10122000704700BF41F20020C0F27A0040F258013E
:10123000C2F20001086070474FF4004040F25801CC
:10124000C2F200010860704749F6404040F2580180
:10125000C2F200010860704740F2240CC4F2020C94
:101260000022DCF80030C4F20802904212D048F2AA
:101270000002C4F20702904218D00022C4F2070212
:10128000904210D123F0FF00084440F08073CCF866
:10129000003070474FF6FF70CFF60030184040EA3C
:1012A000014000F18063CCF800307047FF20CFF69A
:1012B000FF50184040EA012000F10073CCF80030E4
:1012C00070470000C268002922F0010218BF0132F5
:1012D000C26070470A8802604A8842608A888260D9
:1012E000B1F806C00B894A89634403EB020C8B8971
:1012F000CA8963441A44C2600A8A4B8A03EB021209
:101300008B8AC98A1A4411440165704700214161E2
:101310000161C1608160416001607047D0F85CC0CC
:10132000002A4CEA010308BF2CEA0103C365704799
:101330000021C1600160416081600162416281629F
:10134000C162016341638163C16301664166816675
:10135000C166016141618161C16101674167816766
:10136000C167016441648164C1640165416581654F
:10137000C16570470021C4F202010A690378407810
:101380001A4342F482720A614A6842EA001040F04D
:101390000100486004E000BF0868C00718BF70473C
:1013A0000868C00706D10868C00704BF08685FEA7C
:1013B000C070F1D07047000080B540F2704CC2F2AE
:1013C000000C9CF80100831E202B4FF0010029D84F
:1013D000BCF80620DFE803F0122226262626262661
:1013E000262626262626262626262626262626269D
:1013F0002626262626262838560000BF022A3FD158
:1014000040F27C5141F2B943C2F20001C0F6000340
:1014100000200222BDE8804000F02CBE0220022AFB
:1014200008BF012080BD00BF072A29D140F27C51AE
:1014300041F2B943C2F20001C0F6000300200722C6
:10144000BDE8804000F016BE072A19D1BCF80400A0
:1014500040F27C51C2F2000100F068F8002818BF89
:1014600080BD40F27C5141F22573C2F20001C0F60A
:10147000000300200722BDE8804000F0DBBD00BF74
:10148000022080BD002A1CBF002080BD9CF9000006
:10149000B0F1FF3F08DD0020002100220023BDE85D
:1014A000804000F0C7BD00BF0020002100220023C3
:1014B000BDE8804000F0DEBD10B540F27042C2F2DF
:1014C00000025378022B11D0202B11D104469088B2
:1014D00000F0ACF8002818BF10BD20460021002203
:1014E0000023BDE8104000F0A5BD00BF012010BDE5
:1014F000022010BD010601D001207047000A40F211
:1015000000010128C2F2000104D00228F4D11231F6
:10151000432000E0122041F22573904238BF02467A
:10152000C0F60003002000F085BD000000281CBFAD
:101530000220704741F20000C2F2000005C8C1E974
:10154000000200207047000041F20803C2F20003CD
:10155000C3E9000100201881B2FA82F0400941027B
:10156000002059817047000080B50846114600F000
:1015700021F8002841F20800C2F200001CBF4FF41D
:1015800000714181418900291CBF002080BDD0E944
:10159000001241F26953C0F600030320BDE8804009
:1015A00000F068BD41F20801C2F2000100220020F3
:1015B0000A81704780B5014641F62830C2F200002A
:1015C0008022FEF765FE40F26041C2F20001012276
:1015D00000200A6080BD000010B500F017F9044635
:1015E000A8B9012005210022002400F075FA02208C
:1015F0000521002200F070FA03200121002200F0F2
:101600006BFA41F20800C2F20000418911B1204694
:1016100010BD00BFD0E9001241F26953C0F60003CB
:101620000320BDE8104000F025BD000000281CBFCD
:1016300002207047D1E9000141F20002C2F200022B
:10164000C2E9000100207047F0B581B002284FF0D8
:10165000010608BF002903D0304601B0F0BD00BF2D
:1016600041F21400D4B2C2F200002C2104FB0107A5
:1016700002257A7EC0F2080512B1012206E000BF01
:10168000BA7E002A0CBF4FF4002501226143425468
:1016900000261F207E7000F0E7FD204629463E769A
:1016A00000F0B0FD304601B0F0BD0000F0B581B0F3
:1016B0004EF20015CEF20005042040F26846C5F84F
:1016C0008000C2F20006706810B1002001B0F0BDC9
:1016D0000120706000F058FD0446400706D5032045
:1016E00030740020B061002000F07AFD0020214617
:1016F000002700F00DFA0120214600F009FA02202F
:10170000214600F005FA0320214600F001FA24F0FA
:10171000010000F0A9FD042077602860002001B0DE
:10172000F0BD000070B5044641F21400C2F20000A2
:101730002C2104FB010561430122002642521F2097
:101740002E62C5E90166C5E903666A7600F08CFD84
:101750000221C0F2080120462E7600F053FD002041
:1017600070BD000070B50C46FFF704FE00F014FDDC
:101770004FF4803000F028FD206800F025FDD4E90A
:101780000101084340F0010000F030FD41F2140572
:10179000C2F200050024002005212C80C5E9014487
:1017A000C5E903446C612C76C5E90744C5E90944E1
:1017B00000F028FD40F26846C2F2000606F108007B
:1017C000C5E9044041F66900C0F6000068620120E6
:1017D000A87628801F20C5E9024400F045FD0221BB
:1017E000C0F2080100202C7600F00CFD00203474BB
:1017F000B46170BD80B50C2000F0E6FC40F2684199
:10180000C2F20001022200200A7480BD40F2684149
:10181000C2F20001032200200A74704770B502284A
:101820004FF0010408BF002902D0204670BD00BF60
:10183000100617D041F21400C2F20000D5B22C21DC
:1018400005FB0106694340F2051242521F2000F0D9
:101850000BFD002428460A21347600F0D3FC2046F4
:1018600070BD00BF012070BD2DE9F04381B00D4671
:10187000097801F06002402A38D0202A3CD0002AA2
:101880002ED14BB2814603F01F00032828D86E7872
:101890000C2E25D86988AA88B5F806800127DFE8CC
:1018A00006F007311F411F515D26657781912600A3
:1018B000B3F1FF3F00F38D8040F26841C2F20001B6
:1018C0000B7C042B07D1012800F08380022802D171
:1018D000032A00F27E80022880F08E80002094E0AF
:1018E0000227384601B0BDE8F08300BF0127384623
:1018F00001B0BDE8F08300BF01B0BDE8F043FFF7E1
:101900005BBD00BF40F26843C2F200031B7C042BA6
:1019100005D101285DD0022801D1032A59D8FFF74B
:1019200093FE20E040F26843C2F200031B7C042BCC
:1019300005D101284DD0022801D1032A49D8FFF74B
:101940006DFF10E040F26840C2F20000816141F694
:10195000B520C0F60000002763E000BF084611462E
:101960004246FFF7C7FD07465AE000BF40F2684114
:10197000C2F20001087C41F22573043818BF01202F
:101980000870C0F600034846012200F053FB31E026
:10199000012929D0E9B940F26840C2F200000421CF
:1019A00027E000BF40F26841C2F20001087C042831
:1019B0000FD0002741F225730F70C0F60003484690
:1019C00001222BE040F26840C2F20000007C0428B3
:1019D00004D10127384601B0BDE8F08352EA01077F
:1019E00018BF01271CE000BF40F26840C2F20000AF
:1019F00005210174002713E008D141F21400C2F25E
:101A000000002C2302FB03004078087041F225738C
:101A10000027C0F60003484602224F7000F00AFB80
:101A2000002057EA08017FF462AF95F90010B1F188
:101A3000FF3F1FDD41F21404C2F200042C2109FB18
:101A4000014209FB01F5917E00274023D061002966
:101A50004FF002014846C2E90177C2E903734FF033
:101A6000020608BF012100F027FB6655384601B089
:101A7000BDE8F08341F21401C2F200012C2209FBFF
:101A8000021409FB02F220620120002760768852CE
:101A90001F20C4E90177C4E9037700F0E5FB0221C8
:101AA000C0F208014846277600F0ACFB384601B08A
:101AB000BDE8F08310B540F26844C2F20004A069AA
:101AC00000F08EFBA069042100284FF0000008BF41
:101AD0000321217410BD000010B541F2140CC2F2B4
:101AE000000C4FF02C0E00FB0EC300FB0EFE00247A
:101AF000C3E90144C3E903445C61C3E90744C3E9A2
:101B000009422CF80E401C7600F07CFB002010BD32
:101B10002DE9F04F8DB00D46814600F025FB079072
:101B2000484600F029FB00F003000B90484600F007
:101B300003FB41F21402C2F200022C2109FB012A2C
:101B4000E90706901CBF01208AF8180006980AF1E0
:101B5000180800F002040AF101000C900AF11900C3
:101B600004900AF11A00099007980AF1040B00F09A
:101B7000400100F00F0003910AF11C010A900AF1E4
:101B8000280000260025002702910590089413E004
:101B90001F2000F069FBDDF80480002688F8006053
:101BA0004846022100F02EFB089C00BF002F4FF09A
:101BB0000107284600F013829AF800000528F5D89E
:101BC000DFE810F00D02060020005A0070016400EA
:101BD000002CEBD198F800000028E7D00B980028E3
:101BE00000F0D680022840F09F80049800780028FA
:101BF00000F09A8003208AF80000049801270670FC
:101C0000D4E700BF002C5DD198F80000002859D01F
:101C10000B98012856D10398002853D0DBF80C10FC
:101C2000DBE9012008449042CBF8080080F088806E
:101C300048460121CDF8048000F002FB484600F040
:101C4000B9FADBF80C20DBE9011002448A4238BF04
:101C5000114688429CD24E42A0F10108DBF80000F8
:101C600040444178484600F0E3FA08F1010806EBE9
:101C700008000130F2D18BE7002C7FF497AF98F881
:101C8000000000283FF492AF52E100BF002C7FF427
:101C90008DAF0C980078012834D1B9F1000F3FF4D2
:101CA00085AF0C980121017005208AF800001F20E3
:101CB00000F0DAFA48460A2188F8006000F0A2FA3B
:101CC00074E700BF0A9800283FF470AF0598002120
:101CD00006688AF800102EB10B9ADDE906314846F5
:101CE000B0470546C5B109984446007800283FD062
:101CF0000C984FF0000880F8008005200A268AF82A
:101D0000000038E004980078002849D0022601201D
:101D1000C0F208064FE000BF9AF80000002865D026
:101D20000025002642E700BF09980078002851D01E
:101D30000C980A25067005208AF800004BE000BFC9
:101D400002988AF80060036823B1DBF80010484667
:101D500098470546002D71D009980078002873D067
:101D60000C98067005208AF8000000260A206DE015
:101D700000264FF000081F2000F076FA4846314652
:101D800084F80080A04600F03DFA00260CE700BF72
:101D900009980078F0B104208AF80000012705E7CF
:101DA000099802260078C0F20806002818BF012012
:101DB00008BF4FF400268AF800000C980024047035
:101DC0001F2000F051FA48463146002688F80040AE
:101DD000E8E600BF00251F2000F046FA48462946E5
:101DE00088F8006000F00EFA0125DFE602208AF88C
:101DF00000004846012100F023FADBF80C20DBE963
:101E0000011002448A4238BF114688420DD24D4229
:101E1000461E00BFDBF8000030444178484600F021
:101E200007FA0136A8190130F4D11F2000F01CFA7E
:101E3000002588F80050484602210FE09AF800007B
:101E400080B10025B2E600BF0026002001901F20CF
:101E500000F00AFA0199484688F8006000F0D2F9CB
:101E60000026A3E60498007820B102260120C0F2E3
:101E700008060AE0099802260078C0F20806002841
:101E800018BF012008BF4FF400268AF800000C9804
:101E9000002505701F2000F0E7F988F8005048463B
:101EA0003146DBE798F800000028284600F09780CC
:101EB000484600F051F908285ED141F214012C2067
:101EC000C2F2000109FB0015484600F03DF96969BE
:101ED0000870484600F038F969694870484600F0D3
:101EE00033F969698870484600F02EF96969C8704D
:101EF000484600F029F969690871484600F024F95C
:101F000069694871484600F01FF969698871484657
:101F100000F01AF96969C8714846012100F080F99A
:101F200069696A6A4846904700285DD0054641E0E5
:101F3000484600F011F9044680B167424FF0FF3681
:101F4000484600F001F9DBF80010DBF808201144E6
:101F500031440136BA1901324870F1D148460121A5
:101F600000F05EF9DBE9011002198A42CBF8082083
:101F70000ED2022628E000BF48460121012500F0CC
:101F80004FF9099800260078F0B10C98012516E069
:101F900041F214012C20C2F2000109FB0010036A77
:101FA00000208AF8000023B1DBF80010484698476B
:101FB00005462DB309980026007828B10C980670C4
:101FC00005208AF800000A261F2000F04DF90020A5
:101FD00088F800004846314600F014F9284680B2DF
:101FE0000DB0BDE8F08F00BF9AF8000004280BD1B7
:101FF0000498007870B102260120C0F2080613E0B0
:102000009AF800000028F3D0002080B20DB0BDE89F
:10201000F08F00BF099802260078C0F20806002859
:102020000CBF4FF4002601208AF800000C98002510
:102030000570C9E72DE9F04141F21408C2F2000829
:102040002C2400FB04854FF0400CAE7E05F1040EFD
:1020500000278EE8861002214443EB610225002E02
:1020600008BF012100F028F8002008F80450BDE85E
:10207000F081000070B541F2140C0446C2F2000C6D
:102080002C2004FB00C5604305F1040E00268EE8F9
:10209000460001212CF800101F202E612B6269766A
:1020A00000F0E2F80221C0F2080120462E7600F08E
:1020B000A9F8002070BD00002DE9F0410D46012176
:1020C000044600F0BDF8022D06D0012D08D12046AF
:1020D00000F070F804E000BF2046042100F092F800
:1020E00041F21400C2F200002C2104FB0108D8F8D0
:1020F0001020D8E9021002448A4238BF11468842B3
:102100000ED208F104064F42451E00BF3068284435
:102110004178204600F08CF8013578190130F5D16E
:102120001F2000F0A1F800222046022188F8182084
:10213000BDE8F04100F066B840F200110001C4F2C1
:10214000010108587047000040F28011C001C4F23C
:10215000010108587047000040F28C11C001C4F220
:10216000010108587047000040F204110001C4F258
:10217000010108587047000040F208110001C4F244
:10218000010108587047000040F24810C4F20100F5
:1021900000687047FFF78ABA40F28030C4F201004D
:1021A000016841F002010160016821F00201016053
:1021B0007047000040F200110001C4F201010A580A
:1021C00082F004020A50704740F28031C4F20101EB
:1021D0000A6883B21A4322EA104008607047000080
:1021E00040F25011C4F201010860704740F2401102
:1021F000C4F201010A6883B21A4322EA104008605F
:102200007047000040F2001C0001C4F2010C5CF8B1
:1022100000308AB21A4322EA11414CF8001070478C
:1022200040F29012C001C4F2010211507047000048
:1022300040F2C012C001C4F2010211507047000008
:1022400040F2D012C001C4F20102115070470000E8
:1022500040F24C11C4F201010A6883B21A4322EA27
:10226000104008607047000040F24811C4F20101BC
:102270000860704741F2000042F20041C2F20000E3
:10228000C0F2F40101600021818008218171704752
:102290002DE9F04F89B00FF2643109220446FDF7B1
:1022A000ACFF58B10FF26031204604220425FDF73F
:1022B000A4FF68B109B0BDE8F08F00BF04F10900C8
:1022C000FDF78EFF09B0BDE8F04F00F011BB00BF75
:1022D00041F6182AC2F2000ADAF800006FF0010194
:1022E00000274FF20008461C4FEA800C01EB400B20
:1022F000CBF68077C4F27F580895605D212813D80B
:10230000DFE800F0481212121212121212124812D2
:102310001248121212121212121212121212121267
:1023200012121212124800BF204608A9E14600F01E
:102330006FF93946054601F0B7FD00285ED1284601
:1023400001F0FAFC46F266634FF06632C4F20A030B
:1023500001F092F800F0A2FF414601F06DFF01F09C
:10236000CFFE41F24821C2F20001089D41F8090068
:10237000CAF80060605DCC46202804BF013508958E
:1023800001360CF1040C0BF1020B605D21287FF685
:10239000B7AFC9E741F24827C2F2000721287FF40E
:1023A00089AFA6F101094FF4FA7090FBF9F5012D00
:1023B000C0F21181B9F1000F00F10D8140F29C5E75
:1023C000C2F2000E012D05F00100CDE9000BCDE9B0
:1023D00002651FD10024009801AD002841F6182A9B
:1023E00023CDC2F2000A00F0F680B9F1030F01F02C
:1023F000030C80F0AD80A3460022C7E0089841F2AC
:102400004827205CC2F20007CC4621287FF452AF57
:10241000C7E700BF26F00308F34425F0010006F0EB
:102420000305C8F1000A002472460490CDE905C5F1
:1024300006E000BF0498023462448442E344CAD0F8
:102440004E46B9F1030F079402D24FF0000C18E08A
:10245000A7F1100E4FF0000C6FF001095EF8100F9D
:1024600002EB09010EF10405488002EB4C0038CD67
:102470000CF1040CE04509F10809438084800D81CA
:10248000ECD1069D40F29C5E079CB146C2F2000E64
:10249000D5B104FB09F057F82C300CEB0006012DE8
:1024A0002EF8163010D00CF1010357F823600344C6
:1024B000022D2EF8136007D00CF1020357F82360A9
:1024C00018442EF8106000BFB9F1030F04D2DDF8F4
:1024D00014C0002005BBADE7DDF814C0A7F1100063
:1024E00000255E4650F8103F043DC768D0E9014121
:1024F00026F8087FAA4526F8063C26F8044C26F85C
:10250000021CEFD1684241F24827DDE90654C2F2CD
:102510000007002D3FF48EAF44F0010101FB09F6E6
:1025200057F820108319012D2EF813103FF482AFB5
:10253000411C57F821303144022D2EF811303FF460
:1025400079AF023057F8201030442EF8101071E7A0
:10255000023004FB00E8A346A7F1100621F0030EA9
:1025600000226FF0010400BF56F8100F08EB0401C1
:10257000488008EB4200D6E90157F36804329645DB
:1025800004F10804458087800B81EDD141F2482792
:10259000039D40F29C56BCF1000FC2F20007C2F24C
:1025A000000618D00BFB09F057F822101318BCF1E5
:1025B000010F26F813100ED0511C57F8213001449A
:1025C000BCF1020F26F8113005D0911C57F82120DC
:1025D000084426F8102040F2345105FB09F0C2F2FD
:1025E0000001486140F25851C2F2000148610020E8
:1025F000CAF8000009B0BDE8F08F00BF7365742011
:102600006672657120000000736574200000000090
:102610002DE9F04381B00D680646405D3038092849
:1026200046D88946691CC9F80010715C2E293FD133
:1026300001F082FDA91CC9F80010715C0446A1F1EB
:102640003002092A20D840F20008C4F220180335CD
:10265000474600BFA1F1300001F06EFD394601F0A0
:1026600059FC0146204601F093FB0446384641469A
:1026700001F0E2FDC9F80050715D0746A1F130009C
:102680000A2805F10105E5D3204601F055FB46F285
:102690006663C4F20A034FF0663201F0E9FB0028DA
:1026A0001CBF0024CBF68074204601B0BDE8F08347
:1026B0000024CBF68074204601B0BDE8F083000012
:1026C000FEF700FCFFF7D6FDFEF79EFBFEF748FC89
:1026D00041F2C410C2F2000001210122FEF734FFD2
:1026E000FEF73CFD4FF47A7000F002F9FEF708FCAB
:1026F000FEF704FD0120FDF799FF0B200121FEF7F5
:1027000049F840F2604B41F61C2A41F2C408C2F27B
:10271000000BC2F2000AC2F20008DBF80000012838
:1027200016D100BF0020FDF781FF0020CBF800008C
:1027300041F62830C2F20000FFF7AAFD41F2C410B2
:10274000C2F200008021FDF7E8FD0120FDF76EFFD9
:1027500048F21C00C4F20800006840F25C0120F05E
:10276000FF00C2F20001088008200721FEF7D4F81C
:102770000028F9D040F2DC4208200021C2F2000219
:102780004FF00009FEF712F86FF00F000AEB00019E
:102790000AEB49020B7C96785478D778C3F303137D
:1027A000C6F30316157943EA04140AEB090346EA53
:1027B00007175F705779C5F3031646EA07170AF83B
:1027C00009409F709779CE7DC7F3031747EA061734
:1027D000DF700F7E4E7EC7F3031747EA06171F719F
:1027E000977AD67AC7F3031747EA06175F71177B04
:1027F000567BC7F3031747EA06179F71927BC97F81
:10280000C2F3031209F1080942EA0111B9F5807F08
:1028100000F11000D971B9D150468021FDF7A6FC16
:1028200008200721FEF778F80028F9D140F200527D
:1028300008200121C2F20002FDF7B8FF00206FF06E
:102840000F0100BF08EB010208EB4003177C9D78E5
:102850005E7893F803C0C7F30317C5F3031593F825
:1028600004E047EA061608EB000445EA0C17677017
:102870005F7908F80060CEF3031646EA0717A770E1
:102880009F79D67DC7F3031747EA0617E770177ECF
:10289000567EC7F3031747EA061727719F7ADE7A39
:1028A000C7F3031747EA061767711F7B5E7BC7F301
:1028B000031747EA0617A7719B7BD27FC3F3031365
:1028C000083043EA0212B0F5807F01F11001E27195
:1028D000B8D140468021FDF749FCDBF80400013007
:1028E000CBF80400DBF8000001283FF41BAF2FE712
:1028F0002DE9F04F81B001F01FFC01F01DFA49F6FF
:102900009A1249F69913C9F69912C3F6F17301F0B8
:102910001BF800F047FF41F6EA61C0F2070191FBA6
:10292000F0F8B8F5FA7F19DD012040F2EA3240F202
:10293000D47340F6A87741F64F7600BF9045054620
:102940000ED3984510D3B84512D34FEA1811280179
:10295000B0458846F2D8ED000DE000BF0B2011E035
:102960004FEA580107E000BF6D004FEA980102E00E
:10297000AD004FEAD80105EB45004FF0FF3202EB06
:10298000C000884648F20801C4F2070108604046CA
:1029900000F037FF02460B4648F26E6042F2F91132
:1029A000CFF21B00C4F2190100F066FD40F29C5901
:1029B000B8F1010FC2F20009C0F2BF800546A8F1CC
:1029C00001000E46032808F0030403D20027002C60
:1029D00064D1B2E0009444F2000428F0030B002715
:1029E000C4F29F04384600F00CFF02460B4628460E
:1029F000314600F0A9FF00F0EBFB0022234600F077
:102A0000A3FF00F0CFFE00F5FA6029F81700781C4C
:102A100009EB470A00F0F5FE02460B462846314610
:102A200000F092FF00F0D4FB0022234600F08CFF60
:102A300000F0B8FE00F5FA60AAF80200B81C00F039
:102A4000E0FE02460B462846314600F07DFF00F0CE
:102A5000BFFB0022234600F077FF00F0A3FE00F545
:102A6000FA60AAF80400F81C00F0CBFE02460B4600
:102A70002846314600F068FF00F0AAFB00222346FA
:102A800000F062FF00F08EFE043700F5FA605F454B
:102A9000AAF80600A6D1009C002C4ED0384600F0C3
:102AA000B0FE02460B462846314600F04DFF00F0CE
:102AB0008FFB44F20003C4F29F03002200F044FFA6
:102AC00000F070FE00F5FA60012C29F8170034D0F0
:102AD00007F1010A504600F094FE02460B462846D4
:102AE000314600F031FF00F073FB44F20003C4F202
:102AF0009F03002200F028FF00F054FE00F5FA606A
:102B0000022C29F81A0018D0BC1C204600F079FECF
:102B100002460B462846314600F016FF00F058FBEF
:102B200044F20003C4F29F03002200F00DFF00F006
:102B300039FE00F5FA6029F814004FF4FA6009EB49
:102B40004801A9F8000021F8020C40F23450C2F20A
:102B50000000C0F8148040F25850C2F20000C0F8E3
:102B6000148001B0BDE8F08F490050EAC12018BFC1
:102B700004204A0D18BF40F0010040F2FF72B2EB92
:102B8000515F08BF40F00200012808BF05207047D0
:102B90002DE9F74F144694B00021C4E902111599AC
:102BA000079121F00045C9498D4206DC1599C4E919
:102BB000000117B00020BDE8F08FC549DFF814A36D
:102BC000A9423CDD0799C44E0029C44FC44A159957
:102BD000534619DD00F0C2FF554506D0C14AC24B2D
:102BE00000F0BCFFC4E900010AE04FF0D352BE4B35
:102BF00000F0B4FF32463B4600F0B0FFC4E90001EC
:102C000017B00120BDE8F08F00F07AFB554506D0E3
:102C1000B44AB54B00F074FBC4E900010AE04FF080
:102C2000D352B14B00F06CFB32463B4600F068FBE0
:102C3000C4E9000117B04FF0FF30BDE8F08FAB4999
:102C4000A942159978DB21F0004183468846A84ABD
:102C5000A84B00F079FE0022A74B00F051FB00F0DA
:102C6000A1FD099000F0CDFD06460F469C4A534653
:102C700000F06AFE43465A4600F064FF80468A46EA
:102C8000984A994B3046394600F05EFE2A0D0125E0
:102C90000B924246534600F055FF032DC4E9000154
:102CA00039D00B98C1F30A51401A05EB451111397F
:102CB000814230DA9148C346784400EB0510CDF8E4
:102CC0000CA00C90D0E900233046394600F03CFEC1
:102CD00002460B46049106905846039900F03EFFC9
:102CE00080468A4602460B465846039900F036FF56
:102CF000049B069A00F032FF83460C9803913946F4
:102D0000D0E90223304600F01FFE5A46039B00F034
:102D100025FF6D1CBDE707980028A2BF099817B0D2
:102D2000BDE8F08F616881F000416160099817B0DB
:102D30004042BDE8F08FFFE784461598C1F31301C8
:102D4000C0F30A50A0F2F5304FEA601800F01F06F9
:102D5000C6F12000139000200690079041F4801ED9
:102D600005206D4676B1664A08EB00017A4452F8B8
:102D7000213002EB8101B3404A68139922FA01F134
:102D8000194305E05F4908EB0002794451F822102D
:102D9000A1FB0E27A1FB0C131A449A4234BF012356
:102DA000002303EB070A05EB8003D3E901B70F44C7
:102DB0008F4234BF0121002193448B4411B19345CC
:102DC00002D903E0934501D2012100E00021C3E9CB
:102DD00001B7514445F82010011EA0F10100C1DCEB
:102DE0000298059F00F10050800F12900298DDE9D3
:102DF0000356800000F005FD834628460D9100F043
:102E000017FD6FF01D0201F08AFBCDE90E0130467F
:102E100000F00EFD6FF03D0201F081FB80468A4616
:102E2000384600F005FD6FF05D0201F078FB0746C3
:102E300042465346119100F063FADDE90E2300F09B
:102E40005FFA5A460D9B00F05BFA00250E465A4683
:102E500028460D9B00F082FEDDE90E2300F07EFE89
:102E60004246534600F07AFE3A46119B00F06AFE55
:102E7000DFF898A0244A534600F066FD07468846CE
:102E8000234A244B3146284600F05EFD3A4643462D
:102E900000F036FA074688464FF0A84253463146BE
:102EA000284600F051FD3A46434600F029FA159AAB
:102EB00012F0004F04D0129A81F000415242129257
:102EC000C4E90001129817B0BDE8F08FFB21E93F7B
:102ED0007CD90240FB21F93F7370032E8A19A33B72
:102EE000000040543163621A61B4D03DFB21394186
:102EF00083C8C96D305FE43F0000E03F2419000043
:102F0000A018000082180000182D4454FB21F93D40
:102F10003326A611460B113C2DE9FF4D21F0004848
:102F200007460C46B8F1795F08DA00F03BFC002850
:102F300001BF0020324904B0BDE8F08D3A46234677
:102F40001046194600F000FD054602462D480E4683
:102F50000B460621784400F05DF82A46334600F01F
:102F6000F3FCDDE9022382468B463846214600F019
:102F7000EBFC04460F4652465B462846314600F0BD
:102F8000E3FC22463B4600F0E9FD07468A464FF047
:102F9000FF322846314601F0C2FA1B4A90450ADA50
:102FA0003A46534600F0DAFD04B00022BDE8F04D89
:102FB000134B00F0C7BD154A4245A8BFA8F5001540
:102FC0004FF00004B8BF124D22462B4600F0C6FD5C
:102FD0000646884622462B460020094900F0BEFDE1
:102FE00004460D463A4653463046414600F0B6FD8B
:102FF00004B022462B46BDE8F04D00F0A3BD000012
:103000000000F03F581600003333D33F0000E93F83
:103010000000D23F2DE9F0414F1E00EBC7010446EE
:10302000D1E9000115461E4637F006020DD02A46AA
:10303000334600F089FC7F1E04EBC703D3E900236D
:1030400000F05EF937F00602F1D1022F25D0042FEF
:1030500013D0062F18BFBDE8F0812A46334600F092
:1030600073FCD4E90A2300F04BF92A46334600F0FA
:103070006BFCD4E9082300F043F92A46334600F0FC
:1030800063FCD4E9062300F03BF92A46334600F0FE
:103090005BFCD4E9042300F033F92A46334600F000
:1030A00053FCD4E9022300F02BF92A46334600F002
:1030B0004BFCD4E90023BDE8F04100F021B9000049
:1030C0002DE9FF4D054621F0004084B00C46B0F1DB
:1030D000795F0BDA2846FFF747FD042808BF00F0A8
:1030E0006FF8284608B02146BDE8F08D2A460B4609
:1030F000104600F029FC06460F462A46234600F0FB
:1031000023FC804626488A4632463B4605217844C1
:10311000FFF780FF83461098029160B3214A224B4B
:103120004046514600F010FCCDE900015A464046A9
:103130005146029B00F008FC82468846DDE9060104
:103140004FF0FF3201F0EBF95246434600F006FD26
:1031500032463B4600F0F8FBDDE9062300F0FEFCBA
:10316000DDE9002300F0FAFC08B02A462346BDE85A
:10317000F04D00F0E7BC0B465A463046394600F0A9
:10318000E3FB084A084B00F0BBF84246534600F008
:10319000DBFB08B02A462346BDE8F04D00F0B0B88E
:1031A0009E150000495555555555C5BF012201F0E2
:1031B000B6B9002213461046114600F05DB9000072
:1031C000024A0020110701F0AAB9000001FDFFFF2B
:1031D00000B5254B21F0004287B09A4203DC002263
:1031E000134600922BE0214B9A4208D140B94FF090
:1031F0000100FDF706F9FFF7DCFF07B000BD03DBB8
:10320000FFF7D4FF07B000BD02AAFFF7C1FC10F022
:1032100003014FF001000DD0012914D002291AD06A
:103220000DF1080C9CE80F00FFF776FE07B081F067
:10323000004100BD0DF1080C00909CE80F00FFF765
:103240003FFF07B000BD0DF1080C9CE80F00FFF731
:1032500063FE07B000BD0DF1080C00909CE80F0064
:10326000FFF72EFFE2E70000FB21E93F0000F07FBF
:1032700010B500290AD00878002807D005487844FE
:10328000FDF772F8002801D0002010BD02487844F4
:1032900010BD00007A1400007214000021F00042FA
:1032A00001F00043A2F16052B2F5801F28BFD2F1B5
:1032B0007F6C0BD95FEA001C43EAC20242EB5070FC
:1032C00018BF704728BF20F001007047B2F5801F7B
:1032D000BCBF184670474FEA410C1CF5001F02D2D4
:1032E000084601F070B870B500F0D8FB0000008906
:1032F000FFF7F6BF4FF00040A0F5800070470000D8
:1033000010B591EA030F48BF83F0004300F12E840B
:10331000841A71EB030C05D2121943EB0C03001B4A
:1033200061EB0C014FEA1154A4EB135CDFF81CE1D4
:103330001EEA430F18BF9EEA445F00F0748021EA42
:10334000045123EA0E0343F48013DCF1200E32D340
:1033500022FA0CFE10EB0E0023FA0CFE41EB0E01DC
:10336000CCF1200E03FA0EFE10EB0E00CCF1200E75
:1033700051F10001B1F5801F32D201EB045112FA74
:103380000EF2BDE8104058BF7047401C38BF5FEADE
:10339000420218BF7047002814BF20F0010041F11D
:1033A00000014FEA410313F5001F38BF7047A1F138
:1033B000C04100F0C1BB012A43EB0302ACF1200C79
:1033C000DCF11F0E32BF4FF0000E23FA0CF310EBAE
:1033D000030041EB0451B4EB115FD0D0A1EB0451D9
:1033E00001F58011490801EB04515FEA30000ED36A
:1033F00050F1000038BF12FA0EFE08D1BDE81040AF
:10340000C9E7401C38BF5FEA4202CAD1C3E7BDE842
:1034100010404FEA410313F5001F38BF7047A1F178
:10342000C04100F089BB9EEA445F08D011EA5E0FFC
:10343000BDE8104004BF01F0004100207047BDE826
:10344000104070B500F02AFB64FBBE3E0000E0FFB8
:1034500002494FF0000001F030B800BF0000F87FD3
:10346000491058BFC1F140415B1058BFC3F1404300
:103470008B42EFF3008070472DE9C04130B4DFF894
:10348000A4C23CEA111418BF3CEA131400F0ED800A
:103490001CEA111481EA030544EAD57418BF1CEA3A
:1034A000131500F0C880A4EB050404F17F7404F543
:1034B00000344FF0004545EAC12145EAC32341EA03
:1034C000505143EA52534FEAC0204FEAC222994278
:1034D00008BF904200F09D804FEA13650FF244163A
:1034E000765D4FEA134506FB05F7C7F1807706FBCB
:1034F00007F74FEAD737A7FB03687642A7FB06CE4C
:10350000C8F5803838BFA8F1010807FB08E6A6FB1C
:10351000028C4FF0000EE6FB03CEDCF1000CCEF186
:10352000004E38BFAEF1010EA6FB0C584FF000075D
:10353000E6FB0E87A1FB08C6A0FB07CE16EB0E0626
:103540004FF0000545F10005E1FB076515F1E04E80
:103550007EBFA4F580345FEA46066D4116F1800710
:1035600045F100054FEA172747EA05674FEA152599
:103570004FEA0666A6F1DE46B6F1805F20D93846EE
:1035800005EBC47124F0010C01EB0C11BCF1FE6FD2
:1035900002D8F0BCBDE8008124425CBF01F5801E6A
:1035A0009EEAC47F02D4F0BCBDE80081244200F151
:1035B0003980A1F1C041F0BCBDE8004100F0BCBAC7
:1035C0004FEAD02040EA41504FEAD1214FEAD222BF
:1035D00042EA43524FEAD323A7FB028607FB036666
:1035E00005FB02661EEA0E0F58BFA6EB0056B6EBAF
:1035F00000564FEA520E4EEAC37E18EB0E0E56EB03
:10360000530EBCD518EB02085E417F1C55F1000536
:10361000B5E74FF480154FF000074FF000064FF06C
:103620000008ACE701F1C04101F000414FF000009B
:10363000F0BCBDE800810CEA131511EA0C1F00D0A4
:103640000CE013EA0C1F00F026804FF0000081EA26
:10365000030101F00041F0BCBDE80081F0BCBDE811
:10366000004181EA030100F067BAF0BCBDE8004107
:1036700070B500F013FA00BF097EFC3E00F007B8F9
:103680004FF0000081EA030101F00041704781EA38
:10369000030100F051BAF0BCBDE8004122494FF0EF
:1036A00000007047FFFDFBF9F7F5F4F2F0EEEDEBEB
:1036B000E9E8E6E4E3E1E0DEDDDBDAD8D7D5D4D330
:1036C000D1D0CFCDCCCBCAC8C7C6C5C4C2C1C0BF7C
:1036D000BEBDBCBBBAB9B8B7B6B5B4B3B2B1B0AF82
:1036E000AEADACABAAA9A8A8A7A6A5A4A3A3A2A166
:1036F000A09F9F9E9D9C9C9B9A9999989797969521
:1037000095949393929191908F8F8E8E8D8C8C8BBC
:103710008B8A898988888787868585848483838244
:10372000828181800000FF070000F87F51EA030CCE
:1037300017D41CF5801F58BFBCF5801F00F1068010
:10374000994218BF704708BF9042704707D711F5DC
:10375000801F58BF13F5801F19D4994270478942C2
:1037600070471CF5801F08D5BCF5801FF7D58B422C
:1037700018BF704708BF824270474FF4001C1CEB13
:10378000410F38BF1CEB430F01D28B42704770B51D
:1037900000F084F9922449004FF000514FF080531B
:1037A000FFF75EBE4FEA41034FEA5353A3F5806330
:1037B000D3F11E03C8BFD3F1210C0CDD4FF0004242
:1037C00042EAC12242EA505232FA03FC8CEAE17C1E
:1037D000ACEBE1707047102BC4BF0020704703F5BD
:1037E000787CBCF1FF3F04D06FF0004282EA2100F8
:1037F000704770B500F052F949922480002070475C
:10380000F2E710F0004248BF4042B0FA80F310FAED
:1038100003F10AD0C3F11D0303F5806302EB0352E9
:103820004FEA415002EBD12170474FF00000704742
:10383000B0FA80F310FA03F10AD0C3F11D0303F5C7
:1038400080634FEA03524FEA415002EBD1217047A7
:103850004FF000007047000051EA030C17D41CF52C
:10386000801F58BFBCF5801F00F10680994218BF29
:10387000704708BF9042704707D711F5801F58BFA7
:1038800013F5801F19D499427047894270471CF57F
:10389000801F08D5BCF5801FF7D58B4218BF704735
:1038A00008BF824270474FF4001C1CEB410F38BF29
:1038B0001CEB430F01D28B42704770B500F0EEF85D
:1038C000922449004FF080514FF00053FFF7C8BDDC
:1038D00051EA030C17D41CF5801F58BFBCF5801F9C
:1038E00000F10680994218BF704708BF90427047A8
:1038F00007D711F5801F58BF13F5801F19D49942BF
:103900007047894270471CF5801F08D5BCF5801FA1
:10391000F7D58B4218BF704708BF824270474FF4FB
:10392000001C1CEB410F38BF1CEB430F01D28B4234
:10393000704770B500F0B2F8922449004FF0005182
:103940004FF08053FFF78CBD70B5DFF848C11CEA1B
:10395000111E1EBF1CEA13159EEA0C0F95EA0C0FF0
:1039600000F06F8081EA03044EEAD47EAE4421EA7F
:103970004C1123EA4C1341F4801143F48013AEF14F
:103980007F7EA1FB024CA0FB0365361955EB0C05AD
:10399000A1FB034C4CF10003A0FB021C16EB0C0630
:1039A000654153F10003094218BF46F0010613F4C4
:1039B000007F0BD14FEA03314FEA053041EA155140
:1039C00040EA165034036FF003020AE04FEAC321C5
:1039D0004FEAC52041EA555140EA5650F4026FF0D3
:1039E000020202EB2E4201EB025585EACE710AD0AB
:1039F0005FEA440C18BF24F0004450F1000041F18C
:103A0000000120EAD47040F2FE7C624500D270BD15
:103A1000A84214BF4FF080444FF04044002E08BF2E
:103A20000024BEF1806FA8BFA1F1C041BDE8704085
:103A300080F2828001F1C04101F000414FF00000AE
:103A400070470CEA13159EEA0C0F18BF95EA0C0F8D
:103A500006D081EA030E4FF000000EF0004170BD69
:103A600000F01CF88900013E00F007B800F009B82A
:103A70004FEA430C5FEA5C5C08D081EA030100F086
:103A80005BB84FEA410C5FEA5C5CF6D102494FF04B
:103A9000000070470000FF070000F87F0EF1020EE3
:103AA0002EF0030E5EF8046B364205D4012A43EB78
:103AB000030515F5001F12D8012841EB010C1CF578
:103AC000001F0CD80ED14FEAD17C0CEB4C0C0CF142
:103AD000020C15F5001F08BF4CEBD37C04E04FF03F
:103AE000080C01E04FEAD37C0CEB4C0526FA05F6F6
:103AF00006F00706B6F1040C06D20EEB860CBDE804
:103B000070404CF0010C6047DFE80CF0090B02023A
:103B10004FF00041A1F500214FF0000070BD1946A3
:103B20001046012851EB010418BFD4F5001484BFDE
:103B3000002001F0004170BD0808A0F500114FEA17
:103B40003101704710B591EA030F81F000413FF554
:103B5000DFAB83F0004300F009B8000010B591EA34
:103B6000030F48BF83F000433FF5D2AB841A71EBDB
:103B7000030C07D28CF0004C121943EB0C03001B12
:103B800061EB0C014FEA1154A4EB135CDFF8A4E1E4
:103B90001EEA430F18BF9EEA445F00F0B48021EA9A
:103BA000045123EA6E035242C3EB6E0338BF5B1E1F
:103BB000DCF1200E25D322FA0CFE10EB0E0043FAA6
:103BC0000CFE41EB0E01CCF1200E03FA0EFE10EBC1
:103BD0000E00CCF1200E51F1000129D401EB04516B
:103BE00012FA0EF2BDE8104058BF7047401C1CBFCF
:103BF000B2F1004F704700280CBF491C20F00100B3
:103C0000704712EB020E43EB030218BF4FF0010E98
:103C10004EEA4202ACF1200CDCF11E0E56D943FAFA
:103C20000CFE10EB0E00CCF11E0E51F1FF31D5D57C
:103C30000EF1010E12FA0EFE404141EB010101EBC3
:103C4000445C5FEA5C5C10D901EB045110EBDE7060
:103C500038BFBEF1004FBDE8104018BF70470028C4
:103C60000CBF491C20F00100704734D24FEAD42C1D
:103C700024F4006411F500111BD0B1FA81F20B3A63
:103C8000A41AA41ED2F12003914030FA03F3194381
:103C9000904001EBCC7101EB0451002CBDE81040C9
:103CA000A8BF704701F1C04101F000414FF0000092
:103CB0007047B0FA80F310FA03F102D1BDE810406A
:103CC0007047E41A173C4805C90AE2E701EB0451C2
:103CD000BDE81040704749104FEA300001EB045135
:103CE000BDE8104002E04FF0000170474A0008BFF5
:103CF0000042F8D0B2F5001F28BF704701F0004124
:103D00004FF0000070479EEA445F07D011EA5E0F53
:103D1000BDE8104004BF002100207047BDE81040FE
:103D200070B5FFF7BBFE00BF40DFF63E104683F0E4
:103D3000004170470000E0FF43004FEAD30C4FEA18
:103D40003C0C43401FBF40070CF1605113F0FE4F85
:103D500070471CF0006F03D10CF000410020704749
:103D60000CF0004343EA507040EACC0010B500F07C
:103D7000E4FA00BF000000924FEA0001FFF7DCBE4A
:103D80004FF00041A1F500214FF000007047000006
:103D900090EA010F48BF81F0004100F12083421AF0
:103DA0003CBF801A89184FEAD052A2EBD1534FF092
:103DB0007F4C1CEA410F18BF9CEA026F00F03B8069
:103DC0004FF0004C4CEA00204CEA012121FA03FCA0
:103DD00010EB0C0C1ED202F1FF325FEA1C2040EB0C
:103DE000C25038BF70471CF07F0F4FEA400C18BF1D
:103DF000BCF17F4F38BF7047C3F12003994008BF23
:103E000020F00100BCF17F4F38BF7047A0F1C040E7
:103E100000F0D9BA4FEA3C00000A40EBC25028BF7C
:103E20001CF0FF0F4FEA400CE6D018BFBCF17F4FEB
:103E300038BF7047EAE79CEA026F05D010EA5C0FD2
:103E400008BF00F00040704710B500F076FA00BFE0
:103E500064FBBE3E10B5FFF769FC0CBF01200020DB
:103E600010BD10B5FFF762FC14BF0120002010BD8B
:103E700010B5FFF7F1FC8CBF0120002010BD10B57C
:103E8000FFF7EAFC2CBF0120002010BD10B5FFF7A2
:103E90001FFD94BF0120002010BD10B5FFF718FDD5
:103EA00034BF0120002010BD10B500F0F5F80CBFA4
:103EB0000120002010BD10B500F0EEF814BF012065
:103EC000002010BD10B500F04FF98CBF012000207C
:103ED00010BD10B500F048F92CBF0120002010BD26
:103EE00010B500F075F994BF0120002010BD10B589
:103EF00000F06EF934BF0120002010BD401058BF03
:103F0000C0F14040491058BFC1F140418142EFF338
:103F1000008070474FF47F0C1CEAD0121EBF1CEAD1
:103F2000D11392EA0C0F93EA0C0F00F0858090EA0F
:103F3000010F48BF42F4807240F4000C41F40000CD
:103F40002CF07F4120F07F4000B5A2EB03028142BC
:103F50000FF2081CACEB504E9EF800E0C0F10000E0
:103F60004FEA4E0E00FB0EFC38BF49004FEA2C1CF6
:103F70000CFB0EF34FEACE1E0EEB635E4FEA112CE4
:103F80000EFB0CFC4FEAC1214FEA1C5300FB03114E
:103F900002F5FA024FEA112C0EFB0CFC4FEA01313C
:103FA0004FEADC4C00FB0C1142EB2242C14228BF1D
:103FB00009184CEB03335DF804EB10EB410143EBC4
:103FC000C250B2F57C0F38BF704729D512F0F00F00
:103FD0001CBF00F1C04000F00040704700818283A8
:103FE0008485868788898B8C8D8E8F919293959608
:103FF00097999A9C9D9FA0A2A3A5A7A8AAACAEB092
:10400000B2B3B5B7B9BCBEC0C2C5C7C9CCCED1D496
:10401000D7D9DCDFE2E6E9ECF0F3F7FAFE000000C6
:104020004FEA400C0CF1807CBCF17E4F28BF7047FA
:10403000B0F1C04000F0C7B90CEAD11390EA010F0B
:1040400048BF42F48072624538BF634507D213F41B
:104050007F0F16D080EA010000F00040704710B5D5
:1040600000F06BF9097EFC3E00F005B880EA010023
:1040700000F00040704780EA010000F0004000F0CE
:10408000A2B912F47F0F04BF0248704780EA010012
:1040900000F099B90000C07F50EA010C00F11380D4
:1040A0001CF5000F58BFBCF5000F01D488427047C3
:1040B00007D710F5000F58BF11F5000F15D488422F
:1040C0007047894270471CF5000F04D5BCF5000FFE
:1040D000F7D5814270474FF0807C1CEB400F38BF12
:1040E0001CEB410F01D28142704710B500F025F959
:1040F000922449004FF000504FF08051FFF7FEBE70
:1041000041000B0ED3F19E0208D950F400034FEA90
:10411000032323FA02F048BF4042704710B500F075
:104120000CF900BF49922480002070476FF00042D4
:1041300082EA20007047000010F0004148BF404272
:10414000B0FA80F310FA03F2C3F19D030BD051EAE9
:10415000C35101EB1220530638BF704700F1010034
:1041600008BF20F00100704750EA010C00F11380F5
:104170001CF5000F58BFBCF5000F01D488427047F2
:1041800007D710F5000F58BF11F5000F15D488425E
:104190007047894270471CF5000F04D5BCF5000F2D
:1041A000F7D5814270474FF0807C1CEB400F38BF41
:1041B0001CEB410F01D28142704710B500F0BDF8F1
:1041C000922449004FF080504FF00051FFF796BE07
:1041D00050EA010C00F113801CF5000F58BFBCF52C
:1041E000000F01D48842704707D710F5000F58BF61
:1041F00011F5000F15D488427047894270471CF5AD
:10420000000F04D5BCF5000FF7D5814270474FF081
:10421000807C1CEB400F38BF1CEB410F01D2814268
:10422000704710B500F089F8922449004FF0005013
:104230004FF08051FFF762BE4FF47F0C1CEAD012A2
:104240001EBF1CEAD11392EA0C0F93EA0C0F00F088
:10425000478090EA010F48BF42F480724FF0004C53
:104260004CEA00204CEA012102EB0302A0FB0113FF
:10427000A2F50002002918BF43F001035B0028BF2C
:104280004FEA330342EB22425FEA132C4CEBC2505D
:104290002EBFBCEB436FB2F57C0F70474FEA036C47
:1042A000BCF1004F08BF20F00100B2F57C0F38BF11
:1042B00070470BD582F0FF0212F5803FC8BF7047F0
:1042C00000F1C040D8BF00F00040704700F5000C7E
:1042D0005FEA4C0C48BF7047B0F1C04000F073B8C3
:1042E0000CEAD11390EA010F48BF42F48072624594
:1042F00038BF634504D280EA010000F000407047F7
:1043000010B500F01AF800BF8900013E00F007B8B0
:1043100000F009B85FEA410C5FEA1C6C08D080EA43
:10432000010000F050B85FEA400C5FEA1C6CF6D167
:104330004FF00040A0F5800070470EF1020E2EF005
:10434000030E5EF8044B244204D44FEA4102B2F15A
:104350007F4F11D84FEA4003B3F17F4F0CD80ED1F5
:104360004FEAD07C0CEB4C0C0CF1020CB2F17F4FFD
:1043700008BF4CEBD17C04E04FF0080C01E04FEAA1
:10438000D17C0CEB4C0324FA03F404F00704B4F1E1
:10439000040C06D20EEB840CBDE810404CF0010C6E
:1043A0006047DFE80CF0070802024FF00040A0F57C
:1043B000800010BD0846420018BFD2F1807288BF4D
:1043C00000F0004010BDFF2141EAD050C005704709
:1043D00090EA010F48BF81F000413FF5E0AC421A7E
:1043E00004D882F00042A0EB020011444FEAD05200
:1043F000A2EBD1534FF07F4C1CEA410F18BF9CEA4F
:10440000026F4AD04FF0004C4CEA00204CEA0121E8
:1044100021FA03FCB0EB0C0C0FD412F0FE0F36D0D7
:104420005FEA4C001DD5001240EBC25038BF704708
:104430001CF03F0F18BF70470BE05FEA1C20A2F191
:10444000010240EBC25038BF70471CF07F0F18BF0D
:104450007047C3F12003994014BF401E20F00100B3
:1044600070474FEA1223800808BF7047B0FA80FCFB
:10447000A2EB0C02CCF1280C60FA0CF093EA122F9C
:1044800004BF00EBC25070474FEAC3707047130A75
:104490005FEADC1008BF7047F6E79CEA026F04D0C1
:1044A00010EA5C0F08BF0020704710B5FFF745FF0A
:1044B00040DFF63E81F0004070470CF00F03092BFF
:1044C00008BF082000F059800A2B0BD0082B18BF1A
:1044D000704708BF1CF0400F0AD04FF000004FF0AB
:1044E000000170471CF0400F18BF4FF000407047AC
:1044F0001CF0100F08D000F07F4220F0704342EA19
:10450000D3014FEA4370704700F0604021F07F42D2
:1045100042EA000201F07F4040EA727070474FF0BB
:10452000FF0C4CF4E06C1CEA11531CBF9CEA030C1A
:104530009445C2BFDA4201EB02517047002B0DD007
:10454000BCF1000F0FD001F00041002AA4BF41F0E0
:10455000E04141F07F614FF00000704701F0004101
:104560004FF00000704750EA01334FF09B0C18BF2A
:104570004CF0806C7EF46CAF70471CF4801F11D03F
:104580001CF4E02F03D06FEACC31490070474FF0A4
:104590004050EFF3008222F0704242EA000282F3C0
:1045A000008870474FF000007047000000000000D6
:1045B0004C5555555555A53F7751C1166CC156BF41
:1045C0009015CB19A001FA3EAD529C804F7E92BE51
:1045D000C4B1B4BD9EEE213ED43888BEE9FAA8BD70
:1045E00000004054FB21F93F3163621A61B4D03DB1
:1045F0000000601A61B4D03D7370032E8A19A33B8A
:104600000000002E8A19A33BC14920259A837B39DB
:1046100000000000000000006E83F9A22915444E3E
:10462000D15727FCC0DD34F5999562DB4190433CBE
:10463000AB6351FE61C5BBDE3A6E24B7E0D24D429A
:10464000EA2E49061C92D1091CEB1DFE3EA729B19A
:10465000F53582E88444BB2E26709CE9417E5FB428
:1046600039D69139F43953838B5F849C3B28F9BD4B
:10467000FF97F81F0F9805DE8B112FEF1F6D0A5A59
:10468000CF7E366DB709CB27663F464F2DEA5F9E3A
:10469000C7BA27757BF1E5EBF739073DEA92528AF5
:1046A000B15FFB6B085D8D1F4630035600000000B4
:1046B000A6F810111111813FD561C119A0012ABFBF
:1046C0007DFEB157E31DC73EEB9C2B8AE6E55ABE43
:1046D0007CD5CF5A3AD9E53D0848000800000020B3
:1046E00060000000FC00000868480008000400208A
:1046F000A877000018010008100100004300000026
:10470000F8FFFFFF004040404040404040404141F2
:104710004141414040404040404040404040404096
:104720004040404040050202020202020202020230
:10473000020202020220202020202020202020022D
:1047400002020202020290909090909010101010BD
:104750001010101010101010101010101010101059
:1047600002020202020288888888888808080808ED
:1047700008080808080808080808080808080808B9
:1047800002020202400000000000000000000000E1
:104790000000000000000000000000000000000019
:1047A0000000000000000000000000000000000009
:1047B00000000000000000000000000000000000F9
:1047C00000000000000000000000000000000000E9
:1047D00000000000000000000000000000000000D9
:1047E00000000000000000000000000000000000C9
:1047F00000000000000000000000000000000000B9
:104800000000000000000000120110010200004042
:10481000830425F1000000000001090243000201A9
:10482000008032090400000102020100052400108A
:1048300001052401000104240206052406000107E5
:1048400005820340000209040100020A000000077B
:10485000058102400000070503024000000000003F
:0848600000127A008000000044
:04000005080001A14D
:00000001FF
