:020000040800F2
:10000000586F00205D0100086501000867010008C5
:10001000690100086B0100086D0100080000000084
:100020000000000000000000000000006F01000858
:10003000710100080000000073010008750100084C
:100040007701000877010008AD26000800000000D5
:10005000000000000D080008770100087701000883
:100060007701000800000000770100087701000810
:100070007701000800000000770100087701000800
:1000800077010008770100080000000077010008F0
:1000900077010008000000000000000000000000E0
:1000A00000000000000000000000000077010008D0
:1000B0007701000877010008770100087701000840
:1000C00000F002F800F03AF80AA090E8000C824430
:1000D0008344AAF10107DA4501D100F02FF8AFF20D
:1000E000090EBAE80F0013F0010F18BFFB1A43F016
:1000F00001031847FC2700001C280000103A24BF09
:1001000078C878C1FAD8520724BF30C830C144BF7C
:1001100004680C60704700000023002400250026BE
:10012000103A28BF78C1FBD8520728BF30C148BF5A
:100130000B6070471FB51FBD10B510BD00F0ACF8C7
:100140001146FFF7F7FF02F0ADFB00F0CAF803B469
:10015000FFF7F2FF03BC00F0CDF80000094880472C
:1001600009480047FEE7FEE7FEE7FEE7FEE7FEE799
:10017000FEE7FEE7FEE7FEE704480549054A064BB1
:1001800070470000C9120008C1000008580F002085
:10019000586F0020582F0020582F0020032A40F2CB
:1001A000308010F0030C00F0158011F8013BBCF119
:1001B000020F624498BF11F801CB00F8013B38BF31
:1001C00011F8013BA2F1040298BF00F801CB38BF3F
:1001D00000F8013B11F0030300F02880083AC0F05A
:1001E000088051F8043B083A51F804CBA0E8081005
:1001F000F5E7121D5CBF51F8043B40F8043BAFF338
:100200000080D20724BF11F8013B11F801CB48BF91
:1002100011F8012B24BF00F8013B00F801CB48BFC7
:1002200000F8012B704770477047704710B5203AAF
:10023000C0F00B80B1E81850A0E81850B1E8185091
:10024000A0E81850203ABFF4F5AF5FEA027C24BF63
:10025000B1E81850A0E8185044BF18C918C0BDE84C
:1002600010405FEA827C24BF51F8043B40F8043B15
:1002700008BF7047D20728BF31F8023B48BF11F8CA
:10028000012B28BF20F8023B48BF00F8012B704724
:1002900000487047000400207546FFF7F9FFAE469E
:1002A00005006946534620F00700854618B020B582
:1002B000FFF762FFBDE820404FF000064FF0000757
:1002C0004FF000084FF0000BAC46ACE8C009ACE8BA
:1002D000C009ACE8C009ACE8C00921F007018D46AF
:1002E000704710B50446AFF300802046BDE81040CB
:1002F000FFF72DBF01491820ABBEFEE72600020024
:100300007047000082B08DF8070048F20000C4F288
:100310000800006800909DF8070028B1FFE70098EA
:1003200040F00100009004E0009820F001000090EF
:10033000FFE7009848F20001C4F20801086002B02B
:100340007047000083B002908DF8071048F220003B
:10035000C4F20800006800909DF8070030B1FFE784
:100360000299009840EA8100009005E00299009807
:1003700020EA81000090FFE7009848F22001C4F2D3
:100380000801086003B0704783B0029048F2000291
:10039000C4F208021068019001980321CFF2FF1106
:1003A000084001900299087891F801C00B796044E7
:1003B000B1F802C0604400EB03108B8918444B8AEB
:1003C0001844CB8A1844896900EB416101980844BC
:1003D000019048F20401C4F20801086800900098F6
:1003E00020F4003000900298037D009800EB434019
:1003F00000900298C08948F21003C4F20803186004
:100400000298008A48F20803C4F2080318600298B0
:10041000806848F22803C4F208031860019810604D
:100420000098086003B0704748F20001C4F2080168
:100430000020086048F20401C4F20801086048F294
:100440000801C4F20801086048F21001C4F2080172
:10045000086048F21801C4F20801096848F2200156
:10046000C4F20801086048F22801C4F208010860DB
:1004700048F20C01C4F20801086048F21401C4F209
:100480000801086048F21C01C4F20801096848F23A
:100490002401C4F20801086048F22C01C4F20801EA
:1004A0000860704783B0029002998868CB680A6937
:1004B00049691844104408440190029908684A6840
:1004C000896900EB027000EB4151019808440190EA
:1004D0000020CFF21E00009000980021C0F2E11130
:1004E0000843009048F20001C4F208010868009A2D
:1004F0009043019A1044086003B0704781B00090A7
:10050000009900200860009948600099886000996F
:10051000C86000990861009948610099886101B03C
:100520007047000081B00090009900200870009989
:100530004870009948800099087100998860009976
:1005400088810099C88100990882009948820099A1
:1005500008750099C8820099886101B07047000051
:1005600081B08DF803008DF802109DF8020050B1A3
:10057000FFE79DF803100120884048F22801C4F2EB
:100580000201086009E09DF803100120884048F24C
:100590002C01C4F202010860FFE701B070470000BF
:1005A00082B0019000910198007A032805D1FFE7FD
:1005B000019800680099086009E0019A1068516983
:1005C0000139127A9140084400990860FFE70198C8
:1005D000007C042806D1FFE7019840680C300099A0
:1005E000486014E00198407A032805D1FFE701989C
:1005F00040680099486009E0019A506851690139E2
:10060000527A9140084400994860FFE7FFE701995A
:100610000A7A4B7AC86840EA837040EA82600A6AC4
:100620001043CA6910438A6910434B696FF00F0287
:1006300002EB03121043097C08430099886002B062
:100640007047000080B584B08DF80F008DF80E1053
:1006500002929DF80E0060B9FFE702989DF80F2006
:1006600040F60001C2F2000101EB0211FFF798FF12
:100670000EE048F20C00C4F2020000689DF80F1072
:1006800000EB0110019002980199FFF789FFFFE745
:1006900004B080BD80B548F20403C4F20203002018
:1006A000186048F20801C4F20201086048F214011F
:1006B000C4F20201086048F21801C4F202014FF0CE
:1006C000FF30086048F22001C4F20201086048F2DD
:1006D0002C02C4F20202106048F23402C4F2020298
:1006E000106048F23C02C4F20202106048F24C0C66
:1006F000C4F2020C0122CCF800201A60086048F213
:100700002801C4F202010860052000F045F980BD0F
:1007100082B08DF806008DF805109DF805000138AF
:1007200001460091072868D80099DFE801F0040E1F
:100730001825323F4C5948F20000C4F2020000680C
:1007400000F001008DF807005BE048F24C00C4F2B5
:1007500002000168012088438DF8070051E048F24B
:100760002800C4F2020000689DF80610C84000F09E
:1007700001008DF8070044E048F22000C4F20200B6
:1007800000689DF80610C84000F001008DF80700D1
:1007900037E048F21000C4F2020000689DF806102D
:1007A000C84000F001008DF807002AE048F2180068
:1007B000C4F2020000689DF80610C84000F0010075
:1007C0008DF807001DE048F23000C4F20200006816
:1007D0009DF80610C84000F001008DF8070010E0F9
:1007E00048F23800C4F2020000689DF80610C840C4
:1007F00000F001008DF8070003E000208DF80700ED
:10080000FFE79DF8070002B07047000080B50B209D
:100810000721FFF77DFF48B9FFE740F6E862C2F223
:1008200000020B200121FFF70DFF08E040F63072B7
:10083000C2F200020B200021FFF704FFFFE780BD9A
:1008400080B584B08DF80F00029140F60000C2F22E
:10085000000048F20801C4F2020108600298006832
:1008600068B1FFE7029800689DF80F2040F600018C
:10087000C2F2000101EB0211FFF792FEFFE70298BE
:10088000406880B1FFE748F20C00C4F20200006843
:100890009DF80F1000EB011001900298406801993B
:1008A000FFF77EFEFFE70298806840F0010048F203
:1008B0000401C4F2020108600298407B01280AD1B9
:1008C000FFE79DF80F100120884048F21801C4F29C
:1008D0000201086009E09DF80F100120884048F2ED
:1008E0001C01C4F202010860FFE79DF80F1001200F
:1008F00000FA01F148F22402C4F2020211609DF8EC
:100900000F10884048F22801C4F2020108600298E2
:10091000807B50B9FFE79DF80F100120884048F216
:100920003401C4F20201086009E09DF80F100120B3
:10093000884048F23001C4F202010860FFE70298E3
:10094000007B01280AD1FFE79DF80F1001208840A5
:1009500048F23801C4F20201086009E09DF80F1066
:100960000120884048F23C01C4F202010860FFE720
:1009700004B080BD81B0009000990020086000990B
:10098000486000998860009908730099487300993D
:10099000887301B07047000081B08DF803009DF9A5
:1009A000031001F01F02012090404A094EF28021FD
:1009B000CEF2000141F8220001B0704781B08DF8FD
:1009C00003009DF9031001F01F02012090404A0925
:1009D0004EF28011CEF2000141F8220001B07047C2
:1009E00081B08DF803009DF9031001F01F02012072
:1009F00090404A094EF20011CEF2000141F8220067
:100A000001B0704781B08DF803009DF9031001F02B
:100A10001F02012090404A094EF20011CEF200015F
:100A200041F8220001B0704781B000900099002089
:100A3000C8600099086100994860009908600099B1
:100A4000886000994861009988610099C86101B087
:100A5000704700008EB00D900C910D9840680B907F
:100A60000D9880680A900D98C06809900D980069EB
:100A700008900D98406907900D98806906900D9830
:100A8000C06905900020039001200290032001908E
:100A90004FF0011000900C9800880490FFE7049834
:100AA000002865D0FFE79DF81000C00700284ED051
:100AB000FFE70B98029988430C998978039A914033
:100AC00008430B900A98019988430C99097A039A74
:100AD0005200914008430A900998029988430C9962
:100AE000897A039A914008430990089800998843AD
:100AF0000C99039A02F1100CCB78097903FA0CF3E4
:100B000018439140084308900798009988430C992E
:100B1000039A02F1100C4B79897903FA0CF318430C
:100B20009140084307900698019988430C99497AA7
:100B3000039A520091400843069005980299884311
:100B40000C99C979039A914008430590FFE70298F0
:100B500040000290019880000190009840000090B1
:100B6000039801300390FFE704984008049096E74B
:100B70000B980D9948600A980D99886009980D990D
:100B8000C86008980D99086107980D994861069802
:100B90000D99886105980D99C8610EB070470000E5
:100BA00082B001900091009A019908689043086012
:100BB00002B0704782B001900091009801990968D5
:100BC00008430199086002B07047000081B08DF8B9
:100BD00003009DF803008821C4F24021086001B0A1
:100BE0007047000083B08DF80B0001910C21C4F216
:100BF000020108680090009820F0030000909DF822
:100C00000B20009810430090009808600421C4F263
:100C1000020108680090009820F470600090019A2A
:100C2000009840EA02200090009808608820C4F2F2
:100C30004020006840B1FFE78C21C4F24021012030
:100C4000086000200860FFE703B0704780B584B0FB
:100C500000200390FFE7212000F062F88DF80A00E1
:100C6000039801300390FFE703990020490A022905
:100C7000019007D8FFE79DF80A00B0FA80F040091C
:100C80000190FFE70198C0070028E4D1FFE7212089
:100C900000F046F820B1FFE701208DF80B0003E0DB
:100CA00000208DF80B00FFE79DF80B0004B080BD1D
:100CB00081B08DF803009DF8030040F28811C4F262
:100CC0004021086001B0704782B08DF807000C2108
:100CD000C4F2020108680090009820F0F000009033
:100CE0009DF80720009840EA0210009000980860E4
:100CF00002B0704782B0ADF806000C21C4F20201C8
:100D000008680090009820F440700090BDF806201C
:100D10000098104300900098086002B070470000EF
:100D200083B08DF80B009DF80B0000F0E000202848
:100D300006D1FFE70020C4F202000068019006E03F
:100D400048F23C00C4F20D0000680190FFE70198F2
:100D50009DF80B1001F01F01C840C00720B1FFE74C
:100D600001208DF8030003E000208DF80300FFE769
:100D70009DF8030003B0704782B08DF8070008218A
:100D8000C4F20201086820F0030008609DF8070023
:100D900001460091012804D0FFE70098022808D0FE
:100DA0000FE00821C4F20201086840F00100086069
:100DB00008E00821C4F20201086840F0030008605E
:100DC00000E0FFE702B0704780B584B000200390D8
:100DD000FFE72220FFF7A4FF8DF80A0003980130F7
:100DE0000390FFE703990020490A0229019007D8E0
:100DF000FFE79DF80A00B0FA80F040090190FFE794
:100E00000198C0070028E4D1FFE72220FFF788FF00
:100E100020B1FFE701208DF80B0003E000208DF8E2
:100E20000B00FFE79DF80B0004B080BD82B001907D
:100E30008DF803109DF8030040B1FFE7019A1C21D3
:100E4000C4F2020108681043086007E0019A1C21FF
:100E5000C4F20201086890430860FFE702B07047DF
:100E600080B586B01020C0F2020001210591FFF785
:100E7000DDFF05994FF0C070FFF7D8FF4EF60C511B
:100E8000CEF2000140F20050C0F2FA5008604EF677
:100E90000851CEF200014FF0006008604EF2802150
:100EA000CEF200014FF0FF3008604EF28011CEF21A
:100EB000000108604EF20011CEF200014FF4003044
:100EC00008600020C4F20C000090FFF7ADFD009810
:100ED00040F60851C2F20001032202920A80002269
:100EE00003928A708A72FFF7B5FDFFF79DFA40F60C
:100EF0007C60C2F200000190FFF700FB0198FFF751
:100F0000D1FA40F69860C2F200000490FFF70AFBA5
:100F1000029A039904980170082343704FF40073F8
:100F2000438001718260418201754FF4A041C1820A
:100F300002218161FFF728FA05990420FFF702FAE0
:100F400006B080BD2DE9F04182B040F22010C0F221
:100F5000100001263146FFF769FF4EF28021CEF2E4
:100F600000014FF0FF3008604EF28011CEF2000118
:100F70000860FFF78FFB40F6B460C2F200000190FA
:100F8000FFF7F8FC019940F60C72C2F2000248F239
:100F90001808C4F20808C2F8008040F60840C2F2FF
:100FA00000005060802757610323137256724FF080
:100FB0008855D5604FF4203494614FF4802EC2F8E8
:100FC0001CE04FF4000CC2F820C0137440F6C4605B
:100FD000C2F20000C0F8008040F26048C2F200088F
:100FE000C0F80480476103724672C5608461C0F82E
:100FF0001CE0C0F820C003740A6048600020087339
:10100000487388730820FFF71BFC48F22401C4F2E0
:1010100002014FF48070086048F21C01C4F2020122
:10102000086002B0BDE8F08180B58EB00120FFF706
:10103000A3FEFFF7C9FE01282FD0FFE74FF4000001
:1010400001210791FFF7F2FE07980421ADF82C105B
:101050008DF82E0003218DF835108DF8360048F2FA
:101060000000C4F20B000BA9FFF7F4FCFFE748F205
:101070000000C4F20B00049004210591FFF79AFDD3
:1010800042F21070069001F001FC04980599FFF7F8
:1010900087FD069801F0FAFBE9E702200721FFF738
:1010A000A1FD0120FFF792FDFFF7D0FD01282FD011
:1010B000FFE74FF4000001210391FFF7B7FE03980B
:1010C0000421ADF820108DF8220003218DF829109D
:1010D0008DF82A0048F20000C4F20B0008A9FFF7BF
:1010E000B9FCFFE748F20000C4F20B0000900421B5
:1010F0000191FFF75FFD42F21070029001F0C6FB14
:1011000000980199FFF74CFD029801F0BFFBE9E759
:101110000020FFF7D9FD0120FFF7CAFD4FF48070D2
:10112000FFF7E8FD0EB080BD80B504200121FFF778
:101130007DFE40F6A450C2F200000321017005219B
:10114000417040F6B051C2F2000110228A602023A3
:101150004B600A6000F036FC1F2001F065FB00F0D8
:1011600065FC0220FFF74EFC00F022FB80BD000072
:1011700080B5FFE708200721FFF7CAFA08B9FFE7A3
:10118000F8E740F60C72C2F2000208200021FFF7D7
:1011900059FA40F60840C2F200004FF4807100F0A6
:1011A0003FFB80BD80B5FFE708200721FFF7B0FABD
:1011B00008B1FFE7F8E740F6C462C2F20002082077
:1011C0000121FFF73FFA40F26040C2F200004FF405
:1011D000807100F025FB80BD85B00C20C4F20200B8
:1011E00000688007002806D5FFE742F20040C0F201
:1011F000F400049005E041F20020C0F27A0004906F
:10120000FFE70C20C4F202000068C00720B1FFE72E
:10121000049840080490FFE7049803900C20C4F25F
:1012200002000068400700280DD5FFE70420C4F243
:1012300002000068C0F30320013001900199039877
:1012400048430390FFE70C20C4F202000068C0F39B
:1012500001200146009140B1FFE7009801280ED01F
:10126000FFE7009802281CD023E040F20001C2F200
:10127000000141F20020C0F27A00086021E00398EA
:101280000C21C4F202010968C1F303110131B0FB62
:10129000F1F00290029840F20001C2F200010860F1
:1012A0000FE040F20001C2F200014FF4004008607C
:1012B00007E040F20001C2F2000149F64040086038
:1012C000FFE705B07047000080B51C21C4F20201A1
:1012D000102008600C21C4F20201002008600421E3
:1012E000C4F2020108600821C4F202010860102162
:1012F000C4F2020108601421C4F20201086018213E
:10130000C4F2020108602021C4F202010860242115
:10131000C4F2020108602821C4F2020108602C21F5
:10132000C4F202010860FFF757FF80BD82B0019050
:101330001021C4F2020108680090009840F4807007
:10134000009001980278009810430090009840F0B7
:1013500004000090009808600421C4F202010868AB
:101360000090009840F001000090019842780098A9
:1013700040EA0210009000980860FFE70020C4F2E5
:1013800002000068C00708B9FFE7F7E702B070473E
:1013900080B584B00020ADF80E0040F6A650C2F231
:1013A00000004188ADF80C108188ADF80A10C188A2
:1013B000ADF80810407801460191232800F2A8807A
:1013C0000199DFE801F012161A3456A5A5A5A5A5C6
:1013D000A5A5A5A5A5A5A5A5A5A5A5A5A5A5A5A5BD
:1013E000A5A5A5A5A5A55A749DA10120ADF80E003F
:1013F00092E00120ADF80E008EE0BDF80800022852
:1014000010D1FFE7BDF8082040F2E051C2F2000120
:1014100041F26D53C0F60003002001F045F8ADF82D
:101420000E0003E00220ADF80E00FFE774E0BDF807
:101430000800022818D1FFE70120ADF80E00BDF822
:101440000E0080B9FFE7BDF8082040F2E051C2F27B
:10145000000141F6A513C0F60003002000F0EEFFE6
:10146000ADF80E00FFE703E00220ADF80E00FFE745
:1014700052E00120ADF80E004EE0BDF8080007284C
:1014800010D1FFE7BDF8082040F2E051C2F20001A0
:1014900041F26D53C0F60003002001F005F8ADF8ED
:1014A0000E0003E00220ADF80E00FFE734E0BDF8C7
:1014B000080007281FD1FFE7BDF80A0040F2E051FD
:1014C000C2F2000100F0E2F8ADF80E00BDF80E0027
:1014D00080B9FFE7BDF8082040F2E051C2F20001F8
:1014E00041F6A513C0F60003002000F0A7FFADF8F9
:1014F0000E00FFE703E00220ADF80E00FFE70BE06F
:101500000020ADF80E0007E00120ADF80E0003E06A
:101510000120ADF80E00FFE7BDF80E0008BBFFE7A5
:10152000BDF80800E8B9FFE740F6A650C2F2000097
:1015300000780006002808D5FFE700231846194662
:101540001A4600F0B1FF009007E000231846194644
:101550001A4600F073FF0090FFE70098ADF80E0008
:10156000FFE7BDF80E0004B080BD000080B586B076
:101570008DF817000491039240F6A650C2F20000C5
:10158000407801460191022804D0FFE70198202805
:1015900004D00EE00120ADF80A000EE040F6A6509F
:1015A000C2F200008088049900F060F9ADF80A00EA
:1015B00003E00220ADF80A00FFE7BDF80A0048B9D1
:1015C000FFE79DF81700002319461A4600F036FF82
:1015D000009003E0BDF80A000090FFE7009880B299
:1015E00006B080BD80B586B0ADF81600ADF8141019
:1015F000ADF8122000200390ADF806009DF816000B
:1016000020B1FFE70120ADF8060020E0BDF816008C
:10161000000A01460091012804D0FFE70098022843
:1016200008D00FE040F24700C2F200000390122001
:1016300002900BE040F20400C2F20000039043204D
:10164000029003E00120ADF80600FFE7FFE7BDF8D8
:101650000600B0B9FFE70298BDF81210884204D91D
:10166000FFE7BDF812000290FFE70399029A41F6E6
:10167000A513C0F60003002000F0E0FEADF8060060
:10168000FFE7BDF8060006B080BD000082B0ADF8EF
:1016900004000091BDF8040020B1FFE70220ADF87E
:1016A00006000CE0009940F60042C2F20002106809
:1016B00052684A6008600020ADF80600FFE7BDF8F8
:1016C000060002B07047000080B584B0039002911C
:1016D0008DF807200398029900F0E6F840F698523A
:1016E000C2F20002002010819DF80710B1FA81F1CA
:1016F00049094902518104B080BD000080B584B021
:101700008DF80D00029101920298019900F03CF8C9
:10171000ADF80200BDF8020040B1FFE740F6985175
:10172000C2F200014FF400704881FFE740F6985084
:10173000C2F20000408980B9FFE740F69850C2F23B
:1017400000000168426841F2FD63C0F60003032017
:1017500000F0AAFEADF80E0003E00020ADF80E0088
:10176000FFE7BDF80E0004B080BD000083B08DF827
:101770000B000191009240F69851C2F20001002046
:10178000088103B07047000080B584B003900291D7
:10179000039940F61450C2F2000001908022FEF737
:1017A000FDFC0199029A0020885404B080BD00001D
:1017B00080B584B000F046F9ADF80E00BDF80E001B
:1017C00050BBFFE701200190052100910022029209
:1017D00000F0BEFB0099029A022000F0B9FB0199CB
:1017E000029A032000F0B4FB40F69850C2F20000C9
:1017F000408980B9FFE740F69850C2F200000168C6
:10180000426841F2FD63C0F60003032000F04CFE85
:10181000ADF80E00FFE7FFE7BDF80E0004B080BD95
:1018200080B584B00390029140F69850C2F2000057
:101830000089ADF80600BDF8060098B9FFE740F64C
:101840009851C2F200014FF4007008810399029A86
:1018500041F26D73C0F60003012000F0EFFDADF81A
:101860000600FFE7BDF8060004B080BD82B0ADF809
:1018700004000091BDF8040020B1FFE70220ADF89C
:1018800006000CE0009908684A6840F60041C2F280
:1018900000014A6008600020ADF80600FFE7BDF8CF
:1018A000060002B07047000082B0019000910198DC
:1018B00040F69851C2F2000108600098486000208C
:1018C00002B0704780B582B08DF80500ADF8021007
:1018D000ADF800209DF8050002280BD1FFE7BDF808
:1018E000020038B9FFE79DF8000000F0FFFAADF8FC
:1018F000060003E00120ADF80600FFE7BDF8060092
:1019000002B080BD80B584B00020ADF80600022092
:10191000FFF754F840F6C850C2F200000068E8BB78
:10192000FFE740F6C851C2F200010120086000F054
:10193000B7FE02909DF80800400700280ED5FFE78B
:1019400000F080F8ADF8060040F6BC50C2F200008E
:1019500000218160806800F0F5FEFFE70020039021
:10196000FFE7039803280AD8FFE79DF80C000299C7
:1019700000F07EFBFFE7039801300390F1E7029847
:1019800020F0010000F068FF40F6C851C2F20001EB
:10199000002008600220FFF723F8FFE7BDF80600EB
:1019A00004B080BD80B584B08DF80F000291019223
:1019B0009DF80F00002319461A4600F075FD04B08B
:1019C00080BD000080B584B0039002910398FFF7BA
:1019D000ADFC00F06FFE4FF4803000F09BFE0298EB
:1019E000006800F097FE029948688968084340F053
:1019F000010000F0B1FE052100220192104600F026
:101A0000A7FA019840F6A651C2F2000141F69922C8
:101A1000C0F6000200F0D2FD019840F6BC51C2F2BF
:101A200000010870886004B080BD000080B50C2003
:101A300000F070FE40F6BC51C2F2000102200870B6
:101A4000002080BD40F6BC51C2F2000103200870A6
:101A50000020704780B582B08DF80500ADF8021007
:101A6000ADF800209DF8050002280CD1FFE7BDF875
:101A7000020040B9FFE79DF80000012100F0B8FA2C
:101A8000ADF8060003E00120ADF80600FFE7BDF861
:101A9000060002B080BD000080B58CB08DF82F002C
:101AA0000A910020ADF824000A98007800F0600048
:101AB0008DF827000A98007800F080008DF8260045
:101AC0009DF827000146059150B1FFE705982028B1
:101AD00000F0E281FFE70598402800F0E281E4E1B0
:101AE000002006900A984088ADF822000A98808865
:101AF000ADF820000A98C088ADF81E000A9800785A
:101B000000F01F008DF81D009DF81D00042804DB67
:101B1000FFE70220ADF82400CBE10A9840780146A7
:101B200004910C2800F28F810499DFE811F00D0078
:101B300076008C019D008C01C400D400DF00E3001E
:101B400009012801470167019DF82600802817D167
:101B5000FFE740F6BC50C2F200000078042813D121
:101B6000FFE79DF81D0001280AD0FFE79DF81D0042
:101B7000022809D1FFE7BDF82000042804DBFFE7B5
:101B80000120ADF8240047E00020ADF82400BDF8A6
:101B9000240000283FD1FFE79DF81D000146039176
:101BA00040B1FFE7039801280BD0FFE70398022814
:101BB0000ED01DE040F69451C2F2000100200870E2
:101BC00017E040F69451C2F200010020087010E0C6
:101BD000BDF8200040F6CC52C2F200022C2100FBDE
:101BE0000120407840F69451C2F20001087000E0F4
:101BF000FFE740F69451C2F20001002048709DF8C2
:101C00002F0041F6A513C0F60003022200F016FCD7
:101C1000ADF82400FFE7FFE719E140F6BC50C2F23F
:101C200000000078042813D1FFE79DF81D0001286B
:101C30000AD0FFE79DF81D00022809D1FFE7BDF893
:101C40002000042804DBFFE70120ADF824000AE0AF
:101C50009DF81D00BDF82210BDF82020FFF732FED0
:101C6000ADF82400FFE7F2E040F6BC50C2F20000FD
:101C70000078042813D1FFE79DF81D0001280AD041
:101C8000FFE79DF81D00022809D1FFE7BDF82000FD
:101C9000042804DBFFE70120ADF824000AE09DF8EA
:101CA0001D00BDF82210BDF82020FFF7D3FEADF8CF
:101CB0002400FFE7CBE00020ADF82400BDF82200AF
:101CC00040F6BC51C2F20001886041F6BD60C0F62A
:101CD00000000690BBE0BDF82200BDF82010BDF862
:101CE0001E20FFF77FFCADF82400B0E00120ADF826
:101CF0002400ACE040F6BC50C2F20000007804289A
:101D000007D1FFE740F69451C2F2000100200870AD
:101D100006E040F69451C2F2000101200870FFE78E
:101D20009DF82F0040F69451C2F2000141F6A51330
:101D3000C0F60003012200F081FBADF8240086E02C
:101D4000BDF8220038B9FFE740F6BC51C2F20001ED
:101D50000420087012E0BDF82200013818BF0120ED
:101D6000ADF82400BDF8240038B9FFE740F6BC51B7
:101D7000C2F2000105200870FFE7FFE767E040F6C8
:101D8000BC50C2F200000078042804D1FFE7012013
:101D9000ADF8240011E040F69451C2F20001002099
:101DA00008709DF82F0041F6A513C0F6000301222C
:101DB00000F044FBADF82400FFE748E040F6BC50DB
:101DC000C2F200000078042804D1FFE70120ADF83A
:101DD000240012E0BDF820100020029039B9FFE77E
:101DE000BDF82200B0FA80F040090290FFE70299A6
:101DF00001208843ADF82400FFE728E040F6BC50FE
:101E0000C2F200000078042804D1FFE70120ADF8F9
:101E1000240017E00120ADF82400BDF8240080B9AB
:101E2000FFE79DF82F0040F69451C2F2000141F601
:101E3000A513C0F60003022200F000FBADF8240059
:101E4000FFE7FFE703E00220ADF82400FFE7BDF85D
:101E5000240000BBFFE7BDF81E00E0B9FFE70A98C9
:101E600000780006002809D5FFE79DF82F00069BA3
:101E70000022114600F018FB019008E09DF82F00A9
:101E8000069B0022114600F0D9FA0190FFE7019865
:101E9000ADF82400FFE70CE0FFF77AFAADF8240074
:101EA00007E00120ADF8240003E00220ADF8240093
:101EB000FFE7BDF824000CB080BD000080B584B001
:101EC0008DF80F000291019240F6BC50C2F2000062
:101ED0000090806800F036FC00998A680320002A90
:101EE00018BF04200870002004B080BD80B584B005
:101EF0008DF80F009DF80F0040F6CC52C2F20002A0
:101F00002C2100FB012002904FF400200190029848
:101F1000407E20B9FFE70298807E40B1FFE702993A
:101F200001200870019840F00200019003E002993E
:101F300000200870FFE702990020009048709DF88B
:101F40000F00019900F038F8009804B080BD00003F
:101F500080B586B08DF81700049103929DF81700A4
:101F600040F6CC52C2F200022C2100FB012002906C
:101F700002990020019048600299886002990861E6
:101F80000299C860029948610299C8610299086281
:101F9000029948620399029A9162029948700299E3
:101FA0000870029908769DF81700049900F0ECFB80
:101FB000019806B080BD000080B584B08DF80F0098
:101FC00002919DF80F0040F6CC52C2F200022C2183
:101FD00000FB012001901F2000F03EFC0199002031
:101FE00008769DF80F00029900F0CEFB04B080BD8A
:101FF00080B584B08DF80D008DF80C109DF80D00A3
:1020000040F6CC52C2F200022C2100FB01200290CB
:10201000002001909DF80C00012808D1FFE79DF8F1
:102020000D0020B9FFE70120ADF80E001BE09DF880
:102030000C00012804D0FFE70298807E50B1FFE732
:102040009DF80C00029948700299052008700A203A
:102050000190FFE79DF80D000199FFF7ADFF00200B
:10206000ADF80E00FFE7BDF80E0004B080BD000023
:1020700080B58CB08DF82D000A9100208DF82700D6
:10208000ADF824009DF82D0000F0EEFA08909DF8C0
:102090002D0000F0F7FA00F0030007909DF82D00E6
:1020A00000F0B8FA06909DF82D0040F6CC52C2F22E
:1020B00000022C2100FB012003909DF82800C0079E
:1020C00020B1FFE7039901200876FFE7FFE70398B7
:1020D000007801460291052800F29F810299DFE80D
:1020E00011F006000A004000C0002A01840100200F
:1020F000ADF82E009DE19DF81800800700282FD430
:10210000FFE70398007E58B3FFE7079802280ED137
:10211000FFE70398407E50B1FFE703990320087062
:1021200003990020487601208DF8270017E00798D2
:1021300058B9FFE70398807E38B1FFE70399042080
:10214000087001208DF8270008E00120ADF8240078
:102150009DF82D000021FFF74BFFFFE7FFE7FFE7AA
:102160005BE19DF818008007002847D4FFE703983B
:10217000007E002842D0FFE7079801283ED1FFE704
:102180009DF820004006002838D5FFE70399C8686D
:102190000A691044C86003988168C068884226D3E1
:1021A000FFE70399002008700398C06950B1FFE76A
:1021B000039841688268C3699DF82D009847ADF87F
:1021C0002400FFE7BDF8240050B9FFE7039800782A
:1021D00028B9FFE79DF82D00FFF788FEFFE705E02F
:1021E0009DF82D000021FFF703FFFFE705E09DF8B4
:1021F0002D00012100F082F9FFE731E09DF8200079
:10220000000760B3FFE70399002008700398806A15
:1022100060B1FFE70398D0F828C09DF82D00089919
:10222000079A069BE047ADF82400FFE7BDF82400BD
:1022300070B9FFE70398007848B9FFE703990220D7
:1022400008709DF82D00002100F058F9FFE705E027
:102250009DF82D000021FFF7CBFEFFE7FFE7FFE72A
:10226000DBE09DF818008007002863D4FFE703989F
:10227000007E00285ED0FFE7002001908DF8270047
:102280009DF82D0000F0E2F90146019804910590B7
:10229000FFE70598049988420FD2FFE79DF82D00CB
:1022A00000F0C6F9039A5168D268059B1A44885415
:1022B000FFE7059801300590EBE79DF82D0001211F
:1022C00000F082FA049A0399C8681044C860039821
:1022D0008168C068884226D3FFE703990020087010
:1022E0000398006A50B1FFE703984168C268036A27
:1022F0009DF82D009847ADF82400FFE7BDF82400B5
:1023000050B9FFE70398007828B9FFE79DF82D0042
:10231000FFF7ECFDFFE705E09DF82D000021FFF73A
:1023200067FEFFE705E09DF82D000221FFF744FE60
:10233000FFE7FFE771E00398007E002851D0FFE738
:102340009DF82D0000F082F904900498082838D1F7
:10235000FFE700200590FFE70598049988420DD219
:10236000FFE79DF82D0000F063F903994969059A8C
:102370008854FFE7059801300590EDE79DF82D00A2
:10238000012100F021FA03984169426A9DF82D006D
:102390009047ADF82400BDF8240058B9FFE7039832
:1023A0000078042805D1FFE79DF82D00FFF79EFD7A
:1023B000FFE705E09DF82D000021FFF719FEFFE77C
:1023C0000EE09DF82D000121009100F0FDF900982C
:1023D000ADF824009DF82D000021FFF709FEFFE76E
:1023E000FFE700208DF8270017E09DF81800800710
:1023F000002811D4FFE703984078012806D1FFE7B1
:102400009DF82D000121FFF7F3FD04E09DF82D005C
:10241000FFF76CFDFFE7FFE7FFE7FFE79DF8270009
:1024200000287FF454AEFFE7BDF82400ADF82E007D
:10243000FFE7BDF82E000CB080BD000080B588B06D
:102440008DF81F000691059204939DF81F0040F639
:10245000CC52C2F200022C2100FB01200390039811
:10246000817E0120002918BF02208DF80B000698FC
:102470000399486005980399886003994020086192
:10248000039900200190C86004980399C8619DF8E1
:102490001F009DF80B1000F031F80198039A0221FB
:1024A000117008B080BD000080B586B08DF81700AF
:1024B0000491039202939DF8170040F6CC52C2F2A9
:1024C00000022C2100FB0120019004980199486032
:1024D0000398019988600199002000900861019992
:1024E000C8600298019908620199012048769DF818
:1024F0001700FFF7FBFC009806B080BD80B586B0E2
:102500008DF817008DF816109DF8170040F6CC5284
:10251000C2F200022C2100FB012004909DF817005C
:10252000012100F071F99DF816000146019140B1BA
:10253000FFE70198012805D0FFE70198022806D09F
:102540000BE00AE09DF8170000F0CCF805E09DF8DC
:102550001700042100F018F9FFE7049A9168D06889
:1025600012691044884206D2FFE70499C8680969D5
:102570000844009003E0049880680090FFE700980A
:1025800002900498C0680390FFE70398029988427C
:102590000DD2FFE79DF8170004994968039A895CFA
:1025A00000F022F9FFE7039801300390EDE79DF872
:1025B00017000221FFF700FD06B080BD80B586B090
:1025C0008DF81700049103929DF8170040F6CC5245
:1025D000C2F200022C2100FB012002900498029913
:1025E000486102990020019088600299086102996F
:1025F000C8600398029948620398002818BF012018
:10260000029988769DF81700FFF770FC019806B0D4
:1026100080BD000081B08DF803009DF8030001012A
:1026200040F20010C4F20100405801B070470000B1
:1026300081B08DF803009DF80300C10140F28010C5
:10264000C4F20100405801B07047000081B08DF81D
:1026500003009DF80300C10140F28C10C4F2010098
:10266000405801B07047000081B08DF803009DF81C
:102670000300010140F20410C4F20100405801B00F
:102680007047000081B08DF803009DF80300010140
:1026900040F20810C4F20100405801B07047000039
:1026A00040F24810C4F201000068704780B5FFF79F
:1026B00029F980BD80B582B0022000F02BF80020FF
:1026C0000190FFE70198C0087C2805D8FFE7FFE7E5
:1026D000019801300190F5E74FF4003000F01AF84E
:1026E00002B080BD82B08DF807009DF807000001A0
:1026F00040F20011C4F2010108580090009880F0E7
:102700000400009000989DF807201201885002B044
:102710007047000082B00190FFE740F28031C4F2C0
:10272000010108680090BDF8042000981043009053
:10273000BDF8062000989043009000980860FFE7DD
:1027400002B0704781B00090009840F25011C4F27E
:102750000101086001B0704782B00190FFE740F2CC
:102760004011C4F2010108680090BDF804200098EF
:1027700010430090BDF80620009890430090009808
:102780000860FFE702B0704783B08DF80B0001913D
:10279000FFE79DF80B00000140F20011C4F20101B7
:1027A00008580090BDF80420009810430090BDF830
:1027B000062000989043009000989DF80B2012018D
:1027C0008850FFE703B0704782B08DF80700009192
:1027D00000989DF80710CA0140F29011C4F201015F
:1027E000885002B07047000082B08DF80700009159
:1027F00000989DF80710CA0140F2C011C4F201010F
:10280000885002B07047000082B08DF80700009138
:1028100000989DF80710CA0140F2D011C4F20101DE
:10282000885002B07047000082B00190FFE740F28C
:102830004C11C4F2010108680090BDF80420009812
:1028400010430090BDF80620009890430090009837
:102850000860FFE702B0704781B00090009840F236
:102860004811C4F20101086001B0704740F6004110
:10287000C2F2000144F24020C0F20F0008600020C4
:1028800008714871082088717047000081B000907D
:10289000FFE70098411E009110B1FFE700BFF8E785
:1028A00001B0704780B582B000200190FFF7DEFFD5
:1028B000FEF7D6FAFEF746FB40F26050C2F2000087
:1028C0000068012200921146FEF7FEFEFEF7ACFB07
:1028D000FEF72AFC0098FDF715FD00990820FDF78A
:1028E0003FFEFFE7FEF744FCFEF75CFCFAE7000062
:1028F00010290008000000205C000000FC00000817
:102900006C29000800040020586B00001801000822
:1029100000127A000902430002010080320904001B
:10292000000102020100052400100105240100013C
:102930000424020605240600010705820340000264
:1029400009040100020A000000070581024000009E
:10295000070503024000001201100102000040833D
:0C2960000425F100000000000100000050
:040000050800015D91
:00000001FF
