:020000040800F2
:10000000C86D00205D010008650100086701000857
:10001000690100086B0100086D0100080000000084
:100020000000000000000000000000006F01000858
:10003000710100080000000073010008750100084C
:100040007701000877010008291800080000000067
:1000500000000000ED0400087701000877010008A7
:100060007701000800000000770100087701000810
:100070007701000800000000770100087701000800
:1000800077010008770100080000000077010008F0
:1000900077010008000000000000000000000000E0
:1000A00000000000000000000000000077010008D0
:1000B0007701000877010008770100087701000840
:1000C00000F002F800F03AF80AA090E8000C824430
:1000D0008344AAF10107DA4501D100F02FF8AFF20D
:1000E000090EBAE80F0013F0010F18BFFB1A43F016
:1000F0000103184790330000B0330000103A24BFCA
:1001000078C878C1FAD8520724BF30C830C144BF7C
:1001100004680C60704700000023002400250026BE
:10012000103A28BF78C1FBD8520728BF30C148BF5A
:100130000B6070471FB51FBD10B510BD00F0ACF8C7
:100140001146FFF7F7FF02F0D5FE00F0CAF803B43E
:10015000FFF7F2FF03BC00F0CDF80000094880472C
:1001600009480047FEE7FEE7FEE7FEE7FEE7FEE799
:10017000FEE7FEE7FEE7FEE704480549054A064BB1
:100180007047000065090008C1000008C80D002084
:10019000C86D0020C82D0020C82D0020032A40F281
:1001A000308010F0030C00F0158011F8013BBCF119
:1001B000020F624498BF11F801CB00F8013B38BF31
:1001C00011F8013BA2F1040298BF00F801CB38BF3F
:1001D00000F8013B11F0030300F02880083AC0F05A
:1001E000088051F8043B083A51F804CBA0E8081005
:1001F000F5E7121D5CBF51F8043B40F8043BAFF338
:100200000080D20724BF11F8013B11F801CB48BF91
:1002100011F8012B24BF00F8013B00F801CB48BFC7
:1002200000F8012B704770477047704710B5203AAF
:10023000C0F00B80B1E81850A0E81850B1E8185091
:10024000A0E81850203ABFF4F5AF5FEA027C24BF63
:10025000B1E81850A0E8185044BF18C918C0BDE84C
:1002600010405FEA827C24BF51F8043B40F8043B15
:1002700008BF7047D20728BF31F8023B48BF11F8CA
:10028000012B28BF20F8023B48BF00F8012B704724
:1002900000487047000400207546FFF7F9FFAE469E
:1002A00005006946534620F00700854618B020B582
:1002B000FFF762FFBDE820404FF000064FF0000757
:1002C0004FF000084FF0000BAC46ACE8C009ACE8BA
:1002D000C009ACE8C009ACE8C00921F007018D46AF
:1002E000704710B50446AFF300802046BDE81040CB
:1002F000FFF72DBF01491820ABBEFEE72600020024
:10030000704700002DE9F041D1B148F20C01C4F270
:100310000201096892F808C001EB001EBCF1030F4E
:100320002AD11168137CCEF80010042B2FD0517AFB
:10033000032945D15168CEF80410032147E000BFDE
:1003400092F808E040F6000CC2F2000CBEF1030F78
:100350000CEB001320D1146892F810801C60B8F1E7
:10036000040F25D0537A032B48D153680CEB0014AB
:10037000636003234AE000BF51691368013901FA41
:100380000CF11944137CCEF80010042BCFD1516826
:1003900001F10C07517A18E051691468013901FA2A
:1003A0000EF10C4492F810801C60B8F1040FD9D102
:1003B00053680CEB001503F10C04537A25E000BFE1
:1003C00057695668013F8F403744CEF80470D2E930
:1003D0000576D2E90754D26843EA8C631A4342EAAD
:1003E000817121436FF00F00294300EB0710314367
:1003F0000843CEF80800BDE8F08100BF5469556895
:10040000013C9C402C440CEB00156C6002F114077D
:10041000F0CFD2686FF00F0101EB041148EA8E644F
:10042000224342EA83723A4332432A4311430CEB9C
:1004300000108160BDE8F0810139072984BF0020E8
:100440007047DFE801F0050D17212B353F4900BF4C
:1004500048F20000C4F20200006800F0010070479A
:1004600048F20000C4F20200C06C012121EA000041
:10047000704700BF48F20001C4F20201896A21FA04
:1004800000F000F00100704748F20001C4F20201E0
:10049000096A21FA00F000F00100704748F20001FB
:1004A000C4F20201096921FA00F000F0010070476E
:1004B00048F20001C4F20201896921FA00F000F05B
:1004C0000100704748F20001C4F20201096B21FAF1
:1004D00000F000F00100704748F20001C4F2020190
:1004E000896B21FA00F000F00100704780B50B2005
:1004F0000721FFF7A1FF48B140F28C42C2F200028F
:100500000B200021BDE88040FFF7FCBE40F28C408C
:10051000C2F2000000F124020B200121BDE880405E
:10052000FFF7F0BE2DE9F04F86B04668D0F808908E
:10053000C2688B4605920169039141690491D0F824
:1005400018A00090D0F81CE0BBF80070002F5FD01E
:10055000012203234FF0011400254FF0000C08E0A6
:1005600052009B0064000CF1010C7F0805F10205AC
:100570004ED0F807F4D026EA02009BF8026029EA80
:10058000030906FA0CF6304302909BF80800059E1A
:10059000A84040EA09019BF80A00964300FA0CF0D3
:1005A0003043CDF804E09BF803E0059003989BF8F6
:1005B00004800CF1100620EA04090EFA06F040EA65
:1005C000090E08FA0CF040EA0E0003909BF80500B3
:1005D00089460499B0409BF8066021EA040E40EA7F
:1005E0000E0006FA0CF6304304909BF809002AEA44
:1005F0000306A84040EA060A9BF80700019900FAA2
:100600000CF021EA020640EA060E029EA8E700BFAF
:1006100000984660C0F808900599C160039901618F
:1006200004994161C0F818A0C0F81CE006B0BDE80C
:10063000F08F0000026822EA0101016070470000AB
:1006400002681143016070474FF6FF71018000217D
:10065000C0F80210C0F80610817270478821C4F2F9
:1006600040210860704700000422C4F2020293682F
:1006700023F003031843906013688C2023F4706305
:1006800043EA0121C4F24020116050F8041C002903
:1006900008BF704701210160002101607047000020
:1006A00040F28811C4F24021086070470C21C4F266
:1006B00002010A6822F0F00242EA00100860704766
:1006C0000C21C4F202010A6822F44072104308604F
:1006D000704700000821C4F202010A68012822F0D4
:1006E00003020A6003D0022818BF704703200A687B
:1006F000104308607047000081B00020C4F202007F
:10070000002100910168009A01320092009A520A79
:10071000022A23D811F0040120D10168009A013285
:100720000092009A520A022A18D811F0040115D139
:100730000168009A01320092009A520A022A0DD8EA
:1007400011F004010AD10168009A01320092009A66
:10075000520A022A02D811F00401D3D00068C0F373
:10076000800001B070470000002940F21C01C4F273
:1007700002010A680CBF22EA0000104308607047BB
:1007800040F22C0CC4F2020C0022DCF80030C4F25F
:100790000A0290420CD00022C4F2040290420FD10F
:1007A00023F0FF00084440F08073CCF8003070471D
:1007B000FF20CFF6FF50184040EA012000F10073FF
:1007C000CCF800307047000042684FF6FD7C42F0E4
:1007D0000203002908BF02EA0C03436070470000CF
:1007E00010B54A8802610A888B79CC7943EA0222E3
:1007F0000B7A91F805E022441A44724491F804C03F
:100800000260497A6144416010BD00004FF4E0612C
:100810004160002101814FF4003101607047000008
:1008200080B50120FFF756FFFFF766FF012813D1BF
:1008300002200621FFF718FF0120FFF70FFF00201D
:10084000FFF734FF0120FFF72BFF4FF48070BDE866
:100850008040FFF735BF00BFFEE7000070B586B0EF
:100860004FF4887001210124FFF77EFF4FF0015003
:100870000121FFF779FF03AD2846FFF7E5FEC02011
:100880008DF80E400024ADF80C0040F20310C4F2C5
:100890000404ADF8150004F5E0202946FFF742FEF8
:1008A000042004F52826ADF80C0030462946FFF751
:1008B00039FE0320ADF80C0002208DF814003046FC
:1008C0002946FFF72FFE0820ADF80C0000208DF818
:1008D0000E0030462946FFF725FE20460021FFF78F
:1008E0004FFF6D462846FFF791FF20462946FFF748
:1008F00077FF20460121FFF767FF06B070BD0000BB
:1009000010B5042001210424FFF72EFF40F27C40A3
:10091000C2F2000040F20351018010222021C0E900
:100920000212014641F8042F00F066FA1F2000F081
:10093000D9FF00F0A9FA4EF20010CEF200000460D8
:10094000BDE8104000F092B980B502F0C3F8002075
:1009500001F07AFB4FF47A7000F0E4FF012002F01E
:10096000DDF980BD0C20C4F20200102101610021DC
:10097000016040F8081C40F8041C41608160C160BF
:1009800041618161C161016201680268890742F2C7
:100990000041C0F2F40103685CBF41F20021C0F2E3
:1009A0007A0102F001025B0721FA02F105D550F845
:1009B000082CC2F30322013251430268C2F3012220
:1009C00082B1022A18D0012A1ED10068C0F3031098
:1009D0000130B1FBF0F040F25C01C2F200010860AE
:1009E000704700BF41F20020C0F27A0040F25C0183
:1009F000C2F20001086070474FF4004040F25C0111
:100A0000C2F200010860704749F6404040F25C01C4
:100A1000C2F20001086070470021C4F202010A69B5
:100A2000037840781A4342F482720A614A6842EAC3
:100A3000001040F00100486004E000BF0868C007F3
:100A400018BF70470868C00706D10868C00704BF10
:100A500008685FEAC070F1D07047000080B540F2CE
:100A6000684CC2F2000C9CF80100831E202B4FF052
:100A7000010029D8BCF80620DFE803F01222262660
:100A80002626262626262626262626262626262606
:100A9000262626262626262626262838560000BF65
:100AA000022A3FD140F2D44140F65D33C2F2000148
:100AB000C0F6000300200222BDE8804000F024BE02
:100AC0000220022A08BF012080BD00BF072A29D1C9
:100AD00040F2D44140F65D33C2F20001C0F600039B
:100AE00000200722BDE8804000F00EBE072A19D181
:100AF000BCF8040040F2D441C2F2000100F068F8F2
:100B0000002818BF80BD40F2D44140F6B953C2F26C
:100B10000001C0F6000300200722BDE8804000F07D
:100B2000D3BD00BF022080BD002A1CBF002080BDB5
:100B30009CF90000B0F1FF3F08DD002000210022F9
:100B40000023BDE8804000F0BFBD00BF00200021B1
:100B500000220023BDE8804000F0D6BD10B540F271
:100B60006842C2F200025378022B11D0202B11D11F
:100B70000446908800F0A4F8002818BF10BD204655
:100B8000002100220023BDE8104000F09DBD00BF01
:100B9000012010BD022010BD010601D001207047C8
:100BA000000A40F200010128C2F2000104D002282C
:100BB000F4D11231432000E0122040F6B9539042A4
:100BC00038BF0246C0F60003002000F07DBD0000E3
:100BD00000281CBF0220704740F60040C2F200000F
:100BE00005C8C1E9000200207047000040F6084334
:100BF000C2F20003C3E9000100201881B2FA82F0BA
:100C000040094102002059817047000080B5084624
:100C1000114600F019F8002840F60840C2F2000022
:100C20001CBF4FF400714181418900291CBF002085
:100C300080BDD0E9001240F60D43C0F6000303204A
:100C4000BDE8804000F060BD80B5014640F64850E8
:100C5000C2F200008022FFF7A1FA40F64451C2F22E
:100C60000001012200200A6080BD000010B500F0E4
:100C700017F90446A8B9012005210022002400F03C
:100C800075FA02200521002200F070FA03200121EC
:100C9000002200F06BFA40F60840C2F200004189E1
:100CA00011B1204610BD00BFD0E9001240F60D433F
:100CB000C0F600030320BDE8104000F025BD000091
:100CC00000281CBF02207047D1E9000140F6004215
:100CD000C2F20002C2E9000100207047F0B581B005
:100CE00002284FF0010608BF002903D0304601B0AA
:100CF000F0BD00BF40F61440D4B2C2F200002C2177
:100D000004FB010702257A7EC0F2080512B1012218
:100D100006E000BFBA7E002A0CBF4FF40025012276
:100D20006143425400261F207E7000F0E7FD2046FC
:100D300029463E7600F0B0FD304601B0F0BD00001F
:100D4000F0B581B04EF20015CEF20005042040F25D
:100D50006046C5F88000C2F20006706810B100203D
:100D600001B0F0BD0120706000F058FD044640075E
:100D700006D5032030740020B061002000F07AFD19
:100D800000202146002700F00DFA0120214600F046
:100D900009FA0220214600F005FA0320214600F05E
:100DA00001FA24F0010000F0A9FD0420776028601A
:100DB000002001B0F0BD000070B5044640F61440BC
:100DC000C2F200002C2104FB010561430122002630
:100DD00042521F202E62C5E90166C5E903666A76A4
:100DE00000F08CFD0221C0F2080120462E7600F0B2
:100DF00053FD002070BD000070B50C46FFF70CFEDF
:100E000000F014FD4FF4803000F028FD206800F061
:100E100025FDD4E90101084340F0010000F030FD58
:100E200040F61445C2F200050024002005212C8064
:100E3000C5E90144C5E903446C612C76C5E9074462
:100E4000C5E9094400F028FD40F26046C2F2000600
:100E500006F10800C5E9044040F6FD60C0F6000058
:100E600068620120A87628801F20C5E9024400F0AE
:100E700045FD0221C0F2080100202C7600F00CFD97
:100E800000203474B46170BD80B50C2000F0E6FC25
:100E900040F26041C2F20001022200200A7480BDCB
:100EA00040F26041C2F20001032200200A74704740
:100EB00070B502284FF0010408BF002902D0204677
:100EC00070BD00BF100617D040F61440C2F20000FB
:100ED000D5B22C2105FB0106694340F205124252AE
:100EE0001F2000F00BFD002428460A21347600F074
:100EF000D3FC204670BD00BF012070BD2DE9F0433A
:100F000081B00D46097801F06002402A38D0202ACD
:100F10003CD0002A2ED14BB2814603F01F0003289B
:100F200028D86E780C2E25D86988AA88B5F806804E
:100F30000127DFE806F007311F411F515D26657765
:100F400081912600B3F1FF3F00F38D8040F26041B4
:100F5000C2F200010B7C042B07D1012800F0838032
:100F6000022802D1032A00F27E80022880F08E80BF
:100F7000002094E00227384601B0BDE8F08300BFAE
:100F80000127384601B0BDE8F08300BF01B0BDE8DD
:100F9000F043FFF763BD00BF40F26043C2F20003BD
:100FA0001B7C042B05D101285DD0022801D1032A26
:100FB00059D8FFF793FE20E040F26043C2F20003ED
:100FC0001B7C042B05D101284DD0022801D1032A16
:100FD00049D8FFF76DFF10E040F26040C2F2000018
:100FE000816141F24910C0F60000002763E000BFB4
:100FF000084611464246FFF7CFFD07465AE000BFBC
:1010000040F26041C2F20001087C40F6B953043856
:1010100018BF01200870C0F600034846012200F006
:1010200053FB31E0012929D0E9B940F26040C2F216
:101030000000042127E000BF40F26041C2F200013D
:10104000087C04280FD0002740F6B9530F70C0F673
:101050000003484601222BE040F26040C2F200004B
:10106000007C042804D10127384601B0BDE8F08394
:1010700052EA010718BF01271CE000BF40F26040A0
:10108000C2F2000005210174002713E008D140F6E8
:101090001440C2F200002C2302FB030040780870C9
:1010A00040F6B9530027C0F60003484602224F70AD
:1010B00000F00AFB002057EA08017FF462AF95F9BF
:1010C0000010B1F1FF3F1FDD40F61444C2F20004EE
:1010D0002C2109FB014209FB01F5917E00274023E9
:1010E000D06100294FF002014846C2E90177C2E908
:1010F00003734FF0020608BF012100F027FB66557D
:10110000384601B0BDE8F08340F61441C2F2000158
:101110002C2209FB021409FB02F2206201200027A5
:10112000607688521F20C4E90177C4E9037700F094
:10113000E5FB0221C0F208014846277600F0ACFB2F
:10114000384601B0BDE8F08310B540F26044C2F209
:101150000004A06900F08EFBA069042100284FF074
:10116000000008BF0321217410BD000010B540F637
:10117000144CC2F2000C4FF02C0E00FB0EC300FB0F
:101180000EFE0024C3E90144C3E903445C61C3E9E2
:101190000744C3E909422CF80E401C7600F07CFBA2
:1011A000002010BD2DE9F04F8DB00D46814600F0B6
:1011B00025FB0790484600F029FB00F003000B9048
:1011C000484600F003FB40F61442C2F200022C2114
:1011D00009FB012AE90706901CBF01208AF81800C4
:1011E00006980AF1180800F002040AF101000C90B8
:1011F0000AF1190004900AF11A00099007980AF1FF
:10120000040B00F0400100F00F0003910AF11C01F3
:101210000A900AF128000026002500270291059077
:10122000089413E01F2000F069FBDDF8048000261D
:1012300088F800604846022100F02EFB089C00BFA1
:10124000002F4FF00107284600F013829AF80000A3
:101250000528F5D8DFE810F00D02060020005A003E
:1012600070016400002CEBD198F800000028E7D052
:101270000B98002800F0D680022840F09F80049848
:101280000078002800F09A8003208AF80000049873
:1012900001270670D4E700BF002C5DD198F800004C
:1012A000002859D00B98012856D10398002853D014
:1012B000DBF80C10DBE9012008449042CBF8080071
:1012C00080F0888048460121CDF8048000F002FBC0
:1012D000484600F0B9FADBF80C20DBE901100244C3
:1012E0008A4238BF114688429CD24E42A0F1010882
:1012F000DBF8000040444178484600F0E3FA08F18A
:10130000010806EB08000130F2D18BE7002C7FF4D6
:1013100097AF98F8000000283FF492AF52E100BF69
:10132000002C7FF48DAF0C980078012834D1B9F1EE
:10133000000F3FF485AF0C980121017005208AF859
:1013400000001F2000F0DAFA48460A2188F8006001
:1013500000F0A2FA74E700BF0A9800283FF470AFCB
:101360000598002106688AF800102EB10B9ADDE975
:1013700006314846B0470546C5B10998444600784D
:1013800000283FD00C984FF0000880F8008005201E
:101390000A268AF8000038E004980078002849D02E
:1013A00002260120C0F208064FE000BF9AF80000B4
:1013B000002865D00025002642E700BF0998007884
:1013C000002851D00C980A25067005208AF80000E4
:1013D0004BE000BF02988AF80060036823B1DBF895
:1013E0000010484698470546002D71D009980078AE
:1013F000002873D00C98067005208AF8000000269B
:101400000A206DE000264FF000081F2000F076FA59
:101410004846314684F80080A04600F03DFA002698
:101420000CE700BF09980078F0B104208AF80000AA
:10143000012705E7099802260078C0F2080600286F
:1014400018BF012008BF4FF400268AF800000C984E
:10145000002404701F2000F051FA4846314600264F
:1014600088F80040E8E600BF00251F2000F046FA9B
:101470004846294688F8006000F00EFA0125DFE6AC
:1014800002208AF800004846012100F023FADBF828
:101490000C20DBE9011002448A4238BF1146884221
:1014A0000DD24D42461E00BFDBF8000030444178AB
:1014B000484600F007FA0136A8190130F4D11F2080
:1014C00000F01CFA002588F80050484602210FE081
:1014D0009AF8000080B10025B2E600BF0026002087
:1014E00001901F2000F00AFA0199484688F8006030
:1014F00000F0D2F90026A3E60498007820B1022675
:101500000120C0F208060AE0099802260078C0F21D
:101510000806002818BF012008BF4FF400268AF8EB
:1015200000000C98002505701F2000F0E7F988F8EE
:10153000005048463146DBE798F80000002828466E
:1015400000F09780484600F051F908285ED140F637
:1015500014412C20C2F2000109FB0015484600F09E
:101560003DF969690870484600F038F969694870C2
:10157000484600F033F969698870484600F02EF952
:101580006969C870484600F029F9696908714846D8
:1015900000F024F969694871484600F01FF969694B
:1015A0008871484600F01AF96969C87148460121F6
:1015B00000F080F969696A6A4846904700285DD062
:1015C000054641E0484600F011F9044680B1674203
:1015D0004FF0FF36484600F001F9DBF80010DBF869
:1015E0000820114431440136BA1901324870F1D152
:1015F0004846012100F05EF9DBE9011002198A4238
:10160000CBF808200ED2022628E000BF4846012170
:10161000012500F04FF9099800260078F0B10C98E8
:10162000012516E040F614412C20C2F2000109FB0E
:101630000010036A00208AF8000023B1DBF80010D4
:101640004846984705462DB309980026007828B1EA
:101650000C98067005208AF800000A261F2000F06A
:101660004DF9002088F800004846314600F014F992
:10167000284680B20DB0BDE8F08F00BF9AF8000098
:1016800004280BD10498007870B102260120C0F222
:10169000080613E09AF800000028F3D0002080B27A
:1016A0000DB0BDE8F08F00BF099802260078C0F2A7
:1016B000080600280CBF4FF4002601208AF800001D
:1016C0000C9800250570C9E72DE9F04140F6144853
:1016D000C2F200082C2400FB04854FF0400CAE7EC3
:1016E00005F1040E00278EE8861002214443EB61C9
:1016F0000225002E08BF012100F028F8002008F87C
:101700000450BDE8F081000070B540F6144C04466A
:10171000C2F2000C2C2004FB00C5604305F1040E4E
:1017200000268EE8460001212CF800101F202E61B3
:101730002B62697600F0E2F80221C0F2080120462F
:101740002E7600F0A9F8002070BD00002DE9F041D0
:101750000D460121044600F0BDF8022D06D0012DF2
:1017600008D1204600F070F804E000BF20460421B4
:1017700000F092F840F61440C2F200002C2104FB65
:101780000108D8F81020D8E9021002448A4238BF74
:10179000114688420ED208F104064F42451E00BF92
:1017A000306828444178204600F08CF801357819DB
:1017B0000130F5D11F2000F0A1F8002220460221BF
:1017C00088F81820BDE8F04100F066B840F200113A
:1017D0000001C4F2010108587047000040F2801176
:1017E000C001C4F2010108587047000040F28C119A
:1017F000C001C4F2010108587047000040F2041112
:101800000001C4F2010108587047000040F20811BD
:101810000001C4F2010108587047000040F248106E
:10182000C4F2010000687047FFF78ABA40F28030C6
:10183000C4F20100016841F002010160016821F079
:10184000020101607047000040F200110001C4F283
:1018500001010A5882F004020A50704740F28031B8
:10186000C4F201010A6883B21A4322EA10400860F8
:101870007047000040F25011C4F201010860704747
:1018800040F24011C4F201010A6883B21A4322EA0D
:10189000104008607047000040F2001C0001C4F2D4
:1018A000010C5CF800308AB21A4322EA11414CF86C
:1018B0000010704740F29012C001C4F201021150B2
:1018C0007047000040F2C012C001C4F20102115082
:1018D0007047000040F2D012C001C4F20102115062
:1018E0007047000040F24C11C4F201010A6883B253
:1018F0001A4322EA104008607047000040F2481185
:10190000C4F201010860704740F6004042F2004115
:10191000C2F20000C0F2F4010160002181800821C0
:101920008171704780B582B0019001984FF47A516F
:10193000484300F003F802B080BD000081B0009081
:10194000FFE70098411E009110B1FFE700BFF8E7E4
:1019500001B07047B0B582B00020002136224FF4AC
:101960007143002400F06EFF0120002136224FF465
:10197000714300F067FF00200021FA224FF4714309
:1019800000F0ECFE00200121FA224FF4714300F038
:10199000E5FEFA20002136224FF4714300F052FF99
:1019A000F920002136224FF4714300F04BFF002054
:1019B0003521FA224FF4714300F0D0FE002034218B
:1019C000FA224FF4714300F0C9FE0325372010219D
:1019D00073224FF6FF730094019500F07DFB4920C0
:1019E000102165224FF6FF730094019500F074FBFF
:1019F0005B20102174224FF6FF730094019500F0D4
:101A00006BFB6D20102120224FF6FF73009401958F
:101A100000F062FB7F20102166224FF6FF730094D6
:101A2000019500F059FB9120102172224FF6FF73AF
:101A30000094019500F050FBA320102165224FF681
:101A4000FF730094019500F047FBB520102171222F
:101A50004FF6FF730094019500F03EFB00203E21FD
:101A600036224FF4714300F0EDFE01203E21362274
:101A70004FF4714300F0E6FE00203E21FA224FF4BD
:101A8000714300F06BFE00203F21FA224FF47143B6
:101A900000F064FEFA203E2136224FF4714300F03C
:101AA000D1FEF9203E2136224FF4714300F0CAFEE8
:101AB00000207321FA224FF4714300F04FFE002002
:101AC0007221FA224FF4714300F048FE0A204E21A1
:101AD00063224FF6FF730094019500F0FDFA1C207D
:101AE0004E2168224FF6FF730094019500F0F4FA3E
:101AF0002E204E2161224FF6FF730094019500F0D5
:101B0000EBFA40204E216E224FF6FF7300940195B0
:101B100000F0E2FA52204E216E224FF6FF7300943D
:101B2000019500F0D9FA64204E2165224FF6FF732B
:101B30000094019500F0D0FA76204E216C224FF6E9
:101B4000FF730094019500F0C7FA88204E2173229C
:101B50004FF6FF730094019500F0BEFA9A204E21D3
:101B600020224FF6FF730094019500F0B5FAAC20E7
:101B70004E2163224FF6FF730094019500F0ACFAFA
:101B8000BE204E2174224FF6FF730094019500F0A1
:101B9000A3FAD0204E2172224FF6FF7300940195D4
:101BA00000F09AFAE2204E216C224FF6FF73009467
:101BB000019500F091FA00207C2136224FF4714308
:101BC00000F040FE01207C2136224FF4714300F0EA
:101BD00039FE00207C21FA224FF4714300F0BEFD53
:101BE00000207D21FA224FF4714300F0B7FDFA2066
:101BF0007C2136224FF4714300F024FEF9207C2131
:101C000036224FF4714300F01DFE0020B121FA226C
:101C10004FF4714300F0A2FD0020B021FA224FF4EE
:101C2000714300F09BFD0A208C2173224FF6FF7355
:101C30000094019500F050FA1C208C2163224FF68D
:101C4000FF730094019500F047FA2E208C21612249
:101C50004FF6FF730094019500F03EFA40208C216E
:101C60006E224FF6FF730094019500F035FA522072
:101C70008C2120224FF6FF730094019500F02CFA7E
:101C800064208C2170224FF6FF730094019500F0C0
:101C900023FA76208C2172224FF6FF73009401956F
:101CA00000F01AFA88208C216F224FF6FF730094FF
:101CB000019500F011FA9A208C2170224FF6FF73E3
:101CC0000094019500F008FAAC208C2165224FF6B3
:101CD000FF730094019500F0FFF9BE208C21722261
:101CE0004FF6FF730094019500F0F6F9D0208C2197
:101CF00074224FF6FF730094019500F0EDF9E22095
:101D00008C2179224FF6FF730094019500F0E4F9DD
:101D10000020BA2136224FF4714300F093FD0120D8
:101D2000BA2136224FF4714300F08CFD0020BA2115
:101D3000FA224FF4714300F011FD0020BB21FA227A
:101D40004FF4714300F00AFDFA20BA2136224FF415
:101D5000714300F077FDF920BA2136224FF4714328
:101D600000F070FD0020EF21FA224FF4714300F0E3
:101D7000F5FC0020EE21FA224FF4714300F0EEFC56
:101D80000A20CA2161224FF6FF730094019500F0EA
:101D9000A3F91C20CA216D224FF6FF730094019510
:101DA00000F09AF92E20CA2170224FF6FF7300949A
:101DB000019500F091F94020CA216C224FF6FF7383
:101DC0000094019500F088F95220CA2120224FF694
:101DD000FF730094019500F07FF96420CA217022FE
:101DE0004FF6FF730094019500F076F97620CA2132
:101DF00072224FF6FF730094019500F06DF9882070
:101E0000CA216F224FF6FF730094019500F064F928
:101E10009A20CA2170224FF6FF730094019500F0BA
:101E20005BF9AC20CA2165224FF6FF73009401953F
:101E300000F052F9BE20CA2172224FF6FF730094BF
:101E4000019500F049F9D020CA2174224FF6FF73A2
:101E50000094019500F040F9E220CA2179224FF662
:101E6000FF730094019500F037F94FF488700D214D
:101E70004FF0FF324FF4714300F00CF84FF48870CC
:101E8000BD2101224FF4714302B0BDE8B04000F023
:101E900001B800002DE9F04F83B087B28CB29B46A9
:101EA00092460E4605463846214626224FF6FF73D7
:101EB0004FF6FF7800F0C6FC3846214626224FF642
:101EC000FF7300F04BFC06F1260081B23846262253
:101ED0004FF6FF7300F042FC05F1260080B2214668
:101EE00026224FF6FF7300F0ADFC681C711C80B217
:101EF00089B22522252302900191CDF800B000F08F
:101F0000F5FC05F1130006F113014FEA0A1987B237
:101F10008CB23846214601224B46CDF8008000F0B5
:101F200073FDCAEBCA083846214601224346CDF864
:101F300000B000F069FD384621464FF0FF324B46B5
:101F40004FF6FF79CDF8009000F05EFD384621464F
:101F50004FF0FF324346CDF800B000F055FD0422AB
:101F60001AF1010108BF0C2205F1100032441823B8
:101F7000002991B280B24FF0060208BF1423CDF8B9
:101F8000009000F0B3FCDDE9014007222146252343
:101F9000CDF800B000F0AAFC05F11F0080B2214688
:101FA00007222523CDF800B000F0A0FC03B0BDE867
:101FB000F08F0000F0B581B0C0EB40176FF03D002E
:101FC00000EB47050C46AEB20020314636222346D0
:101FD00000F038FC012031463622234600F032FC66
:101FE00000203146FA22234600F0B8FB6FF03C0097
:101FF00000EB470081B20020FA22234600F0AEFB3E
:10200000FA2031463622234600F01CFCF9203146E6
:102010003622234600F016FC6FF0080000EB470064
:1020200081B20020FA22234600F098FB6FF00900ED
:1020300000EB470081B20020FA22234600F08EFB1D
:10204000284601B0F0BD000080B584B0ADF80E00A8
:1020500040F25800C2F200000088411E40F25600D3
:10206000C2F20000008801388AB283B200210191D7
:10207000084600F0B1FE0198ADF80C00FFE7BDF88E
:102080000C0040F25801C2F200010988884220DAAF
:10209000FFE70020ADF80A00FFE7BDF80A0040F2B4
:1020A0005601C2F20001098888420BDAFFE7BDF849
:1020B0000E0000F025FEFFE7BDF80A000130ADF884
:1020C0000A00EAE7FFE7BDF80C000130ADF80C00AC
:1020D000D5E704B080BD00002DE9F04F93B01D4658
:1020E00040F25803C2F200031B8807469842129040
:1020F000119180F22F8340F25600C2F20000008856
:102100001199814280F226831D9F129907EB4700A7
:1021100001EB40010129C0F21D83119901EBC701B8
:102120000129C0F217831C9E4100AE4202EB820BD4
:1021300040F08E80012F40F06782119842F686743D
:10214000C31D00F1010C00F1020E00F10308051D92
:10215000411D821D98B20D9090B2C0F600041090FF
:1021600088B25C4400270F90A8B21FFA88F51FFAC6
:102170008EF91FFA8CFA0E9006E000BF4FFA88F035
:10218000B0F1FF3F5CDD0137052F00F0E38214F86A
:1021900007805FEAC870129807EB000B12D15FEA64
:1021A000887019D45FEA48701FD45FEA087025D49C
:1021B0005FEAC8602BD45FEA886031D45FEA486088
:1021C000DCD536E011991FFA8BF089B2324600F067
:1021D00019FB5FEA8870E5D51FFA8BF0514632464D
:1021E00000F010FB5FEA4870DFD51FFA8BF049461C
:1021F000324600F007FB5FEA0870D9D51FFA8BF072
:102200002946324600F0FEFA5FEAC860D3D50E993F
:102210001FFA8BF0324600F0F5FA5FEA8860CDD500
:102220000F991FFA8BF0324600F0ECFA5FEA486033
:10223000A4D510991FFA8BF0324600F0E3FA9DE71F
:102240000D991FFA8BF0324600F0DCFA9BE700BFD5
:10225000119842F686793A18431C0F9302EB470314
:102260000A9300EB8703089302EB870306930B188E
:10227000811DC0F60009059109EB0B0110910F9922
:1022800000EB470489B20C94841C0F9191B20E911B
:10229000A1B20D910C9900F1030889B20C911FFABB
:1022A00088F10B910A9900F1040A89B20A911FFA88
:1022B0008AF10991089900F1050C89B208911FFA79
:1022C0008CF107910699C7EBC70E89B20691059963
:1022D0008644073089B280B2059199B203901FFA03
:1022E0008EF04FF0000B4FF00009049102901CE0BB
:1022F00003991FFA88F0324600F084FA09F10109C7
:10230000B9F1060FBB4410D124E200BF02991FFAB5
:102310008AF03A463B46009600F0E8FA09F10109D6
:10232000B9F1060FBB4400F01582B9F1050F07D1D2
:10233000129800240BEB000A09EB00080AE000BF2A
:102340001098129910F809400BEB010AE00709EB0D
:10235000010823D1012F15D111991FFA88F089B2F4
:10236000324600F04FFAA00740F1C080012F23D180
:102370000F991FFA88F02A4600F044FA600700F12E
:10238000CC8024E011991FFA8AF089B23A463B4684
:10239000009600F0ABFAA007E8D4A7E0012F40F0C8
:1023A000998011991FFA88F089B22A4600F02AFA1A
:1023B000A00740F19B80D9E70E991FFA8AF03A46B0
:1023C0003B46009500F092FA600700F1A680012FCD
:1023D0000AD10D991FFA88F0324600F013FA20074F
:1023E00000F1B1800BE000BF0C991FFA8AF03A4669
:1023F0003B46009600F07AFA200700F1A480012FF6
:102400000AD10B991FFA88F0324600F0FBF9E0067A
:1024100000F1AF800BE000BF0A991FFA8AF03A463C
:102420003B46009600F062FAE00600F1A280012F20
:102430000AD109991FFA88F0324600F0E3F9A006A4
:1024400000F1AD800BE000BF08991FFA8AF03A4610
:102450003B46009600F04AFAA00600F1A080012F4A
:102460000AD107991FFA88F0324600F0CBF96006CE
:1024700000F1AB800BE000BF06991FFA8AF03A46E4
:102480003B46009600F032FA600600F19E80012F74
:1024900004D105991FFA88F032469CE004991FFA8E
:1024A0008AF03A463B46009600F020FA60B2B0F15E
:1024B000FF3F00F39780012F04D103991FFA88F0A2
:1024C0002A4619E702991FFA8AF03A463B460095D8
:1024D00022E700BF11991FFA8AF089B23A463B46BB
:1024E000009500F003FAA0073FF540AF012F09D196
:1024F0000F991FFA88F0324600F084F960077FF5E3
:1025000066AF0AE00E991FFA8AF03A463B460096FB
:1025100000F0ECF960077FF55AAF012F08D10D9953
:102520001FFA88F02A4600F06DF920070BD466E701
:102530000C991FFA8AF03A463B46009500F0D6F90E
:1025400020077FF55CAF012F08D10B991FFA88F0A7
:102550002A4600F057F9E0060BD468E70A991FFAFB
:102560008AF03A463B46009500F0C0F9E0067FF558
:102570005EAF012F08D109991FFA88F02A4600F0B2
:1025800041F9A0060BD46AE708991FFA8AF03A4687
:102590003B46009500F0AAF9A0067FF560AF012F39
:1025A00008D107991FFA88F02A4600F02BF9600637
:1025B0000BD46CE706991FFA8AF03A463B46009521
:1025C00000F094F960067FF562AF012F0ED10599F6
:1025D0001FFA88F02A4600F015F960B2B0F1FF3F0B
:1025E0007FF769AF012F7FF491AE81E604991FFA5E
:1025F0008AF03A463B46009500F078F960B2B0F1B7
:10260000FF3FEFDC57E700BF1198C7EBC704231863
:102610003A1800EB470C00EB8708014498B202EB34
:1026200087090B9088B210901FFA89F002EB470ED1
:1026300042F686740F901FFA88F0C0F600040E90E0
:102640001FFA8EF05C4400250D901FFA8CF01FFAE3
:1026500082FB4FF000080C9008E000BF4FFA8AF0B0
:10266000B0F1FF3F6CDD08F101083D44B8F1050F02
:1026700070D014F808A05FEACA70129805EB000940
:1026800012D15FEA8A701BD45FEA4A7023D45FEAF2
:102690000A702BD45FEACA6033D45FEA8A603BD405
:1026A0005FEA4A60DAD542E011991FFA89F089B2EF
:1026B0003A463B46009600F019F95FEA8A70E3D586
:1026C0001FFA89F059463A463B46009600F00EF94B
:1026D0005FEA4A70DBD50C991FFA89F03A463B460F
:1026E000009600F003F95FEA0A70D3D50D991FFA3E
:1026F00089F03A463B46009600F0F8F85FEACA6077
:10270000CBD50E991FFA89F03A463B46009600F069
:10271000EDF85FEA8A60C3D50F991FFA89F03A464F
:102720003B46009600F0E2F85FEA4A6096D51099C1
:102730001FFA89F03A463B46009600F0D7F88DE73D
:102740000B991FFA89F03A463B46009600F0CEF806
:1027500089E700BF13B0BDE8F08F000080B582B0FC
:10276000ADF80600ADF80410ADF80220ADF8003069
:10277000BDF8060040F25801C2F200010988884203
:102780000ADAFFE7BDF8040040F25601C2F2000188
:102790000988884201DBFFE731E0BDF80600BDF89B
:1027A00002100844013840F25801C2F200010988C1
:1027B00088420BDBFFE740F25800C2F200000088BD
:1027C000BDF80610401AADF80200FFE7BDF806009C
:1027D000BDF80430BDF80210014401398AB219462F
:1027E00000F0FAFAFFE7BDF80200411EADF8021052
:1027F00028B1FFE7BDF8000000F082FAF3E702B06D
:1028000080BD000080B582B0ADF80600ADF80410C0
:10281000ADF80220BDF80600BDF80410421C4B1CA8
:1028200092B29BB200F0D8FABDF8020000F068FA4C
:10283000BDF8020000F064FABDF8020000F060FA92
:1028400002B080BD80B582B0ADF80600ADF80410CE
:10285000ADF80220ADF80030BDF8060040F2580196
:10286000C2F20001098888420ADAFFE7BDF80400D5
:1028700040F25601C2F200010988884201DBFFE7FD
:1028800031E0BDF80400BDF802100844013840F200
:102890005601C2F20001098888420BDBFFE740F2D3
:1028A0005600C2F200000088BDF80410401AADF8CE
:1028B0000200FFE7BDF80620BDF80410BDF80200D5
:1028C0000844013883B2104600F086FAFFE7BDF8ED
:1028D0000200411EADF8021028B1FFE7BDF800006C
:1028E00000F00EFAF3E702B080BD000080B584B0BE
:1028F00084460698ADF80EC0ADF80C10ADF80A206D
:10290000ADF80830ADF80600BDF80E0040F25801F1
:10291000C2F20001098888420ADAFFE7BDF80C001C
:1029200040F25601C2F200010988884201DBFFE74C
:1029300067E0BDF80E00BDF80A100844013840F207
:102940005801C2F20001098888420BDBFFE740F220
:102950005800C2F200000088BDF80E10401AADF811
:102960000A00FFE7BDF80C00BDF808100844013864
:1029700040F25601C2F20001098888420BDBFFE7F2
:1029800040F25600C2F200000088BDF80C10401A58
:10299000ADF80800FFE7BDF80E00BDF80C10BDF85B
:1029A0000A200244013ABDF808300B44013B92B2C0
:1029B0009BB200F011FABDF80800ADF80C00FFE77B
:1029C000BDF80C0001281CDBFFE7BDF80A00ADF8DC
:1029D0000E00FFE7BDF80E0001280BDBFFE7BDF896
:1029E000060000F08DF9FFE7BDF80E000138ADF8E4
:1029F0000E00EFE7FFE7BDF80C000138ADF80C0062
:102A0000DEE704B080BD000080B586B0844608983B
:102A1000ADF816C0ADF8141004920393ADF80A0097
:102A2000FFE70398B0B3FFE7039801280EDBFFE749
:102A3000BDF81600BDF81410BDF80C20BDF80A3022
:102A4000FFF700FF03980138039010E0BDF816006F
:102A5000BDF81410039A11445242BDF80A3089B2ED
:102A600092B2FFF7EFFE039801300390FFE704985E
:102A7000B0F1FF3F05DCFFE7BDF81600013801901B
:102A800004E0BDF8160001300190FFE70198ADF8B1
:102A90001600C6E706B080BD80B584B00020C4F241
:102AA0000B00019080210291FDF7CAFDC820039020
:102AB000FEF738FF01980299FDF7BCFD0398FEF779
:102AC00031FF01980299FDF7BBFD0398FEF72AFF3D
:102AD00004B080BD80B590B0FFF7DEFF012001900B
:102AE00000F0B0F94FF47A70FEF71CFFCB2000F035
:102AF000A9F9392000F0D2F92C2000F0CFF90020FC
:102B0000039000F0CBF9342000F0C8F9022000F067
:102B1000C5F9CF2000F096F9039800F0BFF9C12065
:102B2000079000F0BBF9302000F0B8F9E82000F081
:102B300089F9852000F0B2F9039800F0AFF9782008
:102B40000F9000F0ABF9EA2000F07CF9039800F058
:102B5000A5F9039800F0A2F9ED2000F073F96420C4
:102B600000F09CF90320059000F098F9122000F085
:102B700095F9812000F092F9F72000F063F9202008
:102B800000F08CF9C02000F05DF9232000F086F9F8
:102B9000079800F057F91020029000F07FF9C52047
:102BA00000F050F93E2000F079F9282000F076F985
:102BB000C72000F047F9862000F070F936200C900D
:102BC00000F040F94820089000F068F93A2000F041
:102BD00039F9552000F062F9B12000F033F903987B
:102BE00000F05CF9182000F059F9B62000F02AF93D
:102BF0000820099000F052F9822000F04FF92720B8
:102C000000F04CF9F22000F01DF9039800F046F9AD
:102C1000262000F017F9019800F040F9E02000F0BC
:102C200011F90F200D9000F039F931200B9000F0D0
:102C300035F92B2000F032F90C200A9000F02EF923
:102C40000E20049000F02AF9099800F027F94E2090
:102C500000F024F9F12000F021F9372000F01EF9EE
:102C60000720069000F01AF9029800F017F905986D
:102C700000F014F9049800F011F9092000F00EF9A1
:102C8000039800F00BF9E12000F0DCF8039800F065
:102C900005F9049800F002F9142000F0FFF80598F7
:102CA00000F0FCF811200E9000F0F8F8069800F003
:102CB000F5F80B9800F0F2F8079800F0EFF8089894
:102CC00000F0ECF8099800F0E9F80D9800F0E6F84B
:102CD0000A9800F0E3F80B9800F0E0F80C9800F088
:102CE000DDF80D9800F0DAF80E9800F0ABF80F98C8
:102CF000FEF718FE292000F0A5F810B080BD0000F6
:102D000080B582B0ADF806009DF8070000F0C6F867
:102D10009DF8060000F0C2F802B080BD80B582B018
:102D20008DF80700362000F08DF89DF8070000F0C0
:102D300003008DF806009DF8060001460091032867
:102D400048D80099DFE801F002132435482000F04C
:102D5000A5F840F25801C2F200014FF4A0700880BB
:102D600040F25601C2F20001F020088032E0282033
:102D700000F094F840F25801C2F200014FF4A07044
:102D8000088040F25601C2F20001F020088021E0E4
:102D9000882000F083F840F25801C2F20001F020D0
:102DA000088040F25601C2F200014FF4A070088082
:102DB00010E0E82000F072F840F25801C2F2000181
:102DC0004FF4A070088040F25601C2F20001F020DA
:102DD0000880FFE702B080BD80B582B0ADF8060084
:102DE000ADF80410ADF80220ADF800302A2000F054
:102DF00029F89DF8070000F051F89DF8060000F052
:102E00004DF89DF8030000F049F89DF8020000F02D
:102E100045F82B2000F016F89DF8050000F03EF86C
:102E20009DF8040000F03AF89DF8000000F036F834
:102E30009DF8000000F032F82C2000F003F802B0FA
:102E400080BD000081B08DF803000021C4F20B01A9
:102E5000086820F04000086048F20001C4F20E014A
:102E6000086820F0040008609DF803000821C4F2FF
:102E700004010860FFE70C20C4F204000068C006EB
:102E8000002801D5FFE7F6E748F20001C4F20E0181
:102E9000086840F00400086001B0704781B08DF808
:102EA00003000021C4F20B01086840F040000860F4
:102EB00048F20001C4F20E01086820F00400086026
:102EC0009DF803000821C4F204010860FFE70C200C
:102ED000C4F204000068C006002801D5FFE7F6E749
:102EE00048F20001C4F20E01086840F004000860D6
:102EF00001B07047FDF794FCFEF706FD40F6C440B4
:102F0000C2F20000012101220124FDF76FFEFDF74E
:102F1000F7FCFDF7A3FCFDF717FD0020002140F2B0
:102F20003F12EF23FFF758FF72B672B60020FFF78B
:102F30008BF8FEF70FFD00BF4FF48870BD21012212
:102F40004FF46763FEF7A6FF20464FF47141651CFE
:102F5000FFF730F8052D08BF012528464FF46761BB
:102F6000FFF728F86420FEF7DDFC4FF48870BD21E0
:102F700001224FF47143FEF78DFF4FF47A70FEF794
:102F8000D1FC2C46D8E700000000003E5B4F5B3EC2
:102F90003E6B4F6B3E1C3E7C3E1C183C7E3C181C1E
:102FA000577D571C1C5E7F5E1C00183C1800FFE715
:102FB000C3E7FF0018241800FFE7DBE7FF30483ABB
:102FC000060E2629792926407F050507407F05251D
:102FD0003F5A3CE73C5A7F3E1C1C08081C1C3E7FA5
:102FE00014227F22145F5F005F5F06097F017F006C
:102FF0006689956A606060606094A2FFA29408048C
:103000007E040810207E201008082A1C08081C2AAC
:1030100008081E101010100C1E0C1E0C30383E3804
:1030200030060E3E0E06000000000000005F0000AB
:103030000007000700147F147F14242A7F2A12231C
:103040001308646236495620500008070300001C2C
:103050002241000041221C002A1C7F1C2A08083E35
:103060000808008070300008080808080000606048
:103070000020100804023E5149453E00427F4000B6
:1030800072494949462141494D331814127F10278E
:10309000454545393C4A49493141211109073649DD
:1030A000494936464949291E0000140000004034B1
:1030B00000000008142241141414141400412214B6
:1030C0000802015909063E415D594E7C1211127CDD
:1030D0007F494949363E414141227F4141413E7F3E
:1030E000494949417F090909013E414151737F081E
:1030F00008087F00417F41002040413F017F0814C4
:1031000022417F404040407F021C027F7F04081024
:103110007F3E4141413E7F090909063E4151215E02
:103120007F09192946264949493203017F01033F96
:103130004040403F1F2040201F3F4038403F631425
:1031400008146303047804036159494D43007F4127
:1031500041410204081020004141417F0402010264
:103160000440404040400003070800205454784089
:103170007F284444383844444428384444287F381D
:103180005454541800087E090218A4A49C787F089F
:1031900004047800447D40002040403D007F10281A
:1031A000440000417F40007C047804787C080404DB
:1031B000783844444438FC1824241818242418FC73
:1031C0007C08040408485454542404043F44243C18
:1031D0004040207C1C2040201C3C4030403C442887
:1031E0001028444C9090907C4464544C4400083621
:1031F000410000007700000041360800020102048F
:10320000023C2623263C1EA1A161123A4040207AAE
:1032100038545455592155557941225454784221F6
:103220005554784020545579400C1E52721239552D
:10323000555559395454545939555454580000452A
:103240007C410002457D420001457C407D12111207
:103250007DF0282528F07C545545002054547C549A
:103260007C0A097F4932494949323A4444443A3256
:103270004A4848303A4141217A3A42402078009DFC
:10328000A0A07D3D4242423D3D4040403D3C24FFA8
:103290002424487E4943662B2FFC2F2BFF0929F657
:1032A00020C0887E090320545479410000447D41A8
:1032B0003048484A32384040227A007A0A0A727D01
:1032C0000D19317D2629292F28262929292630481C
:1032D0004D4020380808080808080808382F10C88A
:1032E000ACBA2F102834FA00007B000008142A140E
:1032F0002222142A1408AA005500AAAA55AA55AADF
:10330000000000FF00101010FF00141414FF001044
:1033100010FF00FF1010F010F0141414FC0014142F
:10332000F700FF0000FF00FF1414F404FC1414174E
:10333000101F10101F101F1414141F00101010F075
:10334000000000001F101010101F10101010F010BF
:10335000000000FF101010101010101010FF1000CF
:103360000000FF140000FF00FF00001F1017000006
:10337000FC04F414141710171414F404F40000FFE0
:1033800000F714141414141414F700F71414141779
:103390001410101F101F141414F4141010F010F057
:1033A00000001F101F0000001F14000000FC14008C
:1033B00000F010F01010FF10FF141414FF14101080
:1033C000101F00000000F010FFFFFFFFFFF0F0F003
:1033D000F0F0FFFFFF0000000000FFFF0F0F0F0FD6
:1033E0000F3844443844FC4A4A4A347E02020606F6
:1033F000027E027E0263554941633844443C0440E6
:103400007E201E2006027E020299A5E7A5991C2AAD
:10341000492A1C4C7201724C304A4D4D303048786C
:103420004830BC625A463D3E494949007E0101018F
:103430007E2A2A2A2A2A44445F444440514A44406E
:1034400040444A51400000FF0103E080FF000008B3
:10345000086B6B083612362436060F090F0600007B
:1034600018180000001010003040FF0101001F017B
:10347000011E00191D1712003C3C3C3C00000000DE
:1034800000000000A43400080000002060000000DC
:10349000FC0000080435000800040020C869000092
:1034A000180100081201100102000040830425F1F8
:1034B00000000000000109024300020100803209FF
:1034C000040000010202010005240010010524018E
:1034D00000010424020605240600010705820340BA
:1034E000000209040100020A0000000705810240F1
:1034F00000000705030240000000F000400100004A
:0435000000127A003B
:040000050800015D91
:00000001FF
