:020000040800F2
:10000000506E00205D0100086501000867010008CE
:10001000690100086B0100086D0100080000000084
:100020000000000000000000000000006F01000858
:10003000710100080000000073010008750100084C
:1000400077010008770100089122000800000000F5
:1000500000000000F504000877010008770100089F
:100060007701000800000000770100087701000810
:100070007701000800000000770100087701000800
:1000800077010008770100080000000077010008F0
:1000900077010008000000000000000000000000E0
:1000A00000000000000000000000000077010008D0
:1000B0007701000877010008770100087701000840
:1000C00000F002F800F03AF80AA090E8000C824430
:1000D0008344AAF10107DA4501D100F02FF8AFF20D
:1000E000090EBAE80F0013F0010F18BFFB1A43F016
:1000F000010318478C380000AC380000103A24BFC8
:1001000078C878C1FAD8520724BF30C830C144BF7C
:1001100004680C60704700000023002400250026BE
:10012000103A28BF78C1FBD8520728BF30C148BF5A
:100130000B6070471FB51FBD10B510BD00F0ACF8C7
:100140001146FFF7F7FF03F005F900F0CAF803B412
:10015000FFF7F2FF03BC00F0CDF80000094880472C
:1001600009480047FEE7FEE7FEE7FEE7FEE7FEE799
:10017000FEE7FEE7FEE7FEE704480549054A064BB1
:1001800070470000110F0008C1000008500E002049
:10019000506E0020502E0020502E0020032A40F2E6
:1001A000308010F0030C00F0158011F8013BBCF119
:1001B000020F624498BF11F801CB00F8013B38BF31
:1001C00011F8013BA2F1040298BF00F801CB38BF3F
:1001D00000F8013B11F0030300F02880083AC0F05A
:1001E000088051F8043B083A51F804CBA0E8081005
:1001F000F5E7121D5CBF51F8043B40F8043BAFF338
:100200000080D20724BF11F8013B11F801CB48BF91
:1002100011F8012B24BF00F8013B00F801CB48BFC7
:1002200000F8012B704770477047704710B5203AAF
:10023000C0F00B80B1E81850A0E81850B1E8185091
:10024000A0E81850203ABFF4F5AF5FEA027C24BF63
:10025000B1E81850A0E8185044BF18C918C0BDE84C
:1002600010405FEA827C24BF51F8043B40F8043B15
:1002700008BF7047D20728BF31F8023B48BF11F8CA
:10028000012B28BF20F8023B48BF00F8012B704724
:1002900000487047000400207546FFF7F9FFAE469E
:1002A00005006946534620F00700854618B020B582
:1002B000FFF762FFBDE820404FF000064FF0000757
:1002C0004FF000084FF0000BAC46ACE8C009ACE8BA
:1002D000C009ACE8C009ACE8C00921F007018D46AF
:1002E000704710B50446AFF300802046BDE81040CB
:1002F000FFF72DBF01491820ABBEFEE72600020024
:100300007047000082B0019000910198007A0328A4
:1003100005D1FFE7019800680099086009E0019A9B
:10032000106851690139127A9140084400990860B7
:10033000FFE70198007C042806D1FFE70198406898
:100340000C300099486014E00198407A032805D1E8
:10035000FFE7019840680099486009E0019A5068F9
:1003600051690139527A9140084400994860FFE789
:10037000FFE701990A7A4B7AC86840EA837040EA3D
:1003800082600A6A1043CA6910438A6910434B6944
:100390006FF00F0202EB03121043097C084300992F
:1003A000886002B07047000080B584B08DF80F00FF
:1003B0008DF80E1002929DF80E0060B9FFE70298CA
:1003C0009DF80F2040F60001C2F2000101EB02117E
:1003D000FFF798FF0EE048F20C00C4F2020000683C
:1003E0009DF80F1000EB0110019002980199FFF7A2
:1003F00089FFFFE704B080BD82B08DF806008DF85C
:1004000005109DF80500013801460091072868D8BD
:100410000099DFE801F0040E1825323F4C5948F2EC
:100420000000C4F20200006800F001008DF807002F
:100430005BE048F24C00C4F20200016801208843EE
:100440008DF8070051E048F22800C4F2020000686D
:100450009DF80610C84000F001008DF8070044E048
:1004600048F22000C4F2020000689DF80610C8405F
:1004700000F001008DF8070037E048F21000C4F2E8
:10048000020000689DF80610C84000F001008DF8D9
:1004900007002AE048F21800C4F2020000689DF844
:1004A0000610C84000F001008DF807001DE048F27A
:1004B0003000C4F2020000689DF80610C84000F049
:1004C00001008DF8070010E048F23800C4F2020085
:1004D00000689DF80610C84000F001008DF8070084
:1004E00003E000208DF80700FFE79DF8070002B049
:1004F0007047000080B50B200721FFF77DFF48B94A
:10050000FFE740F61442C2F200020B200121FFF780
:100510004BFF08E040F63842C2F200020B200021F7
:10052000FFF742FFFFE780BD80B58CB00A900991CC
:10053000002008900790ADF81A00ADF8180000F000
:10054000B7F840B9FFE70A990020088009990880A8
:100550008DF82F00A7E000200590FFE705983F28C1
:100560005CDCFFE7D02002F007FEADF81200BDF81A
:1005700012100020B1F5FA6F02900ADDFFE7BDF816
:10058000121047F2305200209142B8BF0120029071
:10059000FFE7029800F001008DF81100BDF812008D
:1005A0009DF81110079A00FB012007909DF811108B
:1005B000BDF818000844ADF81800902002F0DCFDEA
:1005C000ADF80E00BDF80E10002040F6C5129142A5
:1005D00001900ADBFFE7BDF80E1047F61812002065
:1005E0009142B8BF01200190FFE7019800F001009F
:1005F0008DF80D00BDF80E009DF80D10089A00FB57
:10060000012008909DF80D10BDF81A000844ADF8BF
:100610001A00FFE70598013005909FE70798BDF89D
:100620001810B0FBF1F007900898BDF81810B0FB57
:10063000F1F008900798A0F5FA60642250434EF656
:100640001B41C9F2CB51A0FB0101880B0001A0EBBB
:100650009130000148F21F51C5F2EB11A0FB0130AF
:1006600040090790089842F67073CFF6FC7300FBC0
:100670000230800846F2DB42C1F26522A0FB022074
:10068000400A00EB80008001A0FB011040090890A7
:100690000898C0F5A0700A9908800798C0F1F0008A
:1006A00009990880FFE79DF82F000CB080BD00007D
:1006B00080B582B00020C4F20B004FF4007100F04E
:1006C000EBF820B1FFE700208DF8070003E00120E0
:1006D0008DF80700FFE79DF8070002B080BD00001D
:1006E00081B08DF803009DF9031001F01F02012075
:1006F00090404A094EF28011CEF2000141F82200EA
:1007000001B0704781B08DF803009DF9031001F02E
:100710001F02012090404A094EF20011CEF2000162
:1007200041F8220001B0704781B08DF803009DF9B7
:10073000031001F01F02012090404A094EF20011FF
:10074000CEF2000141F8220001B070478EB00D904A
:100750000C910D9840680B900D9880680A900D9848
:10076000C06809900D98006908900D98406907903D
:100770000D98806906900D98C0690590002003903F
:1007800001200290032001904FF0011000900C987E
:1007900000880490FFE70498002865D0FFE79DF8E3
:1007A0001000C00700284ED0FFE70B98029988433D
:1007B0000C998978039A914008430B900A98019903
:1007C00088430C99097A039A5200914008430A9091
:1007D0000998029988430C99897A039A91400843B1
:1007E00009900898009988430C99039A02F1100C1B
:1007F000CB78097903FA0CF3184391400843089029
:100800000798009988430C99039A02F1100C4B79D0
:10081000897903FA0CF3184391400843079006982E
:10082000019988430C99497A039A520091400843F0
:1008300006900598029988430C99C979039A9140CA
:1008400008430590FFE7029840000290019880005D
:100850000190009840000090039801300390FFE75A
:1008600004984008049096E70B980D9948600A9800
:100870000D99886009980D99C86008980D990861CC
:1008800007980D99486106980D99886105980D990A
:10089000C8610EB07047000082B00190ADF8021040
:1008A00001980068BDF80210084204D0FFE701205B
:1008B0008DF8010003E000208DF80100FFE79DF8AE
:1008C000010002B07047000082B001900091009AD0
:1008D000019908689043086002B0704782B00190A7
:1008E000009100980199096808430199086002B0D5
:1008F0007047000081B0009000994FF6FF700880AB
:100900000099002088700099C870009908710099BA
:100910004871009988710099C8710099087200990E
:1009200048720099887201B07047000081B08DF85C
:1009300003009DF803008821C4F24021086001B043
:100940007047000083B08DF80B0001910C21C4F2B8
:10095000020108680090009820F0030000909DF8C4
:100960000B20009810430090009808600421C4F206
:10097000020108680090009820F470600090019ACD
:10098000009840EA02200090009808608820C4F295
:100990004020006840B1FFE78C21C4F240210120D3
:1009A000086000200860FFE703B0704781B08DF851
:1009B00003009DF8030040F28811C4F24021086052
:1009C00001B0704782B08DF807000C21C4F202011B
:1009D00008680090009820F0F00000909DF8072033
:1009E000009840EA021000900098086002B070473A
:1009F00082B0ADF806000C21C4F202010868009034
:100A0000009820F440700090BDF806200098104334
:100A100000900098086002B07047000083B08DF825
:100A20000B009DF80B0000F0E000202806D1FFE746
:100A30000020C4F202000068019006E048F23C0089
:100A4000C4F20D0000680190FFE701989DF80B10BB
:100A500001F01F01C840C00720B1FFE701208DF859
:100A6000030003E000208DF80300FFE79DF803007A
:100A700003B0704782B08DF807000821C4F202016C
:100A8000086820F0030008609DF807000146009107
:100A9000012804D0FFE70098022808D00FE00821C1
:100AA000C4F20201086840F00100086008E0082173
:100AB000C4F20201086840F00300086000E0FFE7AC
:100AC00002B0704780B584B000200390FFE7222079
:100AD000FFF7A4FF8DF80A00039801300390FFE7A9
:100AE00003990020490A0229019007D8FFE79DF8E1
:100AF0000A00B0FA80F040090190FFE70198C007B2
:100B00000028E4D1FFE72220FFF788FF20B1FFE7AC
:100B100001208DF80B0003E000208DF80B00FFE7AB
:100B20009DF80B0004B080BD82B001908DF80310D9
:100B30009DF8030040B1FFE7019A1C21C4F20201B5
:100B400008681043086007E0019A1C21C4F2020102
:100B5000086890430860FFE702B0704783B00290D6
:100B60008DF807102C20C4F2020000680090029853
:100B70000021C4F2040188420ED1FFE7009840F042
:100B800080700090009820F0FF0000909DF8071002
:100B900000980843009016E002980021C4F20A0170
:100BA00088420FD1FFE7009840F000700090009855
:100BB00020F47F4000909DF80710009840EA012043
:100BC0000090FFE7FFE700982C21C4F202010860C3
:100BD00003B0704782B001908DF803109DF80300B8
:100BE00030B1FFE70199486840F00200486006E034
:100BF000019948684FF6FD7210404860FFE702B067
:100C00007047000083B002900191019840880299DA
:100C10000861019AB2F800C051799079D379127ABB
:100C200040EA0C20184410440844009000980299AF
:100C3000086001980179407A084400900098029970
:100C4000486003B07047000081B000900099002018
:100C50000871009A072151710099C8710099887133
:100C600000990872009A0221518000990880009929
:100C7000487201B07047000080B582B00120FFF7D4
:100C8000F9FEFFF71FFF012802D0FFE7FFE7FEE7AD
:100C900002200621FFF756FE01200190FFF746FED5
:100CA0000020FFF78FFE0198FFF780FE4FF4807061
:100CB000FFF79EFE02B080BD80B58CB04FF4887007
:100CC00001210891FFF730FF08994FF00150FFF71D
:100CD0002BFF09A80490FFF70DFE04990898C02285
:100CE000ADF824208DF82600032201928DF82D20E6
:100CF0008DF82E000020C4F20B000390FFF726FDB4
:100D000004990420ADF8240048F20000C4F20E005B
:100D10000290FFF71BFD029B039804991A6842F0AA
:100D200004021A604FF48062ADF82420FFF70EFD34
:100D3000019A0298DDF80CC00499DCF8003043F405
:100D40008063CCF80030ADF8242002228DF82C20EE
:100D5000FFF7FCFC029804990822ADF82420002239
:100D600005928DF82620FFF7F1FC03980499059A67
:100D7000089B8DF82C208DF82E304FF40073ADF8C1
:100D800024308DF82620FFF7E1FC05990020C4F2FD
:100D900004000790FFF7E2FE40F60840C2F20000B0
:100DA0000690FFF751FF06990798FFF72BFF07986A
:100DB0000899FFF70FFF0CB080BD000080B504203C
:100DC0000121FFF7B1FE40F66840C2F200000321A6
:100DD00001700521417040F67441C2F200011022F9
:100DE0008A6020234B600A6000F0DEFB1F2001F0C8
:100DF0000DFB00F00DFC0220FFF796FC00F0F0FA6E
:100E000080BD000080B501F0FFFF002001F00CFD67
:100E10004FF47A7001F02CFB012002F019F980BD2B
:100E200085B00C20C4F2020000688007002806D5B7
:100E3000FFE742F20040C0F2F400049005E041F206
:100E40000020C0F27A000490FFE70C20C4F20200F8
:100E50000068C00720B1FFE7049840080490FFE74E
:100E6000049803900C20C4F2020000684007002898
:100E70000DD5FFE70420C4F202000068C0F3032090
:100E8000013001900199039848430390FFE70C203B
:100E9000C4F202000068C0F301200146009140B195
:100EA000FFE7009801280ED0FFE7009802281CD029
:100EB00023E040F20401C2F2000141F20020C0F23E
:100EC0007A00086021E003980C21C4F2020109684D
:100ED000C1F303110131B0FBF1F00290029840F22E
:100EE0000401C2F2000108600FE040F20401C2F206
:100EF00000014FF40040086007E040F20401C2F234
:100F0000000149F640400860FFE705B07047000067
:100F100080B51C21C4F20201102008600C21C4F22B
:100F20000201002008600421C4F2020108600821C7
:100F3000C4F2020108601021C4F202010860142109
:100F4000C4F2020108601821C4F2020108602021E5
:100F5000C4F2020108602421C4F2020108602821C1
:100F6000C4F2020108602C21C4F202010860FFF7FC
:100F700057FF80BD82B001901021C4F202010868C1
:100F80000090009840F480700090019802780098DA
:100F900010430090009840F0040000900098086012
:100FA0000421C4F2020108680090009840F001009A
:100FB000009001984278009840EA02100090009852
:100FC0000860FFE70020C4F202000068C00708B90B
:100FD000FFE7F7E702B0704780B584B00020ADF8B6
:100FE0000E0040F66A40C2F200004188ADF80C10D5
:100FF0008188ADF80A10C188ADF808104078014624
:101000000191232800F2A8800199DFE801F012166F
:101010001A3456A5A5A5A5A5A5A5A5A5A5A5A5A5CB
:10102000A5A5A5A5A5A5A5A5A5A5A5A5A5A55A74EC
:101030009DA10120ADF80E0092E00120ADF80E0058
:101040008EE0BDF80800022810D1FFE7BDF80820A7
:1010500040F26041C2F2000141F2B513C0F6000354
:10106000002001F013F8ADF80E0003E00220ADF807
:101070000E00FFE774E0BDF80800022818D1FFE772
:101080000120ADF80E00BDF80E0080B9FFE7BDF8F5
:10109000082040F26041C2F2000141F28953C0F6DB
:1010A0000003002000F0BCFFADF80E00FFE703E0F6
:1010B0000220ADF80E00FFE752E00120ADF80E006F
:1010C0004EE0BDF80800072810D1FFE7BDF8082062
:1010D00040F26041C2F2000141F2B513C0F60003D4
:1010E000002000F0D3FFADF80E0003E00220ADF8C1
:1010F0000E00FFE734E0BDF8080007281FD1FFE726
:10110000BDF80A0040F26041C2F2000100F0E2F8CE
:10111000ADF80E00BDF80E0080B9FFE7BDF808205D
:1011200040F26041C2F2000141F28953C0F600036F
:10113000002000F075FFADF80E00FFE703E002208D
:10114000ADF80E00FFE70BE00020ADF80E0007E061
:101150000120ADF80E0003E00120ADF80E00FFE71E
:10116000BDF80E0008BBFFE7BDF80800E8B9FFE7CF
:1011700040F66A40C2F2000000780006002808D558
:10118000FFE70023184619461A4600F07FFF00903B
:1011900007E00023184619461A4600F041FF009068
:1011A000FFE70098ADF80E00FFE7BDF80E0004B0B1
:1011B00080BD000080B586B08DF8170004910392C1
:1011C00040F66A40C2F200004078014601910228D0
:1011D00004D0FFE70198202804D00EE00120ADF8EC
:1011E0000A000EE040F66A40C2F2000080880499CE
:1011F00000F02EF9ADF80A0003E00220ADF80A0075
:10120000FFE7BDF80A0048B9FFE79DF81700002383
:1012100019461A4600F004FF009003E0BDF80A00EA
:101220000090FFE7009880B206B080BD80B586B020
:10123000ADF81600ADF81410ADF8122000200390A0
:10124000ADF806009DF8160020B1FFE70120ADF8CB
:10125000060020E0BDF81600000A014600910128B2
:1012600004D0FFE70098022808D00FE040F24B00BE
:10127000C2F200000390122002900BE040F208003E
:10128000C2F2000003904320029003E00120ADF879
:101290000600FFE7FFE7BDF80600B0B9FFE70298D8
:1012A000BDF81210884204D9FFE7BDF81200029081
:1012B000FFE70399029A41F28953C0F60003002028
:1012C00000F0AEFEADF80600FFE7BDF8060006B080
:1012D00080BD000082B0ADF804000091BDF80400AC
:1012E00020B1FFE70220ADF806000CE0009940F6BF
:1012F0000042C2F20002106852684A600860002092
:10130000ADF80600FFE7BDF8060002B07047000028
:1013100080B584B0039002918DF80720039802995C
:1013200000F0B4F840F65C42C2F2000200201081E6
:101330009DF80710B1FA81F149094902518104B0C1
:1013400080BD000080B584B08DF80D00029101923F
:101350000298019900F02EF8ADF80200BDF80200E5
:1013600040B1FFE740F65C41C2F200014FF400706B
:101370004881FFE740F65C40C2F20000408980B936
:10138000FFE740F65C40C2F200000168426841F2AB
:101390004533C0F60003032000F078FEADF80E00E0
:1013A00003E00020ADF80E00FFE7BDF80E0004B02A
:1013B00080BD000080B582B001900091019940F697
:1013C000CC50C2F200008022FEF7E8FE40F6C05189
:1013D000C2F2000101200860002002B080BD0000C0
:1013E00080B584B000F020F9ADF80E00BDF80E0015
:1013F00050BBFFE7012001900521009100220292DD
:1014000000F098FB0099029A022000F093FB0199EA
:10141000029A032000F08EFB40F65C40C2F200000E
:10142000408980B9FFE740F65C40C2F200000168E5
:10143000426841F24533C0F60003032000F026FE67
:10144000ADF80E00FFE7FFE7BDF80E0004B080BD69
:1014500082B0ADF804000091BDF8040020B1FFE7B0
:101460000220ADF806000CE0009908684A6840F6D2
:101470000041C2F200014A6008600020ADF8060099
:10148000FFE7BDF8060002B07047000082B001908F
:101490000091019840F65C41C2F20001086000989A
:1014A0004860002002B0704780B582B08DF805001A
:1014B000ADF80210ADF800209DF8050002280BD110
:1014C000FFE7BDF8020038B9FFE79DF8000000F023
:1014D000FFFAADF8060003E00120ADF80600FFE7D3
:1014E000BDF8060002B080BD80B584B00020ADF824
:1014F00006000220FFF7F4F840F68C40C2F200002C
:101500000068E8BBFFE740F68C41C2F20001012011
:10151000086000F0B7FE02909DF808004007002820
:101520000ED5FFE700F080F8ADF8060040F68040E9
:10153000C2F2000000218160806800F0F5FEFFE744
:1015400000200390FFE7039803280AD8FFE79DF8DF
:101550000C00029900F07EFBFFE703980130039036
:10156000F1E7029820F0010000F068FF40F68C419E
:10157000C2F20001002008600220FFF7C3F8FFE775
:10158000BDF8060004B080BD80B584B08DF80F00B2
:10159000029101929DF80F00002319461A4600F0AF
:1015A00075FD04B080BD000080B584B00390029149
:1015B0000398FFF7DFFC00F06FFE4FF4803000F07F
:1015C0009BFE0298006800F097FE029948688968BF
:1015D000084340F0010000F0B1FE05210022019215
:1015E000104600F0A7FA019840F66A41C2F20001E5
:1015F00041F27D62C0F6000200F0D2FD019840F693
:101600008041C2F200010870886004B080BD000013
:1016100080B50C2000F070FE40F68041C2F200015F
:1016200002200870002080BD40F68041C2F2000117
:10163000032008700020704780B582B08DF8050047
:10164000ADF80210ADF800209DF8050002280CD17D
:10165000FFE7BDF8020040B9FFE79DF80000012157
:1016600000F0B8FAADF8060003E00120ADF806007E
:10167000FFE7BDF8060002B080BD000080B58CB069
:101680008DF82F000A910020ADF824000A98007808
:1016900000F060008DF827000A98007800F08000C4
:1016A0008DF826009DF827000146059150B1FFE70F
:1016B0000598202800F0E281FFE70598402800F017
:1016C000E281E4E1002006900A984088ADF822000B
:1016D0000A988088ADF820000A98C088ADF81E00EE
:1016E0000A98007800F01F008DF81D009DF81D007D
:1016F000042804DBFFE70220ADF82400CBE10A98C0
:101700004078014604910C2800F28F810499DFE8AB
:1017100011F00D0076008C019D008C01C400D400F6
:10172000DF00E30009012801470167019DF8260059
:10173000802817D1FFE740F68040C2F20000007811
:10174000042813D1FFE79DF81D0001280AD0FFE708
:101750009DF81D00022809D1FFE7BDF820000428EC
:1017600004DBFFE70120ADF8240047E00020ADF8DE
:101770002400BDF8240000283FD1FFE79DF81D009C
:101780000146039140B1FFE7039801280BD0FFE722
:10179000039802280ED01DE040F61241C2F200016B
:1017A0000020087017E040F61241C2F2000100204C
:1017B000087010E0BDF8200040F69042C2F200022E
:1017C0002C2100FB0120407840F61241C2F20001BA
:1017D000087000E0FFE740F61241C2F2000100206D
:1017E00048709DF82F0041F28953C0F60003022291
:1017F00000F016FCADF82400FFE7FFE719E140F622
:101800008040C2F200000078042813D1FFE79DF861
:101810001D0001280AD0FFE79DF81D00022809D10C
:10182000FFE7BDF82000042804DBFFE70120ADF846
:1018300024000AE09DF81D00BDF82210BDF820200C
:10184000FFF732FEADF82400FFE7F2E040F68040FB
:10185000C2F200000078042813D1FFE79DF81D00B4
:1018600001280AD0FFE79DF81D00022809D1FFE7F3
:10187000BDF82000042804DBFFE70120ADF82400B8
:101880000AE09DF81D00BDF82210BDF82020FFF7EA
:10189000D3FEADF82400FFE7CBE00020ADF8240034
:1018A000BDF8220040F68041C2F20001886041F696
:1018B000A120C0F600000690BBE0BDF82200BDF8F4
:1018C0002010BDF81E20FFF7B1FCADF82400B0E0F9
:1018D0000120ADF82400ACE040F68040C2F20000E8
:1018E0000078042807D1FFE740F61241C2F2000158
:1018F0000020087006E040F61241C2F2000101200B
:101900000870FFE79DF82F0040F61241C2F2000177
:1019100041F28953C0F60003012200F081FBADF8CB
:10192000240086E0BDF8220038B9FFE740F6804188
:10193000C2F200010420087012E0BDF82200013854
:1019400018BF0120ADF82400BDF8240038B9FFE726
:1019500040F68041C2F2000105200870FFE7FFE772
:1019600067E040F68040C2F200000078042804D10D
:10197000FFE70120ADF8240011E040F61241C2F269
:101980000001002008709DF82F0041F28953C0F635
:101990000003012200F044FBADF82400FFE748E01B
:1019A00040F68040C2F200000078042804D1FFE72E
:1019B0000120ADF8240012E0BDF8201000200290B4
:1019C00039B9FFE7BDF82200B0FA80F04009029073
:1019D000FFE7029901208843ADF82400FFE728E0E3
:1019E00040F68040C2F200000078042804D1FFE7EE
:1019F0000120ADF8240017E00120ADF82400BDF867
:101A0000240080B9FFE79DF82F0040F61241C2F292
:101A1000000141F28953C0F60003022200F000FBEE
:101A2000ADF82400FFE7FFE703E00220ADF8240053
:101A3000FFE7BDF8240000BBFFE7BDF81E00E0B9DA
:101A4000FFE70A9800780006002809D5FFE79DF80F
:101A50002F00069B0022114600F018FB019008E0C1
:101A60009DF82F00069B0022114600F0D9FA019044
:101A7000FFE70198ADF82400FFE70CE0FFF7ACFAB0
:101A8000ADF8240007E00120ADF8240003E00220B7
:101A9000ADF82400FFE7BDF824000CB080BD0000C5
:101AA00080B584B08DF80F000291019240F680401D
:101AB000C2F200000090806800F036FC00998A684D
:101AC0000320002A18BF04200870002004B080BD45
:101AD00080B584B08DF80F009DF80F0040F690425D
:101AE000C2F200022C2100FB012002904FF40020E2
:101AF00001900298407E20B9FFE70298807E40B1B5
:101B0000FFE7029901200870019840F0020001905F
:101B100003E0029900200870FFE70299002000907E
:101B200048709DF80F00019900F038F8009804B053
:101B300080BD000080B586B08DF817000491039237
:101B40009DF8170040F69042C2F200022C2100FBE3
:101B5000012002900299002001904860029988605B
:101B6000029908610299C860029948610299C861A6
:101B700002990862029948620399029A9162029955
:101B8000487002990870029908769DF81700049928
:101B900000F0ECFB019806B080BD000080B584B079
:101BA0008DF80F0002919DF80F0040F69042C2F2AE
:101BB00000022C2100FB012001901F2000F03EFCC0
:101BC0000199002008769DF80F00029900F0CEFBE5
:101BD00004B080BD80B584B08DF80D008DF80C1078
:101BE0009DF80D0040F69042C2F200022C2100FB4D
:101BF00001200290002001909DF80C00012808D1DE
:101C0000FFE79DF80D0020B9FFE70120ADF80E00B9
:101C10001BE09DF80C00012804D0FFE70298807EAD
:101C200050B1FFE79DF80C00029948700299052019
:101C300008700A200190FFE79DF80D000199FFF759
:101C4000ADFF0020ADF80E00FFE7BDF80E0004B0B8
:101C500080BD000080B58CB08DF82D000A91002069
:101C60008DF82700ADF824009DF82D0000F0EEFA65
:101C700008909DF82D0000F0F7FA00F0030007909F
:101C80009DF82D0000F0B8FA06909DF82D0040F662
:101C90009042C2F200022C2100FB012003909DF82B
:101CA0002800C00720B1FFE7039901200876FFE76D
:101CB000FFE70398007801460291052800F29F8112
:101CC0000299DFE811F006000A004000C0002A0176
:101CD00084010020ADF82E009DE19DF818008007DA
:101CE00000282FD4FFE70398007E58B3FFE707983A
:101CF00002280ED1FFE70398407E50B1FFE7039919
:101D00000320087003990020487601208DF82700F1
:101D100017E0079858B9FFE70398807E38B1FFE7CE
:101D200003990420087001208DF8270008E00120A5
:101D3000ADF824009DF82D000021FFF74BFFFFE7D1
:101D4000FFE7FFE75BE19DF818008007002847D414
:101D5000FFE70398007E002842D0FFE7079801289C
:101D60003ED1FFE79DF820004006002838D5FFE768
:101D70000399C8680A691044C86003988168C068FC
:101D8000884226D3FFE70399002008700398C069B2
:101D900050B1FFE7039841688268C3699DF82D0040
:101DA0009847ADF82400FFE7BDF8240050B9FFE7DD
:101DB0000398007828B9FFE79DF82D00FFF788FE0B
:101DC000FFE705E09DF82D000021FFF703FFFFE787
:101DD00005E09DF82D00012100F082F9FFE731E0D8
:101DE0009DF82000000760B3FFE70399002008700A
:101DF0000398806A60B1FFE70398D0F828C09DF887
:101E00002D000899079A069BE047ADF82400FFE7EC
:101E1000BDF8240070B9FFE70398007848B9FFE7E0
:101E20000399022008709DF82D00002100F058F958
:101E3000FFE705E09DF82D000021FFF7CBFEFFE74F
:101E4000FFE7FFE7DBE09DF818008007002863D478
:101E5000FFE70398007E00285ED0FFE70020019096
:101E60008DF827009DF82D0000F0E2F90146019859
:101E700004910590FFE70598049988420FD2FFE787
:101E80009DF82D0000F0C6F9039A5168D268059BB1
:101E90001A448854FFE7059801300590EBE79DF858
:101EA0002D00012100F082FA049A0399C8681044B9
:101EB000C86003988168C068884226D3FFE7039909
:101EC000002008700398006A50B1FFE7039841684A
:101ED000C268036A9DF82D009847ADF82400FFE71B
:101EE000BDF8240050B9FFE70398007828B9FFE750
:101EF0009DF82D00FFF7ECFDFFE705E09DF82D00B4
:101F00000021FFF767FEFFE705E09DF82D000221A5
:101F1000FFF744FEFFE7FFE771E00398007E00282B
:101F200051D0FFE79DF82D0000F082F9049004984D
:101F3000082838D1FFE700200590FFE705980499AD
:101F400088420DD2FFE79DF82D0000F063F9039958
:101F50004969059A8854FFE7059801300590EDE737
:101F60009DF82D00012100F021FA03984169426A91
:101F70009DF82D009047ADF82400BDF8240058B915
:101F8000FFE703980078042805D1FFE79DF82D00AE
:101F9000FFF79EFDFFE705E09DF82D000021FFF70C
:101FA00019FEFFE70EE09DF82D000121009100F0E1
:101FB000FDF90098ADF824009DF82D000021FFF7F1
:101FC00009FEFFE7FFE700208DF8270017E09DF8E6
:101FD00018008007002811D4FFE7039840780128F3
:101FE00006D1FFE79DF82D000121FFF7F3FD04E086
:101FF0009DF82D00FFF76CFDFFE7FFE7FFE7FFE728
:102000009DF8270000287FF454AEFFE7BDF82400B8
:10201000ADF82E00FFE7BDF82E000CB080BD00002B
:1020200080B588B08DF81F000691059204939DF845
:102030001F0040F69042C2F200022C2100FB01205A
:1020400003900398817E0120002918BF02208DF89B
:102050000B000698039948600598039988600399D6
:1020600040200861039900200190C86004980399FA
:10207000C8619DF81F009DF80B1000F031F8019821
:10208000039A0221117008B080BD000080B586B0AF
:102090008DF817000491039202939DF8170040F603
:1020A0009042C2F200022C2100FB01200190049812
:1020B0000199486003980199886001990020009077
:1020C00008610199C860029801990862019901208C
:1020D00048769DF81700FFF7FBFC009806B080BD1E
:1020E00080B586B08DF817008DF816109DF8170092
:1020F00040F69042C2F200022C2100FB0120049025
:102100009DF81700012100F071F99DF816000146B5
:10211000019140B1FFE70198012805D0FFE7019840
:10212000022806D00BE00AE09DF8170000F0CCF87A
:1021300005E09DF81700042100F018F9FFE7049A64
:102140009168D06812691044884206D2FFE704996A
:10215000C86809690844009003E00498806800900A
:10216000FFE7009802900498C0680390FFE7039887
:10217000029988420DD2FFE79DF81700049949683B
:10218000039A895C00F022F9FFE70398013003907D
:10219000EDE79DF817000221FFF700FD06B080BDB6
:1021A00080B586B08DF81700049103929DF8170052
:1021B00040F69042C2F200022C2100FB0120029066
:1021C0000498029948610299002001908860029960
:1021D00008610299C8600398029948620398002830
:1021E00018BF0120029988769DF81700FFF770FC50
:1021F000019806B080BD000081B08DF803009DF805
:102200000300010140F20010C4F20100405801B087
:102210007047000081B08DF803009DF80300C101F4
:1022200040F28010C4F20100405801B07047000035
:1022300081B08DF803009DF80300C10140F28C10BD
:10224000C4F20100405801B07047000081B08DF821
:1022500003009DF80300010140F20410C4F20100E4
:10226000405801B07047000081B08DF803009DF820
:102270000300010140F20810C4F20100405801B00F
:102280007047000040F24810C4F201000068704737
:1022900080B5FFF729F980BD80B582B0022000F03B
:1022A0002BF800200190FFE70198C0087C2805D892
:1022B000FFE7FFE7019801300190F5E74FF40030A8
:1022C00000F01AF802B080BD82B08DF807009DF8CA
:1022D0000700000140F20011C4F20101085800900B
:1022E000009880F00400009000989DF807201201EB
:1022F000885002B07047000082B00190FFE740F2C2
:102300008031C4F2010108680090BDF804200098F3
:1023100010430090BDF8062000989043009000986C
:102320000860FFE702B0704781B00090009840F26B
:102330005011C4F20101086001B0704782B00190F1
:10234000FFE740F24011C4F2010108680090BDF8B7
:102350000420009810430090BDF806200098904398
:10236000009000980860FFE702B0704783B08DF8D6
:102370000B000191FFE79DF80B00000140F20011F6
:10238000C4F2010108580090BDF8042000981043E1
:102390000090BDF8062000989043009000989DF8AA
:1023A0000B2012018850FFE703B0704782B08DF810
:1023B0000700009100989DF80710CA0140F29011A3
:1023C000C4F20101885002B07047000082B08DF85D
:1023D0000700009100989DF80710CA0140F2C01153
:1023E000C4F20101885002B07047000082B08DF83D
:1023F0000700009100989DF80710CA0140F2D01123
:10240000C4F20101885002B07047000082B0019010
:10241000FFE740F24C11C4F2010108680090BDF8DA
:102420000420009810430090BDF8062000989043C7
:10243000009000980860FFE702B0704781B00090FC
:10244000009840F24811C4F20101086001B07047E1
:1024500040F60041C2F2000142F20040C0F2F40036
:1024600008600020087148710820887170470000DA
:1024700080B582B0019001984FF47A51484300F042
:1024800003F802B080BD000081B00090FFE7009823
:10249000411E009110B1FFE700BFF8E701B070479F
:1024A00080B584B043F65B11C0F6000101200290B4
:1024B0000322009200F048F9009A43F64D11C0F64D
:1024C0000001022000F040F9009A43F67211C0F6B4
:1024D0000001104600F038F9009A43F66411C0F686
:1024E0000001042000F030F94FF4887001900D21B4
:1024F0004FF0FF324FF47143039300F009F8019855
:10250000029A039BBD2100F003F804B080BD0000D7
:1025100080B58AB0099008918DF81F20ADF81C3065
:10252000BDF82400BDF82010262203924FF6FF7359
:10253000059300F021FB039A059BBDF82400BDF82C
:10254000201000F0A5FA039A059BBDF82400089915
:10255000263189B200F09CFA039A059B099826302F
:10256000BDF8201080B200F007FB099801300899EF
:102570000131BDF81C206B461A6080B289B2252358
:102580001A4600F04DFB059A09981330089913314B
:102590009DF91F301B01EC46CCF8002080B289B2B7
:1025A0000122049200F0CAFB049A0998133008999A
:1025B00013319DF91F30C3EBC303BDF81CC0EE46B9
:1025C000CEF800C080B289B200F0B8FB059A099835
:1025D0001330089913319DF91F301B01EC46CCF8DC
:1025E000002080B289B24FF0FF32069200F0A6FBC5
:1025F000069A09981330089913319DF91F30C3EBDF
:10260000C303BDF81CC0EE46CEF800C080B289B24C
:1026100000F094FB9DF91F00013078B9FFE709989D
:10262000103008990C316B464FF6FF721A6080B279
:1026300089B20622142300F0F3FA0EE00998103054
:10264000089904316B464FF6FF721A6080B289B266
:102650000622182300F0E4FAFFE7099801300899F0
:102660000131BDF81C206B461A6080B289B2072286
:1026700001922523029300F0D3FA019A029B099854
:102680001F3008990131BDF81CC0EE46CEF800C0DD
:1026900080B289B200F0C4FA0AB080BD80B586B0BD
:1026A0000590ADF812100598C0EB40116FF03D0099
:1026B00000EB41000390BDF80C10BDF81230002073
:1026C00001903622009200F057FA009ABDF80C10E3
:1026D000BDF81230012000F04FFA0198BDF80C103F
:1026E000BDF81230FA22029200F0D2F90198029A53
:1026F00003990131BDF8123089B200F0C9F9009A8E
:102700000298BDF80C10BDF8123000F035FA009AAE
:10271000BDF80C10BDF81230F92000F02DFA019828
:10272000029A03993531BDF8123089B200F0B0F940
:102730000198029A03993431BDF8123089B200F041
:10274000A7F9039806B080BD80B58AB009900891BA
:10275000079209984FF47141FFF7A0FF06900020FF
:102760000590FFE708980599405C20B1FFE70598C0
:1027700001300590F6E705980799484300EB4001C2
:10278000FA20A0EB4101022000EB610004900698C2
:102790000799C1EBC101C1F1360101EBD17100EB29
:1027A0006100039008980499039A9DF81C30EC4648
:1027B000CCF804300023CCF800304FF6FF7300F063
:1027C00011FE0AB080BD000080B584B0ADF80E00E7
:1027D000ADF80C1040F6C850C2F20000009000881E
:1027E00040F6CA51C2F200010191098840F25E022E
:1027F000C2F200020292128800F09EF9009B019939
:10280000029ABDF80E001880BDF80C00088040F652
:10281000FF601080BDF80E00BDF80C10128800F0AB
:102820008BF904B080BD000080B584B0ADF80E0017
:1028300040F20200C2F200000088411E40F2000097
:10284000C2F20000008801388AB283B200210191EF
:10285000084600F05BFC0198ADF80C00FFE7BDF8FE
:102860000C0040F20201C2F200010988884220DA1D
:10287000FFE70020ADF80A00FFE7BDF80A0040F2CC
:102880000001C2F20001098888420BDAFFE7BDF8B7
:102890000E0000F0CFFBFFE7BDF80A000130ADF8F5
:1028A0000A00EAE7FFE7BDF80C000130ADF80C00C4
:1028B000D5E704B080BD000010B586B08C468646D2
:1028C00009980899ADF816E0ADF814C08DF81320FA
:1028D000ADF81030ADF80E108DF80D00BDF91600F2
:1028E00040F20201C2F200010988884221DAFFE7C2
:1028F000BDF9140040F20001C2F2000109888842CB
:1029000017DAFFE7BDF916009DF80D1001EB410144
:1029100000EB4100013800280BD4FFE7BDF914009B
:102920009DF80D1000EBC1000138B0F1FF3F01DC54
:10293000FFE7AAE000208DF80C00FFE79DF90C00EE
:10294000052800F3A280FFE79DF90C00052804D1BB
:10295000FFE700208DF80B000EE09DF8130000EB60
:1029600080009DF90C10014443F25240C0F6000073
:10297000405C8DF80B00FFE700208DF80A00FFE7B0
:102980009DF90A00072879DCFFE79DF80B00C007D6
:1029900080B3FFE79DF80D00012811D1FFE7BDF8D6
:1029A00016009DF90C100844BDF814109DF90A207A
:1029B0001144BDF8102080B289B200F0BDF818E0D3
:1029C000BDF816109DF90C009DF80D3000FB0310AA
:1029D000BDF814209DF90A1001FB0321BDF8102059
:1029E000EC46CCF8002080B289B21A4600F018F903
:1029F000FFE737E0BDF80E00BDF81010884230D078
:102A0000FFE79DF80D00012811D1FFE7BDF8160082
:102A10009DF90C100844BDF814109DF90A201144CA
:102A2000BDF80E2080B289B200F086F818E0BDF83B
:102A300016109DF90C009DF80D3000FB0310BDF839
:102A400014209DF90A1001FB0321BDF80E20EC466D
:102A5000CCF8002080B289B21A4600F0E1F8FFE716
:102A6000FFE7FFE79DF80B0040088DF80B00FFE73C
:102A70009DF80A0001308DF80A0081E7FFE79DF814
:102A80000C0001308DF80C0058E706B010BD0000B6
:102A900080B582B0ADF80600ADF80410ADF80220A4
:102AA000ADF80030BDF8060040F20201C2F20001AC
:102AB000098888420ADAFFE7BDF8040040F2000105
:102AC000C2F200010988884201DBFFE731E0BDF86E
:102AD0000600BDF802100844013840F20201C2F2BB
:102AE0000001098888420BDBFFE740F20200C2F2D6
:102AF00000000088BDF80610401AADF80200FFE79C
:102B0000BDF80600BDF80430BDF8021001440139DB
:102B10008AB2194600F0FAFAFFE7BDF80200411E3A
:102B2000ADF8021028B1FFE7BDF8000000F082FA0E
:102B3000F3E702B080BD000080B582B0ADF80600BA
:102B4000ADF80410ADF80220BDF80600BDF8041081
:102B5000421C4B1C92B29BB200F0D8FABDF80200A6
:102B600000F068FABDF8020000F064FABDF8020057
:102B700000F060FA02B080BD80B582B0ADF806000A
:102B8000ADF80410ADF80220ADF80030BDF8060035
:102B900040F20201C2F20001098888420ADAFFE726
:102BA000BDF8040040F20001C2F200010988884229
:102BB00001DBFFE731E0BDF80400BDF80210084476
:102BC000013840F20001C2F20001098888420BDBA3
:102BD000FFE740F20000C2F200000088BDF80410D8
:102BE000401AADF80200FFE7BDF80620BDF804105A
:102BF000BDF802000844013883B2104600F086FA9E
:102C0000FFE7BDF80200411EADF8021028B1FFE752
:102C1000BDF8000000F00EFAF3E702B080BD00003E
:102C200080B584B084460698ADF80EC0ADF80C109F
:102C3000ADF80A20ADF80830ADF80600BDF80E007A
:102C400040F20201C2F20001098888420ADAFFE775
:102C5000BDF80C0040F20001C2F200010988884270
:102C600001DBFFE767E0BDF80E00BDF80A1008447D
:102C7000013840F20201C2F20001098888420BDBF0
:102C8000FFE740F20200C2F200000088BDF80E101B
:102C9000401AADF80A00FFE7BDF80C00BDF80810B7
:102CA0000844013840F20001C2F20001098888425C
:102CB0000BDBFFE740F20000C2F200000088BDF825
:102CC0000C10401AADF80800FFE7BDF80E00BDF883
:102CD0000C10BDF80A200244013ABDF808300B443C
:102CE000013B92B29BB200F011FABDF80800ADF8BA
:102CF0000C00FFE7BDF80C0001281CDBFFE7BDF866
:102D00000A00ADF80E00FFE7BDF80E0001280BDB4E
:102D1000FFE7BDF8060000F08DF9FFE7BDF80E00F3
:102D20000138ADF80E00EFE7FFE7BDF80C00013801
:102D3000ADF80C00DEE704B080BD000080B586B0C1
:102D400084460898ADF816C0ADF8141004920393A9
:102D5000ADF80A00FFE70398B0B3FFE70398012836
:102D60000EDBFFE7BDF81600BDF81410BDF80C200F
:102D7000BDF80A30FFF700FF03980138039010E018
:102D8000BDF81600BDF81410039A11445242BDF864
:102D90000A3089B292B2FFF7EFFE03980130039038
:102DA000FFE70498B0F1FF3F05DCFFE7BDF8160030
:102DB0000138019004E0BDF8160001300190FFE7F2
:102DC0000198ADF81600C6E706B080BD80B584B0A6
:102DD0000020C4F20B00019080210291FDF77EFDDE
:102DE000C8200390FFF744FB01980299FDF76CFDA2
:102DF0000398FFF73DFB01980299FDF76FFD0398DB
:102E0000FFF736FB04B080BD80B590B0FFF7DEFF62
:102E10000120019000F046FA4FF47A70FFF728FB8A
:102E2000CB2000F03FFA392000F068FA2C2000F0A7
:102E300065FA0020039000F061FA342000F05EFA99
:102E4000022000F05BFACF2000F02CFA039800F08B
:102E500055FAC120079000F051FA302000F04EFAE8
:102E6000E82000F01FFA852000F048FA039800F0EF
:102E700045FA78200F9000F041FAEA2000F012FAAB
:102E8000039800F03BFA039800F038FAED2000F0C8
:102E900009FA642000F032FA0320059000F02EFABF
:102EA000122000F02BFA812000F028FAF72000F021
:102EB000F9F9202000F022FAC02000F0F3F92320D5
:102EC00000F01CFA079800F0EDF91020029000F0D5
:102ED00015FAC52000F0E6F93E2000F00FFA282090
:102EE00000F00CFAC72000F0DDF9862000F006FAA9
:102EF00036200C9000F0D6F94820089000F0FEF93A
:102F00003A2000F0CFF9552000F0F8F9B12000F098
:102F1000C9F9039800F0F2F9182000F0EFF9B62093
:102F200000F0C0F90820099000F0E8F9822000F0D4
:102F3000E5F9272000F0E2F9F22000F0B3F9039858
:102F400000F0DCF9262000F0ADF9019800F0D6F988
:102F5000E02000F0A7F90F200D9000F0CFF931200C
:102F60000B9000F0CBF92B2000F0C8F90C200A9050
:102F700000F0C4F90E20049000F0C0F9099800F0A8
:102F8000BDF94E2000F0BAF9F12000F0B7F9372072
:102F900000F0B4F90720069000F0B0F9029800F0B4
:102FA000ADF9059800F0AAF9049800F0A7F90920F6
:102FB00000F0A4F9039800F0A1F9E12000F072F903
:102FC000039800F09BF9049800F098F9142000F0A1
:102FD00095F9059800F092F911200E9000F08EF905
:102FE000069800F08BF90B9800F088F9079800F02C
:102FF00085F9089800F082F9099800F07FF90D989A
:1030000000F07CF90A9800F079F90B9800F076F955
:103010000C9800F073F90D9800F070F90E9800F01C
:1030200041F90F98FFF724FA292000F03BF910B07E
:1030300080BD000080B582B0ADF806009DF80700A5
:1030400000F05CF99DF8060000F058F902B080BD70
:1030500080B582B08DF80700362000F023F99DF886
:10306000070000F003008DF806009DF806000146F9
:103070000091032848D80099DFE801F002132435B5
:10308000482000F03BF940F20201C2F200014FF487
:10309000A070088040F20001C2F20001F020088018
:1030A00032E0282000F02AF940F20201C2F20001C9
:1030B0004FF4A070088040F20001C2F20001F0203D
:1030C000088021E0882000F019F940F20201C2F2E4
:1030D0000001F020088040F20001C2F200014FF42C
:1030E000A070088010E0E82000F008F940F202012A
:1030F000C2F200014FF4A070088040F20001C2F259
:103100000001F0200880FFE702B080BD80B582B0EA
:10311000ADF80600ADF80410ADF80220ADF80030AF
:103120002A2000F0BFF89DF8070000F0E7F89DF8AE
:10313000060000F0E3F89DF8030000F0DFF89DF8CA
:10314000020000F0DBF82B2000F0ACF89DF8050041
:1031500000F0D4F89DF8040000F0D0F89DF80000CD
:1031600000F0CCF89DF8000000F0C8F82C2000F02A
:1031700099F802B080BD000080B586B08DF81700C8
:103180000020C4F2040002900021FDF723FD029804
:1031900040F60841C2F2000108224A8004220A8057
:1031A000FDF730FD02980121FDF714FD0021C4F266
:1031B0000B01086820F4806008609DF81700082162
:1031C000C4F204010860FFE70C20C4F204000068A8
:1031D000C006002801D5FFE7F6E700200490FFE7CE
:1031E000049807280BDCFFE70820C4F204000068FD
:1031F000ADF80E00FFE7049801300490F0E70821D5
:10320000C4F2040100200860FFE70C20C4F20400AF
:103210000068C006002801D5FFE7F6E70020ADF8FA
:103220000C000821C4F204010A68ADF80C20BDF8B6
:103230000C201202ADF80C200860FFE70C20C4F24D
:1032400004000068C006002801D5FFE7F6E7082063
:10325000C4F204000168BDF80C000843ADF80C008E
:103260000021C4F20B01086840F48060086000206F
:10327000C4F20400019000210091FDF7ABFC009A1C
:10328000019840F60841C2F2000102234B800A80F7
:10329000FDF7B8FC01980121FDF79CFCBDF80C007E
:1032A00006B080BD81B08DF803000021C4F20B018F
:1032B000086820F04000086048F20001C4F20E01E6
:1032C000086820F0040008609DF803000821C4F29B
:1032D00004010860FFE70C20C4F204000068C00687
:1032E000002801D5FFE7F6E748F20001C4F20E011D
:1032F000086840F00400086001B0704781B08DF8A4
:1033000003000021C4F20B01086840F0400008608F
:1033100048F20001C4F20E01086820F004000860C1
:103320009DF803000821C4F204010860FFE70C20A7
:10333000C4F204000068C006002801D5FFE7F6E7E4
:1033400048F20001C4F20E01086840F00400086071
:1033500001B0704780B586B0002002900590FDF75F
:103360008BFCFFF775F840F64050C2F200000122D6
:1033700003921146FDF7CCFFFDF720FDFDF79CFC05
:10338000FDF740FD029940F23F12EF230846FFF798
:10339000BDFE0298FFF748FAFFF782F80398049001
:1033A000FFE740F6C450C2F20000019040F6C6515B
:1033B000C2F200010091FDF7B7F80099019800886A
:1033C0000988484368B1FFE740F6C450C2F20000E4
:1033D000008840F6C651C2F200010988FFF7F4F9EF
:1033E000FFE7DEE710B588B08C4686460B980A9951
:1033F000CDF81CE0CDF818C00592ADF81230ADF84C
:1034000010108DF80F00FFE707980078F8B1FFE77C
:10341000BDF91800BDF91410079A1278BDF81230E2
:10342000BDF810C09DF80F40EE46CEF80440CEF82F
:1034300000C0FFF741FA9DF80F0000EB400106982D
:1034400000EB41000690079801300790DCE708B0D8
:1034500010BD00000000003E5B4F5B3E3E6B4F6BBB
:103460003E1C3E7C3E1C183C7E3C181C577D571C65
:103470001C5E7F5E1C00183C1800FFE7C3E7FF00DE
:1034800018241800FFE7DBE7FF30483A060E26292C
:10349000792926407F050507407F05253F5A3CE7EF
:1034A0003C5A7F3E1C1C08081C1C3E7F14227F22B5
:1034B000145F5F005F5F06097F017F006689956A80
:1034C000606060606094A2FFA29408047E0408100B
:1034D000207E201008082A1C08081C2A08081E1034
:1034E0001010100C1E0C1E0C30383E3830060E3EEC
:1034F0000E06000000000000005F0000000700074B
:1035000000147F147F14242A7F2A12231308646274
:1035100036495620500008070300001C22410000D5
:1035200041221C002A1C7F1C2A08083E0808008033
:1035300070300008080808080000606000201008CB
:1035400004023E5149453E00427F400072494949CC
:10355000462141494D331814127F102745454539FE
:103560003C4A494931412111090736494949364602
:103570004949291E000014000000403400000008E2
:103580001422411414141414004122140802015985
:1035900009063E415D594E7C1211127C7F49494912
:1035A000363E414141227F4141413E7F49494941A7
:1035B0007F090909013E414151737F0808087F00D6
:1035C000417F41002040413F017F081422417F405C
:1035D0004040407F021C027F7F0408107F3E414133
:1035E000413E7F090909063E4151215E7F091929A3
:1035F00046264949493203017F01033F4040403F8D
:103600001F2040201F3F4038403F631408146303CD
:10361000047804036159494D43007F41414102044C
:10362000081020004141417F040201020440404053
:103630004040000307080020545478407F28444449
:10364000383844444428384444287F385454541863
:1036500000087E090218A4A49C787F08040478005E
:10366000447D40002040403D007F10284400004140
:103670007F40007C047804787C0804047838444453
:103680004438FC1824241818242418FC7C0804044A
:1036900008485454542404043F44243C4040207CB3
:1036A0001C2040201C3C4030403C44281028444C06
:1036B0009090907C4464544C4400083641000000D3
:1036C000770000004136080002010204023C262374
:1036D000263C1EA1A161123A4040207A385454552C
:1036E00059215555794122545478422155547840F6
:1036F00020545579400C1E5272123955555559397E
:103700005454545939555454580000457C410002D2
:10371000457D420001457C407D1211127DF0282537
:1037200028F07C545545002054547C547C0A097F71
:103730004932494949323A4444443A324A48483085
:103740003A4141217A3A42402078009DA0A07D3D37
:103750004242423D3D4040403D3C24FF2424487EBF
:103760004943662B2FFC2F2BFF0929F620C0887EAA
:10377000090320545479410000447D413048484AAF
:1037800032384040227A007A0A0A727D0D19317D62
:103790002629292F28262929292630484D40203836
:1037A0000808080808080808382F10C8ACBA2F10F5
:1037B0002834FA00007B000008142A142222142A5C
:1037C0001408AA005500AAAA55AA55AA000000FF8D
:1037D00000101010FF00141414FF001010FF00FF61
:1037E0001010F010F0141414FC001414F700FF0073
:1037F00000FF00FF1414F404FC141417101F101021
:103800001F101F1414141F00101010F000000000EF
:103810001F101010101F10101010F010000000FFEB
:10382000101010101010101010FF10000000FF14E6
:103830000000FF00FF00001F10170000FC04F4143C
:10384000141710171414F404F40000FF00F71414F4
:103850001414141414F700F7141414171410101F70
:10386000101F141414F4141010F010F000001F10A6
:103870001F0000001F14000000FC140000F010F0F6
:103880001010FF10FF141414FF141010101F00006C
:103890000000F010FFFFFFFFFFF0F0F0F0F0FFFF7F
:1038A000FF0000000000FFFF0F0F0F0F0F38444410
:1038B0003844FC4A4A4A347E02020606027E027EF0
:1038C0000263554941633844443C04407E201E2035
:1038D00006027E020299A5E7A5991C2A492A1C4CDA
:1038E0007201724C304A4D4D303048784830BC62DD
:1038F0005A463D3E494949007E0101017E2A2A2A55
:103900002A2A44445F444440514A444040444A5176
:10391000400000FF0103E080FF000008086B6B0817
:103920003612362436060F090F060000181800005C
:10393000001010003040FF0101001F01011E00199E
:103940001D1712003C3C3C3C000000000063686115
:103950006E6E656C73206374726C007365742066A0
:1039600072657100616D706C2070726F7065727439
:1039700079007363616E2070726F70657274790084
:10398000A03900080000002060000000FC000008D2
:10399000003A000800040020506A000018010008E6
:1039A000F000400100127A00090243000201008089
:1039B0003209040000010202010005240010010583
:1039C00024010001042402060524060001070582E3
:1039D0000340000209040100020A000000070581FB
:1039E000024000000705030240000012011001021E
:1039F000000040830425F100000000000100FF0EDC
:040000050800015D91
:00000001FF
